:020000040800F2
:10000000188F002099020008052A000861260008C0
:10001000012A0008DD060008252E00080000000067
:10002000000000000000000000000000D9020008ED
:100030000507000800000000A9030008B903000834
:10004000B3020008B3020008B3020008B3020008BC
:10005000B3020008B3020008B3020008B3020008AC
:10006000B3020008B3020008B3020008B30200089C
:10007000B3020008B3020008B3020008B30200088C
:10008000B3020008E1060008B3020008B30200084A
:10009000B3020008B3020008B3020008B30200086C
:1000A000B3020008B3020008B3020008B30200085C
:1000B000D12A0008B3020008B3020008B302000806
:1000C000B3020008B3020008B3020008B30200083C
:1000D000B3020008B3020008192E0008B30200089A
:1000E000B3020008B3020008B3020008B30200081C
:1000F000B3020008B3020008B3020008B30200080C
:10010000B3020008B3020008B3020008B3020008FB
:10011000B3020008B3020008DD2A0008B302000899
:10012000ED060008B3020008B3020008F906000853
:10013000B30200080000000000000000B302000845
:10014000B3020008B3020008B3020008B3020008BB
:10015000B3020008B3020008B3020008B3020008AB
:10016000B3020008B3020008B3020008B30200089B
:10017000B3020008B3020008B30200080000000048
:1001800000000000B30200080000000000000000B2
:10019000B30200080000000000000000B3020008E5
:1001A000000000000000000000000000B302000892
:1001B000B3020008B3020008B3020008B30200084B
:1001C000B302000800F002F800F052F814A696E816
:1001D000000CB244B344DA4501D100F049F8BAE862
:1001E0000F000FA696E83000A5EB040504EB060708
:1001F000AAEB0704A7F101074FEA15154FEA3414DB
:10020000A4F10104AC4201D300F032F813F0010F65
:1002100018BFFB1A43F0010300F001F8DBE71847B1
:10022000504C0000704C0000103A24BF78C878C1D0
:10023000FAD8520724BF30C830C144BF04680C60EC
:1002400070470000704700000023002400250026AE
:10025000103A28BF78C1FBD8520728BF30C148BF29
:100260000B6070471FB500F02DFA1FBD10B510BD13
:1002700000F0F2F9114603B402F02AFE03BCFFF7C6
:10028000F1FF02F027FE00F00CFA03B4FFF7EEFFD7
:1002900003BC00F00FFA00000948804709480047F6
:1002A000FEE7FEE7FEE7FEE7FEE7FEE7FEE7FEE726
:1002B000FEE7FEE704480549054A064B7047000083
:1002C000BD2A0008C501000818890020188F0020E9
:1002D000188B0020188B00201EF0040F0CBFEFF3CA
:1002E0000880EFF30980816911F8021C00294DD1C3
:1002F00001B590E80F10E047BDE80050CCF80000D1
:10030000314B93E80600914208BF70471A6041B92B
:100310001EF0100F2CD12D4B186820F00100186032
:1003200026E0ACF1200C1EF0100F08BFACF1400C21
:1003300081F822E0C1F838C006B4084603F0CEFDCB
:1003400006BC50B90C46012002F04EFF204B5A6803
:100350001A60002194F922E0DAE7D1F838C091F967
:1003600022E01EF0100F08BFACEC108A8CE8F00FF2
:100370001400A06B94F922E01EF0100F08BFB0EC3F
:10038000108AB0E8F00F80F309887047114A1368AB
:100390009942FAD801B552F821C00FC8E047BDE82C
:1003A0000050CCF80000704701B503F00DFABDE82D
:1003B0000140EFF3098CA3E701B503F0CFFEBDE8E0
:1003C0000140EFF3098C9BE72000002034EF00E0B0
:1003D00020000020004E000853EA020C00F0698063
:1003E0002DE9F04B4FF00006002B1FBFB3FA83F549
:1003F00003FA05F424FA05F65E4012BF1643B2FA7A
:1004000082F502FA05F4C5F120051EBF22FA05FCAB
:1004100044EA0C04203556EA044C4FEA144418BF51
:10042000641C4FF000084FF00009904271EB030C80
:1004300039D3002919BFB1FA81F701FA07F6B0FAEA
:1004400080F700FA07F6C7F120071EBF20FA07FC65
:1004500046EA0C062037B6FBF4FCA7EB0507103F75
:1004600007F01F0BCBF120062CFA06F60CFA0BFB5B
:1004700044BFB3460026202FA4BF5E464FF0000BBA
:100480005BEA060C08BF4FF0010B19EB0B0948EBB8
:100490000608ABFB027C06FB02CC0BFB03CCC01BAB
:1004A00071EB0C01C1E70B46024641464846BDE8E8
:1004B000F08B13B5084318BF4FF0FF300146AFF380
:1004C0000080BDE81C407047032A40F2308010F0E5
:1004D000030C00F0158011F8013BBCF1020F6244DF
:1004E00098BF11F801CB00F8013B38BF11F8013B70
:1004F000A2F1040298BF00F801CB38BF00F8013B1D
:1005000011F0030300F02580083AC0F0088051F88C
:10051000043B083A51F804CBA0E80810F5E7121D97
:100520005CBF51F8043B40F8043BAFF30080D207B6
:1005300024BF11F8013B11F801CB48BF11F8012B82
:1005400024BF00F8013B00F801CB48BF00F8012BA5
:10055000704710B5203AC0F00B80B1E81850A0E801
:100560001850B1E81850A0E81850203ABFF4F5AF81
:100570005FEA027C24BFB1E81850A0E8185044BFDD
:1005800018C918C0BDE810405FEA827C24BF51F84A
:10059000043B40F8043B08BF7047D20728BF31F83E
:1005A000023B48BF11F8012B28BF20F8023B48BF8F
:1005B00000F8012B70474FF000020429C0F01280B0
:1005C00010F0030C00F01B80CCF1040CBCF1020F06
:1005D00018BF00F8012BA8BF20F8022BA1EB0C01DB
:1005E00000F00DB85FEAC17C24BF00F8012B00F8D1
:1005F000012B48BF00F8012B70474FF0000200B5F7
:10060000134694469646203922BFA0E80C50A0E835
:100610000C50B1F12001BFF4F7AF090728BFA0E8E3
:100620000C5048BF0CC05DF804EB890028BF40F8AF
:10063000042B08BF704748BF20F8022B11F0804FF1
:1006400018BF00F8012B70477047704770470000D3
:1006500000487047B00000207546FFF7F9FFAE462E
:1006600005006946534620F00700854618B020B5BE
:10067000FFF720FEBDE820404FF000064FF00007D6
:100680004FF000084FF0000BAC46ACE8C009ACE8F6
:10069000C009ACE8C009ACE8C00921F007018D46EB
:1006A000704710B50446AFF300802046BDE8104007
:1006B000FFF7EBBD01491820ABBEFEE726000200A4
:1006C0007047000080B504F029FB4EF63C71F1EE56
:1006D000100ACEF20001086080BD0000FEE70000B5
:1006E00040F2D010C2F2000000F0C8B840F2101082
:1006F000C2F2000000F0C2B840F27010C2F2000076
:1007000000F0BCB87047000072B600BFFEE7000002
:1007100070470000704700007047000070470000FD
:1007200070470000704700007047000070470000ED
:1007300070470000704700007047000070470000DD
:1007400070470000704700007047000070470000CD
:1007500070470000704700007047000070470000BD
:1007600070470000704700007047000070470000AD
:10077000704700007047000070470000704700009D
:10078000704700007047000070470000704700008D
:10079000704700007047000070470000704700007D
:1007A000704700007047000070470000704700006D
:1007B000704700007047000070470000704700005D
:1007C000704700007047000070B5866D044600F069
:1007D000BFFA94F83510022928D105462068216C0B
:1007E000026822F016020260426922F08002426131
:1007F00009B9A16C19B1016821F008010160016813
:1008000021F00101016000BF20680068C00715D019
:1008100000F09EFA401B0628F6D3202060650320D6
:1008200084F83500002184F8341070BD80206065A4
:100830000120002184F8341070BD00BFE06D3F211D
:1008400001FA00F0B060012084F83500002000219A
:1008500084F8341070BD000090F83510022909D1D9
:10086000052180F835100068016821F00101016060
:10087000002070478021416501207047F0B581B0AC
:100880000021009140F20801C2F200010B68D0E99A
:10089000166148F2B51537680822C1F64E358A4010
:1008A0003A42A3FB05350CD003681C68640708D5E1
:1008B0001C6824F004041C60B260426D42F0010226
:1008C000426501228A403A4208D003685B691B06F0
:1008D00004D5B260426D42F00202426504228A40B1
:1008E0003A4208D003681B689B0704D5B260426D8A
:1008F00042F00402426510228A403A4219D001684F
:100900000B681B0715D5B2600B680A685B0309D436
:10091000D20509D40A6822F008020A60016C29B9DC
:1009200007E000BF110341D4016C11B104468847B0
:100930002046C26D202101FA02F33B4243D00168F8
:100940000F68FF063FD5B36090F835700B68052F30
:100950001CD123F016030B604B6923F080034B611D
:10096000036C0BB9836C1BB10B6823F008030B609D
:100970003F219140B160012180F83510016D0022C6
:10098000002980F8342054D158E000BF0A685B0386
:1009900010D4D20512D40A6822F010020A60012194
:1009A00080F83510002180F8341007E0816C0029B0
:1009B000BCD1BEE7110301D4416C00E0C16B11B1A1
:1009C000044688472046416DC1B3416DC9072ED00A
:1009D000052180F835100168AA0A0B6823F001038D
:1009E0000B60009B0133934200931AD80B68DB071E
:1009F00017D0009B01339342009312D80B68DB079A
:100A00000FD0009B0133934200930AD80B68DB0799
:100A100007D0009B01339342009302D80B68DB0799
:100A2000DFD1012180F83510002180F83410C16C2D
:100A300021B101B0BDE8F040084700BF01B0F0BDF2
:100A40002DE9F041044600F083F9ECB1054602209F
:100A500084F835000020216884F83400086820F00C
:100A60000100086021680868C00711D000F070F923
:100A7000401B0528F6D9032520230320636584F84D
:100A80003550BDE8F08100BF0120BDE8F08100BF16
:100A9000086848F23F02CFF21002D4E9013500EABB
:100AA000020C04F10C0898E8C10143EA0C032B4343
:100AB0001843D4E9072E304338431043626A40EAB2
:100AC0000E00042A40EA08031CD1206BD4E90A2E48
:100AD00040EA0E00184308604869BEF1000F20F09C
:100AE000030040EA020040F0040C11D0B8F5005FAA
:100AF00036D0B8F1000F45D1022A46D0012A3BD0AA
:100B000032B942E00B60486920F0070040EA020C6D
:100B100001F0F8004AF6AB221038CAF6AA22A0FB70
:100B200002231A0944F6F853C1F814C0C0F60003B2
:100B30009A5C40F2FF335F284FF03F0021EA030147
:100B400000FA02F088BF0431C4E91612886000235D
:100B500001250020636584F83550BDE8F08100BFB1
:100B6000032AD5D8012540230120DFE802F0030E37
:100B7000030500BF82E700BFAEF1C070B0FA80F09D
:100B8000400904E0032A04D3C2D1CEF30060002858
:100B9000BED0012540230120636584F83550BDE8AF
:100BA000F08100002DE9F04F83B000F1200200F148
:100BB0003E4741F60005009207F1FF77C4F20205B7
:100BC00007224FEAB726A84208BF062200254FF0A9
:100BD00000084FF00009062E38BF4FEAB7220192F5
:100BE0000AE000BF09F1010908F10208B9F1100F8C
:100BF00005F1040500F0A2800F68012202FA09FE47
:100C000017EA0E0AEED0D1F804C003220CF0030755
:100C10007E1E02FA08F4012E6FEA040B12D88468D3
:100C2000CE6804EA0B0406FA08F63443846044688C
:100C300024EA0E06CCF3001404FA09F426434660B5
:100C400004E000BF032F01D103271EE0C6688C68B3
:100C500006EA0B0604FA08F42643022FC66014D1F4
:100C60006FF00302009E02EA590756F807C005F02C
:100C70001C040F220B69A2402CEA0202A3401A4373
:100C8000F251D1F804C00CF00307026807FA08F328
:100C900002EA0B021A431CF4403F0260A2D0002279
:100CA00043F644030292C4F202031A6843F6004476
:100CB00042F480421A601A68C4F2010402F48042CD
:100CC0000292029A29F003024FF6084C2244CFF612
:100CD000FF7C52F80C3005F00C070F26BE40B343E2
:100CE000019E06FA07F73B4342F80C30A2684B68B6
:100CF00042EA0A0743F60C4CDE0258BF22EA0A0712
:100D0000A760C4F2010CDCF800209E0242EA0A0748
:100D100058BF22EA0A07CCF8007062689E0342EAD4
:100D20000A0758BF22EA0A0767602268DB0342EA23
:100D30000A0758BF22EA0A07276053E703B0BDE855
:100D4000F08F0000002A08BF09048161704700008D
:100D500048F61410C2F200000068704740F200002C
:100D600048F61411C2F20000C2F2000100780A68CD
:100D7000104408607047000080B543F60040C4F29C
:100D80000200016841F400710160016841F4806172
:100D90000160016841F480710160032000F0BCF83B
:100DA0000F2000F005F800F05DF8002080BD000085
:100DB00070B586B0002543F640010195C4F20201EA
:100DC0000A68044642F010020A60096801A801F0AE
:100DD000100101910199694600F060F9049E002E0E
:100DE00018BF012600F07AF94DF68361B040C4F2D5
:100DF0001B31A0FB01014FF0FF3000EB914140F2AD
:100E0000183041F20002C2F20000C4F2000240F2C7
:100E1000E733C0E90021C0E902530561856100F0B4
:100E200039FD08B106B070BD40F21830C2F20000C2
:100E300000F094FD0028F5D1362000F02FF80F2C9B
:100E40000CD836202146002200F03AF840F2040186
:100E50000020C2F200010C6006B070BD012006B097
:100E600070BD000082B0002043F640010190C4F242
:100E700002014A6842F480424A604A6802F48042B1
:100E80000192019A0090086840F08050086008685C
:100E900000F080500090009802B07047002848BFD2
:100EA000704700F01F01012202FA01F11C2202EA40
:100EB000D0004EF20012CEF20002815070470000C6
:100EC00010B54EF60C5CCEF2000CDCF80030C3F32B
:100ED000022E8EF00704042C28BF0424BEF1030365
:100EE0004FF0FF3E0EFA04F438BF0023A1439940AF
:100EF0000EFA03F39A43114300F00F0200F160432E
:100F00000901043A03F564436244002848BF02F132
:100F10000C03197010BD00004EF60C51CEF200010A
:100F20000A684FF6FF031A4060F30A2242F080601D
:100F300040F0FD7008607047002804BF0120704732
:100F40002DE9F04143F60808C4F202080446D8F837
:100F5000F8030D4600F00F00814207D988F8F853D6
:100F6000D8F8F80300F00F00A84277D12068810775
:100F700017D5410705D5D8F8001041F4E051C8F85D
:100F80000010010705D5D8F8001041F46041C8F8F9
:100F90000010D8F80010A26821F0F0011143C8F841
:100FA0000010C00740D1D8F8F80300F00F008542C8
:100FB00007D288F8F853D8F8F80300F00F00A842D9
:100FC0004CD12068410707D5D8F80010E26821F419
:100FD000E0511143C8F80010000708D5D8F8000008
:100FE000216920F4604040EAC100C8F8000000F028
:100FF0009DF8D8F8001044F6E052C1F30311C0F692
:101000000002515C40F2080220FA01F140F20400B3
:10101000C2F200000068C2F200021160FFF7C8FED1
:101020000020BDE8F08100BF6068811E022907D260
:1010300058F8081C89015CBF0120BDE8F08111E06F
:10104000012807D158F8081C89035CBF0120BDE8BE
:10105000F08107E058F8081C890703D40120BDE897
:10106000F08100BFD8F8001021F003010843C8F850
:101070000000FFF76DFE064641F28837D8F8000001
:10108000616800F00C00B0EB810F8CD0FFF760FEC0
:10109000801BB842F2D90320BDE8F0810F22026024
:1010A00043F60802C4F20202136803F0030343602C
:1010B000136803F0F0038360136803F4E053C36024
:1010C000D2F800C04FF4E05303EADC030361D2F826
:1010D000F80300F00F0008607047000040F20800BD
:1010E00043F60801C2F20000C4F202010068096878
:1010F00044F6F052C1F38221C0F60002515CC840B0
:101100007047000040F2080043F60801C2F20000F8
:10111000C4F202010068096844F6F052C1F342319A
:10112000C0F60002515CC8407047000010B543F69D
:101130000404C4F202046068C0F3810142F200407A
:10114000C0F2F400DFE801F04102082647F6400053
:10115000C0F27D1010BD00BF2068216823684902DD
:1011600047F64001C0F27D1100F03F02C3F3881042
:101170005CBF42F20041C0F2F401A1FB0001002378
:10118000FFF72AF921680222C1F3014102EB410174
:1011900019E000BF206821682368490247F6400132
:1011A000C0F27D1100F03F02C3F388105CBF42F231
:1011B0000041C0F2F401A1FB00010023FFF70CF98C
:1011C0002168C1F30271B0FBF1F010BD002804BF2B
:1011D000012070472DE9F04182B00446007843F6C3
:1011E0000006C007C4F202060CD0B06800F00C0084
:1011F000042840F089803068800303D560680028A7
:1012000000F050812078800723D5B06810F00C0FD3
:1012100011D0B06800F00C00082802D170684002BC
:1012200009D5B06800F00C000C2840F09F80706871
:10123000400200F19B803068800703D5E0680128F8
:1012400040F030813068216920F0F80040EAC100A8
:1012500030602078000713D4207840072AD4A5698D
:10126000002D00F01A81B06800F00C00082840F052
:10127000AB80012D40F0E880012002B0BDE8F08194
:101280006069002840F20000C4F2472000F0888026
:101290000121C0F8801EFFF75BFD0546706F8007D7
:1012A000DAD4FFF755FD401B0228F7D9032002B01E
:1012B000BDE8F081306C5FEAC0080AD400200190DC
:1012C000306C40F080503064306C00F08050019001
:1012D000019847F20007C4F200073868C00537D408
:1012E000386840F480703860FFF732FD054600BF73
:1012F0003868C0052CD4FFF72BFD401B0228F7D916
:10130000032002B0BDE8F081B06800F00C000828AE
:1013100003D1706840023FF56EAFB06800F00C007A
:101320000C2803D1706840023FF565AF61683068F2
:10133000B1F5803F07D0B1F5A02F40F0CB8040F44D
:1013400080203060306840F480303060CBE000BFF7
:10135000A168306F012905D0052957D140F004005C
:101360003067306F40F00100306759E0E0680028D6
:1013700000F09C800020C4F2472001210160FFF7AB
:10138000E7FC0546306880073FF55CAFFFF7E0FCFF
:10139000401B02284FF00300F4D902B0BDE8F081F1
:1013A0000021C0F8801EFFF7D3FC0546706F800750
:1013B0007FF552AFFFF7CCFC401B0228F6D9032083
:1013C00002B0BDE8F08100BF0027C4F2472700202B
:1013D0003866FFF7BDFC022D05460BD13068800151
:1013E00040F19280FFF7B4FC401B02284FF003004D
:1013F000F4D9D2E7306880014FD5FFF7A9FC401B34
:1014000002284FF00300F5D9C7E700BF20F0010024
:101410003067306F002920F00400306700F09880BA
:10142000FFF796FC054641F2883700BF306F800712
:1014300000F1A080FFF78CFC401BB842F6D90320D6
:1014400002B0BDE8F08100BF7068E16900F480027D
:101450008A4227D1216A00F03F028A4222D147F610
:10146000C071626A0140B1EB821F1BD1A16A4FF6C5
:10147000FF73C903994300F44032A1F580318A42D9
:1014800010D1E16A00F07062B2EB016F0AD1216BFA
:1014900000F0E040B0EB017F04D1002002B0BDE8D5
:1014A000F08100BF012002B0BDE8F0810020C4F24D
:1014B000472000210160FFF74BFC0546306880079C
:1014C0007FF5C7AEFFF744FC401B02284FF0030036
:1014D000F4D962E720F4803030603068002920F4CD
:1014E0008020306050D0FFF733FC05463068800321
:1014F0003FF588AEFFF72CFC401B6428F6D903208B
:1015000002B0BDE8F08100BF04F11C052FCD246BB3
:10151000084340EA8210D9034FF6FF729143A1F5C8
:10152000803140EA0560084340EA047070600120A1
:101530003866FFF70DFC044630688001ADD4FFF734
:1015400007FC001B02284FF00300F5D925E700BF78
:10155000FFF7FEFB054641F2883700BF306F80077A
:1015600008D5FFF7F5FB401BB8424FF00300F5D953
:1015700013E700BFB8F1000F3FF571AE306C20F0FB
:10158000805030646BE600BFFFF7E2FB054600BF0A
:10159000306880037FF536AEFFF7DAFB401B642826
:1015A0004FF00300F4D9F8E670B528B1416A29B1CB
:1015B00000210161142106E0012070BD4168B1F5F0
:1015C000827F02D01C21002242500026866290F8C1
:1015D000511029B980F85060054600F03DF82846C2
:1015E000022180F8511090E82E0002F482720C68FB
:1015F00003F4044324F040040C601A4405F400632F
:1016000005691A4405F0020345691A4405F001030F
:101610008569C4691A4405F400731A4404F0380358
:10162000046A1A4404F08003846A1A4304F40053E1
:101630001A430A60436A042202EA154203F01003C7
:101640001A444A60CA6922F40062CA6101214665EF
:1016500080F85110304670BD2DE9F04F87B0044638
:1016600043F200070068C4F201070026B84206965C
:10167000CDE904660396029602D007B0BDE8F08F6C
:1016800043F630000196C4F20200416902AD41F414
:1016900080514161416946F2104801F48051019145
:1016A0000199019601684FF0020941F001010160C2
:1016B00001684FF0030A01F00101019101990196BF
:1016C00001684FF0050B41F00201016000682946F6
:1016D00000F0020001900198C020029007F55040F0
:1016E000C4F20208CDE90396CDF814A0CDF818B0E5
:1016F000FFF758FA0820CDE9020904A880E8400C59
:1017000007F554402946FFF74DFA40F2701508F1ED
:101710004800C2F200054FF0C06A4021C5E9000A46
:1017200005F108004FF4806980E842024FF4003769
:101730002846C5E90566EE61C5E90876FFF780F938
:10174000002818BFFEF7E0FFA564AC6340F2101557
:10175000C2F200050020C5E90200C5E90490C5E910
:101760000600C5E908702846C5E9008AFFF768F950
:10177000002818BFFEF7C8FFE564AC6307B0BDE8FA
:10178000F08F0000704700007047000090F83C2088
:10179000012A04BF02207047B0B501F108053CCD15
:1017A000D1E900CE23F47C5322F470521A432EF474
:1017B000F0431A432CF4E0431A4324F4C0431A4381
:1017C0002A43C96922F48042036811435964002105
:1017D00080F83C100020B0BD90F83C20012A4FF06A
:1017E000020254D010B580F83D200268D2F804E01F
:1017F000D2F808C00C682EF07003234341F2FF7446
:10180000C4F20004A24253600EDC40F2FF73C4F243
:1018100000039A4216DCB2F1804F2BD040F2004315
:10182000C4F2000324E000BF40F2FF33C4F201031E
:101830009A4213DC41F60003C4F200039A4219D025
:10184000002313E040F60003C4F200039A4211D0D3
:1018500040F60043C4F200030AE000BF44F2000374
:10186000C4F201039A4205D040F20043C4F20103DE
:101870009A4204D149682CF08003194391600121F8
:10188000002280F83D1080F83C20BDE81040104652
:1018900070470000002804BF0120704710B50446BF
:1018A00090F83D0028B9002084F83C00204600F064
:1018B0001FF8022084F83D002068211D01F014F972
:1018C000012084F8460084F83E0084F83F0084F844
:1018D000400084F8410084F8420084F8430084F812
:1018E000440084F8450084F83D00002010BD00004D
:1018F00080B582B00068B0F1804F15D00021C4F2ED
:10190000010188420ED10020019043F64000C4F24C
:101910000200416841F001014160406800F00100AF
:101920000190019802B080BD0020009043F6400075
:10193000C4F202000168002241F001010160006868
:10194000052100F00100009000981C20FFF7B8FA74
:101950001C2002B0BDE88040FFF7A0BA90F83D100F
:1019600001291CBF01207047022180F83D1000684A
:1019700041F2FF72C168C4F20002904241F00101DD
:10198000C1600DDC40F2FF71C4F20001884215DC39
:10199000B0F1804F2AD040F20041C4F2000123E0B0
:1019A00040F2FF31C4F20101884213DC41F600012C
:1019B000C4F20001884219D0002113E040F6000172
:1019C000C4F20001884211D040F60041C4F2000187
:1019D0000AE000BF44F20001C4F20101884205D0D0
:1019E00040F20041C4F20101884206D1816801F051
:1019F0000701062904BF00207047016841F001017A
:101A0000016000207047000090F83C20012A4FF050
:101A100002026CD080B580F83D20D0F800C04FF6AF
:101A20007772DCF8083023EA0202CCF808200B6851
:101A30004F2B29DC1F2B45DD202B46D0302B44D0EB
:101A4000402B40F0AF80D1F804E0C968DCF82030CA
:101A5000DCF8202022F00102CCF82020DCF818204D
:101A600022F0F00242EA011123F00A0242EA0E02D9
:101A7000CCF81810CCF82020DCF8081041F0470111
:101A800021F0300128E000BF6F2B33DDB3F5005F9C
:101A900074D0B3F5805F21D0702B40F08380D1E902
:101AA00001E3C968DCF8082043EA0E0322F47F4210
:101AB00043EA01211143CCF80810DCF8081041F08A
:101AC000770109E00BB1102B6CD1DCF8081021F084
:101AD0007001194341F00701CCF8081000220121E0
:101AE00080F83D10002180F83C10BDE88040104691
:101AF000704700BF502B21D0602B53D1D1F804E0A8
:101B0000C968DCF82030DCF8202022F01002CCF884
:101B10002020DCF8182022F4704242EA013123F040
:101B2000A00242EA0E12CCF81810CCF82020DCF803
:101B3000081041F0670121F01001CDE7D1F804E071
:101B4000C968DCF82030DCF8202022F00102CCF853
:101B50002020DCF8182022F0F00242EA011123F0E4
:101B60000A0242EA0E02CCF81810CCF82020DCF869
:101B7000081041F0570121F02001ADE7D1E901E360
:101B8000C968DCF8082043EA0E0322F47F4243EAE6
:101B900001211143CCF80810DCF8081041F4804111
:101BA0009AE700BF01229AE77047000070B504462B
:101BB0000068C5680669B10716D515F0020113D093
:101BC0006FF002010161012121778069800703D054
:101BD0002046FFF7E9FF05E0204600F08FF8204699
:101BE00000F0CEF900202077700719D515F0040019
:101BF00016D020686FF0040101610221217780690D
:101C000010F4407F04D02046FFF7CEFF06E000BF6F
:101C1000204600F073F8204600F0B2F9002020774B
:101C2000300717D515F0080014D020686FF00801B0
:101C3000016104212177C069800703D02046FFF7A6
:101C4000B3FF05E0204600F059F8204600F098F96F
:101C500000202077F00619D515F0100016D0206866
:101C60006FF01001016108212177C06910F4407FF5
:101C700004D02046FFF798FF06E000BF204600F0A2
:101C80003DF8204600F07CF900202077F00718BFCF
:101C900015F0010002D1300609D412E020686FF07F
:101CA00001010161204600F06DF9300609D515F0FB
:101CB000800006D020686FF0800101612046FFF7A8
:101CC00061FD700609D515F0400006D020686FF060
:101CD00040010161204600F05FF9B00658BF70BDB9
:101CE00015F0200008D021686FF0200220460A611C
:101CF000BDE87040FFF748BD70BD000070470000B0
:101D000090F83C30012B04BF022070474FEAB2022A
:101D1000032A00F2FF802DE9F043DFE802F003B16F
:101D20003F7F00BF036840F200461C6A1A6A24F035
:101D3000020422F001021A621A46D3F804C052F8D3
:101D400018EF8F6843F48065C4F20106B54244EA97
:101D5000070405D1CF6824F00C0427F004073C43A6
:101D60000F68B54206D1D1E905582CF440762E43D0
:101D700046EA080C2EF073063743C3F804C09F618F
:101D80004F6809695F631C629F6947F008079F619C
:101D90009F6927F004079F61B1E000BF036840F22C
:101DA00000481C6A1A6A24F4007422F480721A62D1
:101DB0001A46D3F804C052F81CEF8F6843F48065CC
:101DC000C4F20108454544EA072408D1CF6840F22F
:101DD000FF463F0224F4406427EA06063443D1F864
:101DE0000090454506D1D1E905562CF440572E43C5
:101DF00047EA061C2EF0730747EA0907C3F804C038
:101E0000DF614F680969DF631C62DF6947F008071B
:101E1000DF61DF6927F00407DF6170E0036840F2EB
:101E20000045D3F820C01A6A43F4806722F4805238
:101E30001A621A465C6852F81C8FD1F800E08E686E
:101E4000C4F20105AF4204D14D6924F4804444EA50
:101E500085142CF4005747EA063728F4E64646EA8C
:101E60000E265C60DE614E6809691E641F62DF69D0
:101E700047F40067DF61DF6927F48067DF613DE0D9
:101E8000036840F200481C6A1A6A24F0200422F019
:101E900010021A621A46D3F804C052F818EF8F687D
:101EA00043F48065C4F20108454544EA071407D1AC
:101EB000CF686FF0400624F0C00406EA07163443EA
:101EC000D1F80090454506D1D1E905562CF440677C
:101ED0002E4347EA860C2EF4E64747EA0927C3F863
:101EE00004C09F614F6809699F631C629F6947F442
:101EF00000679F619F6927F480679F6109021368EB
:101F0000194311600021BDE8F043002280F83C2015
:101F1000084670470121002280F83C20084670479F
:101F2000002804BF0120704710B5044690F83D001A
:101F300028B9002084F83C00204600F01FF8022059
:101F400084F83D002068211D00F0CEFD012084F8BA
:101F5000460084F83E0084F83F0084F8400084F88E
:101F6000410084F8420084F8430084F8440084F877
:101F7000450084F83D00002010BD000070470000BF
:101F800070470000006841F20001C4F2000188427D
:101F900018BF7047FEF7E2BE7047000070470000B0
:101FA00070470000B0B582B001680A68CC684B6920
:101FB00002F02F05202D04F0200505D125B102B037
:101FC000BDE8B04000F034BE5FEA027C1EBF03F003
:101FD000010E04F4907313EB0E0341D1036BD5068D
:101FE00018D5012B16D114F0100313D00022019242
:101FF0000A6801924A680192019A496949064BD4DC
:10200000818DC28DC38D002B18BF914240F0068296
:1020100002B0B0BD13062DD514F080032AD090F87D
:102020004120212AF4D18268B2F5805F03D1026990
:10203000002A00F07982026A531C036212784A6017
:10204000C28C013A1304C284E2D1C86820F0800037
:10205000C860C86840F04000C86002B0B0BD00BFB2
:10206000D30718BF14F4807340F0E280530700F1E7
:10207000E580EAE05206CBD514F04002C8D0CA6829
:1020800022F04002CA60202180F8411002B0BDE871
:10209000B04000F0E3BA00BFC26B11684B68858D99
:1020A00099B2002900F0B480A94280F0B180C385C4
:1020B000D169B1F5807F00F0A080016851E8031F6D
:1020C000026821F4807142E80313DBB1016851E832
:1020D000031F026821F4807142E8031393B1016881
:1020E00051E8031F026821F4807142E803134BB1E9
:1020F000016851E8031F026821F4807142E803136C
:10210000002BDAD1016851E8051F026821F00101B6
:1021100042E80513BBB3016851E8051F026821F0CE
:10212000010142E8051373B3016851E8051F026815
:1021300021F0010142E805132BB3016851E8051FA6
:10214000026821F0010142E80513002BDAD11AE000
:10215000016851E8051F026821F0400142E80513BB
:10216000DBB1016851E8051F026821F0400142E837
:10217000051393B1016851E8051F026821F0400181
:1021800042E805134BB1016851E8051F026821F0D0
:10219000400142E80513002BDAD1202180F84210DB
:1021A00000210163016851E8031F026821F010015A
:1021B00042E80313DBB1016851E8031F026821F014
:1021C000100142E8031393B1016851E8031F02684C
:1021D00021F0100142E803134BB1016851E8031FDD
:1021E000026821F0100142E80313002BDAD1C16B21
:1021F00004460846FEF7E8FA204602214163818D35
:10220000C28D891A89B202B0BDE8B040FFF7C6BEE0
:102210008D427FF4FDAED269B2F5807F7FF4F8AED7
:102220000222426302B0BDE8B040FFF7B7BE00BF74
:10223000436C43F001034364530706D5BEF1000F1E
:1022400003D0436C43F002034364930706D5BEF109
:10225000000F03D0436C43F004034364BCF1000F50
:1022600006D55EEA050303D0436C43F008034364DC
:10227000436C002B3FF4CCAE920605D525B1044645
:1022800000F0D6FC216820464969426C01F040010B
:1022900002F00802891800F0B98000BF016851E817
:1022A000031F026821F4907142E80313BBB3016875
:1022B00051E8031F026821F4907142E8031373B3DD
:1022C000016851E8031F026821F4907142E803138A
:1022D0002BB3016851E8031F026821F4907142E8B2
:1022E0000313002BDAD11AE0016851E8051F0268D8
:1022F00021F0010142E80513DBB1016851E8051F37
:10230000026821F0010142E8051393B1016851E828
:10231000051F026821F0010142E805134BB1016875
:1023200051E8051F026821F0010142E80513002B66
:10233000DAD1016B012924D1016851E8031F026839
:1023400021F0100142E80313DBB1016851E8031FDB
:10235000026821F0100142E8031393B1016851E8CB
:10236000031F026821F0100142E803134BB101681A
:1023700051E8031F026821F0100142E80313002B0B
:10238000DAD1202180F842100021016301684969F7
:10239000490640F1C380016851E8051F026821F039
:1023A000400142E80513DBB1016851E8051F0268EE
:1023B00021F0400142E8051393B1016851E8051F7F
:1023C000026821F0400142E805134BB1016851E871
:1023D000051F026821F0400142E80513002BDAD105
:1023E000C16B002900F09A8042F62542C0F6000237
:1023F000044608460A65FEF72FFA00283FF408AEA7
:10240000E06B016D02B0BDE8B04008470446FFF73D
:10241000C7FD0020606402B0B0BD00BF891A00BFD4
:10242000026852E8032F036822F4907243E8032500
:10243000BDB3026852E8032F036822F4907243E8A8
:10244000032575B3026852E8032F036822F49072E3
:1024500043E803252DB3026852E8032F036822F4F2
:10246000907243E80325002DDAD11AE0026852E8A1
:10247000052F036822F0010243E80525DDB102685B
:1024800052E8052F036822F0010243E8052595B1C3
:10249000026852E8052F036822F0010243E805258F
:1024A0004DB1026852E8052F036822F0010243E8AB
:1024B0000525002DDAD1202280F842200022026377
:1024C000026852E8032F036822F0100243E8032554
:1024D000DDB1026852E8032F036822F0100243E8DE
:1024E000032595B1026852E8032F036822F0100219
:1024F00043E803254DB1026852E8032F036822F038
:10250000100243E80325002DDAD1022289B242638A
:1025100002B0BDE8B040FFF741BD00BF02B0BDE86A
:10252000B040FFF73DBD00BF026A32F8023B6FF3D7
:102530005F234B60026283E5002804BF01207047DF
:1025400010B5044690F8410028B9002084F84000F6
:10255000204600F021F8242084F841002068C1685A
:1025600021F40051C160204600F0E2FB20680169BF
:1025700021F490410161416921F02A014161C16862
:1025800041F40051C16000202021606484F84110B2
:1025900084F84210606310BD70B586B0044644F202
:1025A00000402168C4F20000002681420596CDE972
:1025B00003660296019601D006B070BD43F6300165
:1025C0000096C4F202010A6900F5DE3042F40032DE
:1025D0000A610A6902F400320092009A00960A68C1
:1025E00042F001020A60096801F0010100910099BE
:1025F0000C2101910221CDE902160321049107214A
:10260000059101A9FEF7CEFA40F2D01546F2A000DE
:10261000C2F20005C4F202004FF0006140224FF404
:10262000806385E847002846C5E90436C5E90666A3
:10263000C5E90866FEF704FA002818BFFEF764F83B
:1026400026200A210022A563AC63FEF739FC262070
:10265000FEF724FC06B070BD704700007047000014
:10266000FEE7000080B582B0002043F63001019003
:10267000C4F202010A6842F400120A600A6802F415
:1026800000120192019A00900868002240F4800034
:1026900008600868002100F4800000900098112074
:1026A000FEF70EFC1120FEF7F9FB3820072100226F
:1026B000FEF706FC3820FEF7F1FB3B200721002245
:1026C000FEF7FEFB3B2002B0BDE88040FEF7E6BB14
:1026D0002DE9F04786B0002743F630000597CDE995
:1026E0000377CDE901770097C4F20200016840F258
:1026F000000A41F0010101600168C4F2020A01F020
:1027000001010091009900970168012241F0020146
:1027100001600068202100F00200009000985046FF
:1027200020264FF00108FEF70DFB0AF580652846CC
:10273000402101224FF04009FEF704FBCDE901687A
:1027400001AE03245046314603970494FEF72AFA5B
:1027500028463146CDE90198CDE90374FEF722FA07
:1027600006B0BDE8F087000080B540F2302043F2AB
:102770000001C2F20000C4F201014FF48272002392
:1027800080E80E0000F114014FF4007C4FF0100EB1
:1027900081E808500A21C0E90333C0E90833C0E9E1
:1027A0000A31FEF701FF002808BF80BDBDE8804068
:1027B000FDF7AABF70B59CB0002540F28820C4F296
:1027C00001050021C2F20000A72244F61F63802603
:1027D0001591CDE913111191CDE90F11CDE90D112D
:1027E000CDE90B11CDE90911CDE90711CDE90511AD
:1027F000CDE90311CDE90111C0E90052C0E902138E
:10280000C0E904118661FFF745F8002818BFFDF7FD
:102810007BFF4FF48050129040F28820C2F20000FB
:1028200012A9FFF7F1F8002818BFFDF76DFF40F27D
:102830008820C2F20000FFF773FB002818BFFDF7E5
:1028400063FF40F288200024C2F2000010A9CDE905
:102850001044FEF7C1FF002818BFFDF755FF6020A8
:10286000099040F2DC50CDE90A0440F28820C2F21F
:10287000000009A90022CDE90C44CDE90E44FFF780
:102880003FFA002818BFFDF73FFF40F28820C2F250
:10289000000009A90422FFF733FA002818BFFDF74A
:1028A00033FF40F28820C2F2000009A90822FFF796
:1028B00027FA002818BFFDF727FF40F28820C2F250
:1028C000000009A90C22FFF71BFA002818BFFDF72A
:1028D0001BFF40F288244FF40050C2F2000400268F
:1028E000069001A920460596CDE90366CDE901666B
:1028F0000896FEF74BFF002818BFFDF705FF20687C
:102900001B96A842CDE919661896179602D01CB0FE
:1029100070BD00BF002043F630011690C4F20201E2
:102920000A6842F001020A60096801F0010116918B
:1029300016994FF4706117910221CDE91810032008
:102940001A9001201B9005F5803017A9FEF72AF98F
:102950001CB070BD80B586B040F2D0200021C2F21C
:1029600000004FF08042532340F2E73C0591CDE94F
:102970000311CDE90011C0E90023C0E9021C016187
:102980008161FEF787FF002818BFFDF7BDFE4FF4F9
:102990008050029040F2D020C2F2000002A9FFF75E
:1029A00033F8002818BFFDF7AFFE40F2D020C2F286
:1029B00000006946FEF710FF002818BFFDF7A4FECF
:1029C00006B080BD80B540F2603044F20041C2F2F2
:1029D0000000C4F2000100234FF00C0C4FF4E13270
:1029E00080E80E00C0E90333C0E905C3C361FFF707
:1029F000A3FD002808BF80BDBDE88040FDF784BE70
:102A0000FEE70000FEE700004EF21000CEF20000EC
:102A10000068704770B594B007AC20463421FDF7CC
:102A2000ECFD002543F640000695CDE90455CDE9BF
:102A300002550195C4F202000168022641F080515E
:102A40000160006800F080500190019847F200009A
:102A50000195C4F20000016841F440410160006842
:102A600000F440400190019801200A9010200B9042
:102A700008200F90A820CDE9100620460796CDE942
:102A80000D65CDE91266FEF7A1FB18B172B600BF65
:102A9000FEE700BF0F20CDE902064FF4A0500590DD
:102AA0004FF48050069002A805210495FEF744FAE1
:102AB00010B172B6FEE700BF14B070BD4EF688507C
:102AC000CEF20000016841F470010160704700001F
:102AD00040F2D020C2F20000FFF768B840F2183090
:102AE000C2F20000FFF762B8B0B540F6FF3E0568DD
:102AF000C4F2000E40F2004C7045C4F2010C25DC1B
:102B0000B0F1804F2FD040F20043C4F2000398424E
:102B100029D040F60003C4F20003984223D041F6C6
:102B2000FF73C4F20003984228DC70453ADCB0F130
:102B3000804F5BD040F20043C4F20003984255D06E
:102B400040F60003C4F200034EE000BF40F600432D
:102B5000C4F20003984206D0604504D00023C4F2BA
:102B600001039842DBD14B6825F0700243EA02056D
:102B700041F6FF73C4F200039842D6DD43F6FF73BB
:102B8000C4F2010398421FDC42F20003C4F20003C6
:102B900098422BD00023C4F20103984226D060450E
:102BA00024D028E040F60043C4F2000398421DD030
:102BB00041F60003C4F20003984217D041F60043E7
:102BC000C4F2000310E000BF44F20003C4F20103AA
:102BD00098420BD044F60003C4F20103984205D09A
:102BE00044F20043C4F20103984204D1CB6825F4B7
:102BF000407243EA02050A688C684B69C46240F47B
:102C000080648262644504BF09690163026825F03B
:102C1000800142F004021943026001224261016016
:102C2000B0BD0000806B0021C185FFF7B9B900007D
:102C300081B090F84210222921D183680246B3F571
:102C4000805F09D152F8281F52F8183C002B63D03E
:102C500003685B680AE000BF52F8281F13B90369D4
:102C6000002BF5D003685B6803F07F030B701168DD
:102C700001311160C18D01390A04C18502D001B052
:102C8000704700BF0168CA6822F02002CA60CA68A3
:102C900022F48072CA604A6922F001024A6120214E
:102CA00080F8421000214163026B012A3CD101638C
:102CB000016851E8031F026821F0100142E8031384
:102CC000DBB1016851E8031F026821F0100142E8FE
:102CD000031393B1016851E8031F026821F010014A
:102CE00042E803134BB1016851E8031F026821F069
:102CF000100142E80313002BDAD101680A68D206FA
:102D000006D5002200920A68009249680091009955
:102D1000818D01B0FFF742B9026852686FF35F22FC
:102D200021F8022B8162A5E701B0FFF795BC0000F6
:102D3000B0B50446006804F108030ECB05691943D9
:102D400025F440552A4302616269E3691143C26870
:102D5000194349F20C639A431143C1604169A26966
:102D600021F4407141F20043114340F48062C4F207
:102D700001039A42416103D1FEF7C4F902E000BFAA
:102D8000FEF7ACF9E1694FF69C7563681922C0F64D
:102D9000FF75B1F5004FA0FB02011FD15A00DB0FF8
:102DA000FDF71AFB48F21F51C5F2EB11A0FB0123FE
:102DB0005A0905F1805302FB0300322303EBC000E4
:102DC000A0FB01014FF4F87000EA111000EB0210B3
:102DD000C1F34211084421688860B0BD9A009B0F7E
:102DE000FDF7FAFA48F21F51C5F2EB11A0FB0123DF
:102DF0005A0902FB0500322303EB0010A0FB01017E
:102E0000F02000EA511000EB0210C1F34311084416
:102E100021688860B0BD000040F26030C2F200005E
:102E2000FFF7C0B8FEE70000B0B548F61015C2F2D3
:102E300000052978044689B900F05EF8022809DB0C
:102E40000120287020684FF0FF31BDE8B04000F04D
:102E50004FB900BF2878012818BFB0BD20684FF0D7
:102E6000FF31BDE8B04000F043B90000006800F059
:102E70005DB9000010B50446002000F075F9002887
:102E800020601CBF012010BD0520214600F0ACF9D8
:102E9000002010BDB0B548F61015C2F20005297823
:102EA000044679B900F028F8022807DB01202870D1
:102EB0002068BDE8B04000F075B900BF287801284F
:102EC00018BFB0BD2068BDE8B04000F06BB900008D
:102ED00000F030B8FDF750FFFFF79CFDFFF7F8FB5F
:102EE000FFF7C0FBFFF740FCFFF76CFDFFF762FC4C
:102EF000FFF730FDFEE70000EFF3058048B9EFF380
:102F0000108030B9EFF3118018B9EFF31480C007C7
:102F10000AD110B540F20C00C2F20000047A20463B
:102F2000FDF7FEFB204610BD44F2413CC0F6000C0C
:102F300000DF704780B500F055F9FDF7F3FBEFF3C4
:102F4000058028B9EFF3108010B9EFF3118038B184
:102F50006FF00500FDF7E0FB6FF0050080BD00BFDE
:102F600044F2593CC0F6000C00DF80BDF0B581B0E2
:102F70001F4616460C460546FDF7EAFBEFF30580B3
:102F800030B9EFF3108018B9EFF3118000284FD05B
:102F9000002D2DD0002F2BD1002C29D02878FA28F5
:102FA00026D105F1280050E8001F11B9BFF32F8F7B
:102FB00004E04A1E40E8002303B1F4E771B1EF6A70
:102FC00067B10120B91CD1E84F2FC1E8430F03B10D
:102FD000F9E7110616D0BF68002FF3D12846214625
:102FE000FDF7C2FB6FF00204204601B0F0BD00BF48
:102FF00028466FF003016FF00304FDF7A7FB20469E
:1030000001B0F0BD6A6A07F10C012046FDF75CFAD9
:10301000002E1CBFF87830703846FD6000F036FC9A
:1030200028462146FDF7A8FB0024204601B0F0BD4C
:1030300044F2B94C2846C0F6000C214632463B46C5
:1030400000DF01B0F0BD00002DE9F0411F469046C1
:103050000C460546FDF78AFBEFF3058028B9EFF330
:10306000108010B9EFF31180B0B31DB317BB0CB3D0
:103070002878FA281ED105F10C0000F095F918B354
:103080006A6A00F10C01064608462146FDF71CFA63
:10309000F920307000273046B77086F80380C6E903
:1030A000014500F0F3FB28462146FDF757FB384663
:1030B000BDE8F08128466FF003016FF00307FDF7CC
:1030C00045FB3846BDE8F08128462146FDF74AFB1E
:1030D0006FF00200BDE8F08144F6210C2846C0F6EE
:1030E000000C214642463B4600DFBDE8F08100006F
:1030F000B0B50D460446FDF741FBEFF3058028B956
:10310000EFF3108010B9EFF3118038B120466FF063
:103110000501FDF741FB6FF00500B0BD44F6C51C8D
:103120002046C0F6000C294600DFB0BD10B50446AD
:10313000FDF72EFBEFF3058028B9EFF3108010B9EF
:10314000EFF3118040B120466FF00501FDF724FB3D
:103150006FF0050010BD00BF44F6AD2C2046C0F650
:10316000000C00DF10BD000010B50446FDF716FB93
:10317000EFF3058028B9EFF3108010B9EFF3118059
:1031800040B100206FF005010024FDF705FB20464B
:1031900010BD00BF44F6813C2046C0F6000C00DFA5
:1031A00010BD000010B50446FDF7FCFAEFF30580F2
:1031B00028B9EFF3108010B9EFF3118040B1204629
:1031C0006FF00501FDF7E8FA6FF0050010BD00BFD4
:1031D00044F6294C2046C0F6000C00DF10BD00006C
:1031E000FEE7000070470000B0B50C460546FDF74D
:1031F00095FA28462146BDE8B040FFF7F1BF000030
:103200002DE9F041002818BF002907D10023002430
:10321000FDF78CFA2046BDE8F08100BF042AF5D204
:10322000034601F10F0653F8085F26F0070C5C68AF
:1032300024F003061E44AE1B664521D22B68002BEA
:10324000E4D06C6824F003062E449E1B664519D218
:103250001D68002DDAD05C6824F003061E44AE1B06
:1032600066450DD22B68002BD0D06C6824F0030685
:103270002E449E1B664505D21D68002DD7D1C5E79B
:10328000AE4601E09E462B46D0E90058461956F856
:10329000047C08EB0C05AF42456003D2A6F108049C
:1032A00065605C6854B124F00304E51844F803E059
:1032B0004CEA02071D602B466F6002E04CEA0207F1
:1032C0005F6003F108042346FDF730FA2046BDE8AD
:1032D000F081000010B5002818BF002906D1002297
:1032E0000024FDF72BFA204610BD00BFA1F1080312
:1032F00000F10804A34215D02268002AEFD09A42B8
:103300001AD01468002CEAD09C4219D02268002AF6
:10331000E5D09A4210D01468002CE0D09C4294462C
:10332000EAD10EE0C268436822F003029A1A4260B2
:103330000022C2600EE000BFA446144601E000BFB8
:103340009446D4E90023446823F00303E31A43605E
:10335000CCF8002001220124FDF7F0F9204610BD31
:1033600010B5D8B110F0070218D1182916D311F0F2
:10337000070213D10B18A3F108048460002443F85A
:10338000084C8368102242605A60C4600122012404
:103390000160FDF7D5F9204610BD00BF00220024D2
:1033A000FDF7CEF9204610BDB0B500281AD000F1C7
:1033B000140151E8004F14B9BFF32F8F04E02268C5
:1033C00041E8002303B1F4E73CB1011D51E8002FAF
:1033D000531C41E8003505B1F8E72146FDF7A8F98F
:1033E0002046B0BD002000210024FDF7A1F92046B1
:1033F000B0BD0000B0B5002822D0C26891421FD3F2
:10340000026991421CD200F1140213680B60BFF3F1
:103410005F8F52E8003F0C689C42F6D142E80015ED
:1034200005B1F2E7021D52E8003F5C1E42E800458C
:1034300005B1F8E700220024FDF77CF92046B0BD75
:103440006FF003026FF00304FDF774F92046B0BD7E
:103450002DE9F0410E4600284FF0000118BF002E64
:1034600002D10846BDE8F0811446002AF9D01F4673
:10347000002BF6D004FB06714FF00008C0E90417DA
:10348000314622463B46C0E90068C0E90247FDF7E5
:1034900053F9701E0CD010F00302A6F1020119D0EE
:1034A0003819012A38600BD10746084612E000BFE0
:1034B0003D460121C5F800800846BDE8F08100BF07
:1034C0000719022A076001D1F01E03E03A193A6099
:1034D000301F174603293D4613D3610004EB440215
:1034E000A30000BF3E193E6026447D183D5126448E
:1034F000BD1847F814503519FE18BE5004382F4631
:10350000F0D10121C5F800800846BDE8F081000037
:103510002DE9F047044680786168002864D0D4E93A
:103520000205002905F12C08424618BF01F10802E6
:1035300005F1300910604A46002818BF021D00201E
:1035400005F10C061160207030462146FFF752FF4E
:10355000A868002800F0F6803046FFF725FF002815
:1035600008BFBDE8F0870446284600F0DDFB0021D7
:10357000002206464FF0000A00F07AFD304600F0C7
:10358000A3FC46686A6A074604F10C003146FCF762
:103590009BFFF9202070286B397A002884F802A05C
:1035A000E17073D0C2788A4276D24268002A00F075
:1035B0008A80D3788B4280F081805068002800F0A8
:1035C0008180C3788B4280F08F804268002A7AD055
:1035D000D3788B4272D25068002873D0C3788B4264
:1035E0001346E2D381E000BFA568A86860B34078C5
:1035F000832829D12846FDF7B3F8284600F094FB2C
:103600000021002206464FF0000800F031FD304650
:1036100000F05AFC46686A6A074604F10C0130461D
:10362000FCF752FFB86800281CBFE17801702846FB
:103630003146FDF7A1F805F10C00214684F8008021
:10364000BDE8F047FFF7D6BE2846FDF789F82A46C1
:1036500052F8300F30B3E178C3788B4228D24268F9
:10366000DAB3D3788B4233D25068A8B3C3788B4295
:1036700056D242688AB3D3788B4229D2506858B365
:10368000C3788B421346EAD34BE000BFC4E901AADA
:10369000C8F8004032E000BF0021C4E901018460A5
:1036A0002CE000BF0020C4E90100EC6240E000BF54
:1036B0000021C4E9010184603AE000BF03461046DE
:1036C00013E000BF10460021C4E9011012E000BF62
:1036D0000346104625E000BF10460021C4E9011052
:1036E00005F12C0122E000BF1346C4E9010300F1FB
:1036F00008081846C8F8004000F10409C9F800405D
:1037000005F1280050E8001F4A1C40E8002303B1DF
:10371000F8E728463146BDE8F047FDF721B800BF7D
:103720001346C4E9010300F1080118460C60021DAC
:10373000146005F1280050E8001F4A1C40E80023EF
:1037400003B1F8E7BDE8F08780B544F63850C0F61D
:103750000000D0E91A20082100F0B0FF40F20C026E
:103760000146C2F200020020002908BF4FF0FF30DE
:10377000D16480BDC278920758BF7047C06890F886
:1037800021C0C36A02E000BF5B698BB1DA7892079F
:10379000FAD59A688A4208BF9268002AF4D092F952
:1037A00020204FFA8CFC6245C8BF9446ECE700BF6E
:1037B00090F820105FFA8CF2914201D1704700BF5F
:1037C00080F820C000F0F6BA2DE9F04140F20C0478
:1037D000C2F20004B4F8540004F15605D5E85F1FA6
:1037E00011B9BFF32F8F04E04A1EC5E8532F03B170
:1037F000F4E7090432D004F15A0640F265170FF2DB
:1038000068080EE0B4F85400D5E85F1F11B9BFF3A3
:103810002F8F04E04A1EC5E8532F03B1F4E70904D3
:103820001CD0D6E85F1F4A1C904200D80022C6E890
:10383000532F03B1F5E7E06D89B250F8210068B16C
:1038400001780F31C9B20829DCD827FA01F2D20772
:10385000D8D058F8211009688847D3E70020BDE880
:10386000F04100F075B900BF6C0000206C00002032
:10387000700000206C0000206C000020740000200C
:10388000780000206C0000207C00002070B540F221
:103890000C02C2F20002B2F8543002F15601D1E833
:1038A0005F4FA34202D8BFF32F8F04E0651CC1E82D
:1038B000565F06B1F3E7A1B29942014614D202F174
:1038C0005800D0E85F4F651CAB4200D80025C0E827
:1038D000565F06B1F5E7D06DA3B240F82310507AD9
:1038E00040B10120907270BD0220BDE87040FFF72A
:1038F0007BBC00BF4EF60450CEF200004FF080516A
:10390000016070BD2DE9F04381B040F20C08C2F2B5
:103910000008D8F82C401CB1E0690138E06103D000
:1039200001B0BDE8F08300BF012708F11C064FF08D
:10393000000900BF607813384FEA3010082800F201
:10394000AD80DFE800F005AB235B759309274100EC
:103950002046FCF7DDFEA1E02078F128204611D1B9
:10396000204600BFC0680178F1290BD1C0680178FA
:10397000F12907D1C0680178F12903D1C068017825
:10398000F129EFD0FCF7DEFE88E000BF2046FCF70F
:1039900011FF83E02078F128204611D1204600BF96
:1039A000C0680178F1290BD1C0680178F12907D1ED
:1039B000C0680178F12903D1C0680178F129EFD0FE
:1039C000FCF7CAFE6AE000BF2078F128204611D13A
:1039D000204600BFC0680178F1290BD1C06801788A
:1039E000F12907D1C0680178F12903D1C0680178B5
:1039F000F129EFD0FCF7BEFE50E000BF2078F1289F
:103A0000204611D1204600BFC0680178F1290BD1B2
:103A1000C0680178F12907D1C0680178F12903D184
:103A2000C0680178F129EFD0FCF774FE36E000BFE2
:103A300020782546F12811D1254600BFED68287869
:103A4000F1280BD1ED682878F12807D1ED682878A6
:103A5000F12803D1ED682878F128EFD028462146D7
:103A6000FFF788FE2846FCF78DFE17E02078F12846
:103A7000204611D1204600BFC0680178F1290BD142
:103A8000C0680178F12907D1C0680178F12903D114
:103A9000C0680178F129EFD0FCF788FE94F8220085
:103AA000A16BC0064FF0200058BF6020415820464F
:103AB000FCF786FEE06820B1A1680029816018BF8C
:103AC000C86094F92010304667708268EAB192F9B4
:103AD00020308B4214DB9068B0B190F920308B42DB
:103AE0001CDB82688AB192F920308B4208DB906837
:103AF00050B190F920308B421346E6DA0FE000BF58
:103B0000034610460BE000BF104600F10801C4E96F
:103B100002900C60246954B914E000BF134600F110
:103B20000C01C4E902039C600C60246954B1E06993
:103B300000283FF4FFAE00206061C8F82C4001B0BF
:103B4000BDE8F0830024C8F82C4001B0BDE8F08344
:103B500070B540F20C06C2F200060446327A706973
:103B6000002C53D094F92010022A2DD190F9202056
:103B7000914229DD0121417006F11C018B68002B67
:103B800000F09D8093F92050954240F3938099680E
:103B9000002900F0938091F92050954240F3AA80CB
:103BA0008B68002B00F08B8093F92050954240F3F6
:103BB00081809968002900F0818091F92050954218
:103BC0001D46DBDC97E000BF0120607006F11C00A1
:103BD0008268002A53D092F920308B424ADB9068E9
:103BE00000284BD090F920308B424FDB8268002AAE
:103BF00045D092F920308B423CDB906800283DD0C4
:103C000090F920308B421346E2DA40E0022A44D198
:103C1000746A002C41D094F9201090F92020914230
:103C2000D8BF70BDE16831B1A368002B8B6018BFAD
:103C3000D9600021E1600121417006F11C018B680F
:103C40008BB393F92050954228DD996851B391F9CF
:103C5000205095423ADD8B682BB393F92050954262
:103C60001CDD9968F1B191F9205095421D46E6DCC2
:103C70002DE000BF0346104609E000BF10460022B9
:103C800000F10801C4E9022006E000BF134600F17C
:103C90000C01C4E902039C600C6070BD0D4619461E
:103CA00015E000BF1946002301F10802C0E9023106
:103CB00012E000BF0D4619461DE000BF1946002363
:103CC00001F10802C0E902311AE000BF1D4601F10E
:103CD0000C02C0E90215A8601060FCF76DFDE078E9
:103CE00002214007617054BF0320022080F3148832
:103CF00012E000BF1D4601F10C02C0E90215A860E8
:103D00001060FCF759FDE07802214007617054BF54
:103D10000320022080F31488BFF36F8F2046B46124
:103D2000BDE87040FCF74ABD014680688268002A01
:103D30008A6018BFD1600021C160704791F920C02E
:103D40008368E3B193F92020624513DB9868A8B13A
:103D500090F92020624519DB836883B193F9202014
:103D6000624507DB986848B190F9202062451A4601
:103D7000E6DA0CE00246184609E000BF184600F1FA
:103D800008020023C1E90230116070471A46C1E9F8
:103D90000202916000F10C0211607047C1680029B5
:103DA00008BF70478268002A8A6018BFD16000216E
:103DB000C1607047B8B101460A78F12A14D1C968C8
:103DC00089B10A78F12A0FD1C96861B10A78F12A5C
:103DD0000AD1C968002908BF70470A78F12A03D1BF
:103DE000C9680029E8D17047C26822B18368002BF6
:103DF000936018BFDA6090F920C08B68EBB193F93B
:103E00002020624514DB9968B1B191F92020624508
:103E10001ADB8B688BB193F92020624508DB996827
:103E200051B191F9202062451A46E6DA0DE000BF53
:103E30000A46194609E000BF1946002301F10802AD
:103E4000C0E90231106070471A46C0E90212906062
:103E500001F10C02106070470121417040F20C0129
:103E6000C2F2000190F920C01C318B68EBB193F9CC
:103E70002020624514DB9968B1B191F92020624598
:103E80001ADB8B688BB193F92020624508DB9968B7
:103E900051B191F9202062451A46E6DA0DE000BFE3
:103EA0000A46194609E000BF194601F1080200233D
:103EB000C0E90231106070471A46C0E902129060F2
:103EC00001F10C021060704790F82210806BC90657
:103ED0004FF0200158BF602108447047016B806B90
:103EE00088429CBF0020704708684DF25B11C1F604
:103EF000A5510844B0FA80F040097047C178022209
:103F00004907427054BF0321022181F3148840F213
:103F10000C01C2F20001BFF36F8F8861FCF74EBC49
:103F20002DE9F04140F20C08C2F2000898F8082090
:103F30000E46911EB1FA81F1D8F824204909002AD1
:103F400018BF012201EA0204012C40F08D80D8F84C
:103F50001450074628463146FCF72AFC701C6F7047
:103F600008D0D8F82C201AB3D369B34228D900213D
:103F70004FE000BF08F1300100220B461B681046DD
:103F80005BB11A69184642B1176910462FB13A69F8
:103F9000384602F11003002AF0D14FF0FF32EA61F7
:103FA00000220028C5E9042018BF00F110013FE0FD
:103FB0000020EE61C5E9040008F12C0138E000BFE3
:103FC00010460169F61AE1B1CA69964214D308692C
:103FD000B61AA8B1C26996421AD30169B61A81B15C
:103FE000CA69964208D30869B61A48B1C36902463D
:103FF000B342E6D90DE000BF0A46014609E000BF22
:10400000084600F110010022EE61C5E904200FE02E
:10401000024601F11000EE61C5E90421002908BF44
:1040200008F12C00D1690560881BD06102F11401F0
:104030000D60D8F8240081680029C8F824101CBF3E
:1040400008F11C02CA600021C160C1780222490740
:10405000427054BF0321022181F31488BFF36F8F94
:10406000C8F81800FCF7AAFB2046BDE8F081000064
:1040700070B514460D460646FCF7A2FB96F82210D2
:10408000B26BC9064FF0200158BF60218D50F26914
:1040900031693046531C07D0A1B1CB691344426942
:1040A000CB614A6182B919E04269002918BF4A61AF
:1040B00052B940F20C02C2F2000211630021C16148
:1040C00044B914E042694AB1116100214161002103
:1040D000C16164B1BDE87040FFF73ABD40F20C0227
:1040E000C2F20002D1620021002CC161F2D1012193
:1040F000417040F20C01C2F2000190F920201C3105
:104100008B68E3B193F92060964213DB9968A9B1FB
:1041100091F92060964219DB8B6883B193F9206096
:10412000964207DB996849B191F9206096421E4694
:10413000E6DA0CE00E46194609E000BF194601F127
:1041400008020023C0E90231106070BD1E4601F173
:104150000C02C0E90216B060106070BDB0B5FEF789
:1041600053FC40F20C05C2F20005E8680130E8603B
:10417000FFF7C8FB0020FFF7EBFC286D002818BFF5
:104180008047296C51B3AA69E86B824206D0D06996
:10419000EA63002818BF0146104601E0D16911B159
:1041A0000139D1611AD1297A022917D16C6AACB1CF
:1041B00094F8201090F82000814218BFB0BD20462E
:1041C000FFF7ECFDE86BFFF747FEE86BFCF7F4FA4E
:1041D0002046FFF793FE286CEC63E061B0BD000061
:1041E00080B5FFF7B1FA00281CBF4FF0FF3080BD4B
:1041F00040F20C0044F23521C2F20000C0F600018A
:104200000165002080BD000082B004466D4600BFFD
:104210002046294600224FF0FF33FEF7A7FE002874
:10422000F6D1DDE90001FCF7CDFADDE900108847A1
:10423000EEE700002DE9F04381B040F20C05C2F238
:1042400000056C6C002C77D020696E6901384FF046
:1042500000084FF00109206105E000BF84F80190DB
:104260006C6C002C67D02069002864D1E0680022C3
:1042700000281CBFA16881606864E86C04F1180123
:104280000023FEF7E1FE60B1D5E9057021466861C3
:104290000320FEF7A9FF686986EA0701084308BF03
:1042A0000646E078C007D9D06B6C606923B11F69FE
:1042B000874207D900222BE00021C4E902182061BF
:1042C0002EE000BF1946CA68C01B002AF5D013694A
:1042D000984215D3D168C01AB1B10B69984215D371
:1042E000CA68C01A002AE8D01369984208D3D16876
:1042F000C01A49B10F690B468742E4D908E000BFF4
:1043000013460A4604E000BF1146D6E70B4600BF3D
:1043100020611969A260081A1146E36018619C6067
:1043200001F10C00002908BF05F1440004606C6C29
:10433000002C7FF498AF6E6101B0BDE8F0830000FF
:1043400010B540F20C00C2F20000047A2046FCF7DF
:10435000E7F9204610BD00002DE9F04140F20C07BE
:10436000C2F20007387A58B1012800F09F804FF060
:10437000FF30FCF7D1F94FF0FF30BDE8F08100BF0E
:1043800007F108009C21FCF738F944F63858C0F6CC
:104390000008D8E90202D8E90B41B8F810303864B7
:1043A0002046FA65A7F85430FEF7DAFF002818BF58
:1043B000C7F88040D8E90541D8E907562046FEF7FE
:1043C000CFFFD7F88010002818BF2146796728460C
:1043D0003146FEF7C5FFD7F88020002818BF2A46CF
:1043E000D8E90951BA672846FEF7BAFFD8F8344031
:1043F000D7F88010002818BF2946F9673CB121681A
:10440000D4E902232046FFF723F8C7F88440D8F800
:1044100038403CB12168D4E902232046FFF718F860
:10442000C7F88840D8F83C403CB12168D4E9022361
:104430002046FFF70DF8C7F88C40D8F840403CB153
:104440002168D4E902232046FFF702F8C7F890401C
:10445000D8F844403CB12168D4E902232046FEF755
:10446000F7FFC7F89440D8F848403CB12168D4E938
:1044700002232046FEF7ECFFC7F89840D8F84C40DE
:104480003CB12168D4E902232046FEF7E1FFC7F8DA
:104490009C40D8F850403CB12168D4E90223204622
:1044A000FEF7D6FFC7F8A04001203872FCF73CF9B0
:1044B0000020BDE8F08100002DE9F04F81B0002818
:1044C00018BF00290AD16FF003016FF00306FCF753
:1044D0003DF9304601B0BDE8F08F00BF0778FA2FF4
:1044E000F1D1944600F1280252E8004F14B9BFF30D
:1044F0002F8F04E0651E42E8005606B1F4E78CB148
:10450000814659F82C4F6CB193460122A61CD6E87F
:104510004F7FC6E8452F05B1F9E73F062ED0A468C6
:10452000002CF3D1C3B11A4604461D46FCF712F91C
:1045300083202946FFF7F4FCB0B140F20C00C2F230
:10454000000041692046FFF7F9FB6FF00106304695
:1045500001B0BDE8F08F00BFFCF706F96FF002066E
:10456000304601B0BDE8F08F2046FCF7F5F86FF05B
:104570000106304601B0BDE8F08F00BFD4E9012349
:104580004F46002A18BF02F1080700F1300A3B60CD
:104590005746002B18BF1F1D3A60426A04F10C06F3
:1045A00080460D46084631466646FBF78DFF002ED5
:1045B0001CBFE178317040462946FCF7DDF808F170
:1045C0000C050026284621462670FEF713FFD8F872
:1045D000080000283FF47DAF2846FEF7E5FE0028DE
:1045E0004FF000063FF475AF044640464746FFF7DC
:1045F0009BFB002101220546FFF73AFD2846FFF705
:1046000063FCD0F804807A6A054604F10C00414648
:10461000FBF75AFFF9212170396B2A7A3846A670C8
:10462000E270C9B1CB7893421CD24B682BB3DF78D0
:1046300097421DD25968F9B1CF78974222D24B6880
:10464000DBB1DF78974213D25968A9B1CF7897428E
:104650001F46EAD317E000BF0021C4E90111C9F8E1
:10466000004003E00022C4E901128C605D4614E0C2
:104670000F46194607E000BF19460022C4E9012190
:1046800006E000BF1F46C4E9011701F108093946D9
:104690005D46C9F8004001F1040ACAF8004055E837
:1046A000001F4A1C45E8002303B1F8E74146FCF728
:1046B00057F80026304601B0BDE8F08F2DE9F04FE5
:1046C00081B0002818BF00290AD100206FF0030133
:1046D0000024FCF73BF8204601B0BDE8F08F00BF96
:1046E000B0FA80F3B1FA81F73B441F2BEDD9CB1C14
:1046F00023F0030303F10C0505FB00F8C2B1937925
:10470000DB0627D4D2E90243D2F80090D2E9046252
:10471000002C41D0342B41D1002E4DD0B3074DD1C8
:1047200042454BD33CB100904FF0000A20E000BF5F
:104730004FF0000900260F4640F20C01C2F20001C2
:104740000090D1F8A00048B1FEF72EFE04464FF0CD
:10475000010A0CE000206FF00601B9E7D1F88000F3
:10476000342101224FF0010AFEF74AFD0446394682
:1047700040F20C07C2F200076CB366BBF86F8B46C1
:1047800041460022FEF73CFD064658B13046414600
:10479000FBF711FF1CE000BF002BBDD000206FF025
:1047A000090195E7BAF1000F11D0D7F8A00048B180
:1047B0002146FEF71FFE0AE0002AB3D000206FF06A
:1047C0000A0185E7D7F880002146FEF783FD002423
:1047D0000AF1020A5946FCB1FA2020700020C4E90F
:1047E00009100099E070C4E90190C4E90B0004F1DC
:1047F0000C002A46334684F802A0FEF729FE43F255
:104800001150C0F60000616838672046FBF79CFF36
:10481000204601B0BDE8F08F00206FF0040157E79B
:104820002DE9F04381B078B30C4669B30178FA29D9
:104830002AD18168914689B3497883292ED12146AE
:104840000746FBF78DFF3846FFF76EFA002101227D
:104850000546FFF70DFC2846FFF736FB45687A6AE8
:10486000064628462146B846FBF72EFEB068294684
:10487000002818BF80F800904046FBF77DFF002419
:10488000204601B0BDE8F0836FF003016FF0030430
:10489000FBF75CFF204601B0BDE8F08306460C3014
:1048A0001F46FEF781FD68B3726A05460C3021464B
:1048B000FBF70AFEF9213246297052F8301F002317
:1048C000AB7085F80390B9B3CB784B4538D24A68C2
:1048D000002A54D0D3784B454CD2516800294DD092
:1048E000CB784B4552D24A68002A48D0D3784B4502
:1048F00040D25168002941D0CB784B451346E6D3CE
:1049000045E000BF17B33A4630462146FBF730FF7B
:1049100093203946FFF704FB10B340F20C00C2F2BB
:10492000000041693046FFF709FA6FF001042046A4
:1049300001B0BDE8F08300BFC5E90133F5622DE0A9
:104940000023C5E901138D6028E000BF30462146F1
:10495000FBF708FF6FF00204204601B0BDE8F083CA
:104960003046FBF707FF6FF00104204601B0BDE8B9
:10497000F08300BF0B46114609E000BF114600223C
:10498000C5E9012106F12C0206E000BF1346C5E986
:10499000011301F10802194615600A1D156006F1A0
:1049A000280151E8002F531C41E8003505B1F8E714
:1049B00030462146FBF7D4FE0024204601B0BDE876
:1049C000F083000070B540F20C02C2F2000254699C
:1049D000C4B378B30278F52A2CD1027ED2B3C3785F
:1049E000DE0702D0C668A64250D0002942D09A07FE
:1049F0000FD5C26894F9203092F920609E4208DAFF
:104A00000546104682F820300E46FFF7D3F93146AE
:104A1000284605460E46FBF7B3FE53203146FFF706
:104A20007FFA68B328462146FFF788F96FF0010046
:104A300070BD00BF6FF003016FF00304FBF7ACFE25
:104A4000204670BD6FF00801FBF7A6FE4FF0FF3067
:104A500070BD00BFE16A0022C460026100294161AB
:104A600018BF0861E06201210176FBF78DFE00208E
:104A700070BD00BFFBF794FE6FF0020070BD00BF79
:104A80002846FBF77FFE6FF0010070BDFF2A07D1BB
:104A90006FF01101FBF780FE6FF0020070BD00BFE8
:104AA000511C0176FBF770FE002070BD10B5044666
:104AB00020B32078F52821D1207E002841D06169DB
:104AC000D4E90302002918BF0A61002A0EBFC1629F
:104AD0005161C16A90F8212001E000BF4969B9B174
:104AE000CB789B07FAD58B68002BF7D093F9203051
:104AF00052B29342C8BF1A46F0E700BF20466FF09B
:104B000003016FF00304FBF747FE204610BD00BF12
:104B100090F82010D3B299420CD080F82020FFF7F3
:104B200049F907E02046FFF7FFF86FF00201002285
:104B3000FFF79EFAA0680028F4D100202076FFF746
:104B400007F8A0780021C007217009D040F20C01BD
:104B5000C2F20001D1F8940040B12146FEF74AFCB0
:104B60002046FBF717FE002010BD00BFD1F88000E3
:104B70002146FEF7AFFB2046FBF70CFE002010BDE0
:104B800070B558B14668F1022AD4D0E902510468E0
:104B9000002D3FD01C293FD100200DE0002600242D
:104BA00040F20C01C2F20001D1F8940000B3FEF70C
:104BB000FBFB054628B30120A87006F00F00F52185
:104BC000E87000202970C5E90140C5E9030068616B
:104BD000287628462146FBF7D9FD284670BD00BF40
:104BE00000206FF006010025FBF7D6FD284670BDBA
:104BF000D1F880001C210122FEF702FB05460028A7
:104C0000D9D100206FF004010025FBF7C5FD28462F
:104C100070BD00BF0029C3D000206FF0090100253E
:104C2000FBF7BAFD284670BD70B540F20C01C2F228
:104C300000014D69C5B178B10178F5290CD1017E2B
:104C4000D1B1C268AA421FD06FF00F01FBF7A4FDDB
:104C50006FF0020070BD00BF6FF003016FF003043E
:104C6000FBF79AFD204670BD6FF00801FBF794FD3D
:104C70004FF0FF3070BD00BF6FF01001FBF78CFDEF
:104C80006FF0020070BD00BF01390176C9B2044661
:104C9000FBF78AFD217E00291CBF002070BDD4E9EE
:104CA00004212046002918BF0A61002A0EBFE962CC
:104CB0005161E96A95F8212001E000BF496969B1B5
:104CC000CB789B07FAD58B68002BF7D093F920306F
:104CD00052B29342C8BF1A46F0E700BF806885F819
:104CE0002020A8B12046FFF71FF80021002205462A
:104CF0000026FFF7BDF9E96AE560266100296161D8
:104D000018BF0C6101212046EC622176FBF73CFDC7
:104D100000200024FEF71CFF204670BDF1EE100AB3
:104D20004FF6FF71C0F2C03120EA010040F0407040
:104D3000E1EE100A7047000002000000E8030000E6
:104D400005000000A8030020100000000000000083
:104D50000000000000000000000000000000000053
:104D600000000000E80300200080000000000000B8
:104D70000000000000000000000000000000000033
:104D8000000000000000000000000000000C000017
:104D9000044E0008404E000809420008E1410008A6
:104DA000284E0008040000006C8400200C850020C0
:104DB00000000000000000000000000000000000F3
:104DC00000000000000000000000000000000000E3
:104DD0000000000000000000E88300201C84002088
:104DE000000000000000000001020304060708099B
:104DF0000000000001020304000610160006101651
:104E00000000000000000000000000006C84002092
:104E1000500000001085002000020000010000008A
:104E20000000000000000000000000000000000082
:104E3000E8830020340000001C84002050000000A3
:104E40000000000000000000BC84002050000000B2
:104E50001087002000020000280000000000000071
:104E6000000000005254582056352E392E300000D4
:104E7000904E000800000020B0000000280200084A
:104E8000404F0008B0000020688E00004802000873
:104E900001000000100000000024F400644E00082F
:104EA0001050FC02000000000000000000000000A4
:104EB00000000000000000000000000000000000F2
:104EC00000000000000000000000000000000000E2
:104ED00000000000000000000000000000000000D2
:104EE00000000000000000000000000000000000C2
:104EF00000000000000000000000000000000000B2
:104F000000000000000000000000000000000000A1
:104F10000000000000000000000000000000000091
:104F20000000000000000000000000000000000081
:104F30000000000000000000000000000000000071
:04000005080001C529
:00000001FF
