:020000040800F2
:1000000018920020CD020008E54A0008B543000818
:10001000E14A0008BD1A000829500008000000004D
:100020000000000000000000000000000D030008B8
:10003000E51A000800000000DD030008ED030008D9
:10004000E7020008E7020008E7020008E7020008EC
:10005000E7020008E7020008E7020008E7020008DC
:10006000E7020008E7020008E7020008E7020008CC
:10007000E7020008E7020008E7020008E7020008BC
:10008000E7020008C11A0008E7020008E7020008BA
:10009000E7020008E7020008E7020008E70200089C
:1000A000E7020008E7020008E7020008E70200088C
:1000B000D54C0008E7020008E7020008E702000844
:1000C000E7020008E7020008E7020008E70200086C
:1000D000E7020008E70200081D500008E7020008D8
:1000E000E7020008E7020008E7020008E70200084C
:1000F000E7020008E7020008E7020008E70200083C
:10010000E7020008E7020008E7020008E70200082B
:10011000E7020008E7020008E14C0008E7020008D7
:10012000CD1A0008E7020008E7020008D91A000803
:10013000E70200080000000000000000E7020008DD
:10014000E7020008E7020008E7020008E7020008EB
:10015000E7020008E7020008E7020008E7020008DB
:10016000E7020008E7020008E7020008E7020008CB
:10017000E7020008E7020008E702000800000000AC
:1001800000000000E702000800000000000000007E
:10019000E70200080000000000000000E70200087D
:1001A000000000000000000000000000E70200085E
:1001B000E7020008E7020008E7020008E70200087B
:1001C000E702000800F002F800F06CF814A696E8C8
:1001D000000CB244B344DA4501D100F063F8BAE848
:1001E0000F000FA696E83000A5EB040504EB060708
:1001F000AAEB0704A7F101074FEA15154FEA3414DB
:10020000A4F10104AC4201D300F04CF813F0010F4B
:1002100018BFFB1A43F0010300F001F8DBE71847B1
:10022000607A0000807A0000103A24BF78C878C154
:10023000FAD8520724BF30C830C144BF04680C60EC
:1002400070470000704700000023002400250026AE
:10025000103A28BF78C1FBD8520728BF30C148BF29
:100260000B607047662907F0FF83782900F07A81D8
:10027000002070471FB501F015FC9DE8030001F058
:1002800099F900F089FD04000020002107F052FBDD
:10029000E06000F0A7FE1FBD10B500F01BFF01F0ED
:1002A000CBFB10BD00F086FF114603B404F05CFFE9
:1002B00003BCFFF7DFFF04F06DFF01F0DBF803B4D0
:1002C000FFF7EAFF03BC01F017FB00000948804775
:1002D00009480047FEE7FEE7FEE7FEE7FEE7FEE728
:1002E000FEE7FEE7FEE7FEE704480549054A064B40
:1002F00070470000C14C0008C5010008188C0020A0
:1003000018920020188E0020188E00201EF0040F76
:100310000CBFEFF30880EFF30980816911F8021C2C
:1003200000294DD101B590E80F10E047BDE800501D
:10033000CCF80000314B93E80600914208BF7047AB
:100340001A6041B91EF0100F2CD12D4B186820F007
:100350000100186026E0ACF1200C1EF0100F08BF61
:10036000ACF1400C81F822E0C1F838C006B4084670
:1003700005F0B2FF06BC50B90C46012005F032F979
:10038000204B5A681A60002194F922E0DAE7D1F88C
:1003900038C091F922E01EF0100F08BFACEC108AB3
:1003A0008CE8F00F1400A06B94F922E01EF0100FFF
:1003B00008BFB0EC108AB0E8F00F80F309887047EE
:1003C000114A13689942FAD801B552F821C00FC8F2
:1003D000E047BDE80050CCF80000704701B505F0DB
:1003E000F1FBBDE80140EFF3098CA3E701B506F08E
:1003F000B3F8BDE80140EFF3098C9BE73000002023
:1004000034EF00E030000020107C000853EA020CBA
:1004100000F069802DE9F04B4FF00006002B1FBF64
:10042000B3FA83F503FA05F424FA05F65E4012BF29
:100430001643B2FA82F502FA05F4C5F120051EBF93
:1004400022FA05FC44EA0C04203556EA044C4FEA33
:10045000144418BF641C4FF000084FF0000990428C
:1004600071EB030C39D3002919BFB1FA81F701FAF6
:1004700007F6B0FA80F700FA07F6C7F120071EBFAB
:1004800020FA07FC46EA0C062037B6FBF4FCA7EB83
:100490000507103F07F01F0BCBF120062CFA06F6DC
:1004A0000CFA0BFB44BFB3460026202FA4BF5E46C8
:1004B0004FF0000B5BEA060C08BF4FF0010B19EB85
:1004C0000B0948EB0608ABFB027C06FB02CC0BFBDE
:1004D00003CCC01B71EB0C01C1E70B460246414641
:1004E0004846BDE8F08B13B5084318BF4FF0FF3006
:1004F0000146AFF30080BDE81C4070470FB40449CB
:1005000010B503AA029800F035FC10BC5DF814FB8E
:100510001401002070B5044685690068C10601D544
:10052000302600E02026C00707D070BDD4E90121A5
:1005300030469047206A401C20626D1EF6D570BD83
:1005400070B5044685690078C00707D170BDD4E94D
:10055000012120209047206A401C20626D1EF6D5A4
:1005600070BD000070B504460D4621461068AFF31B
:1005700000802188090502D50F4A7A4402E00E4A1C
:100580007A440E32002104F1240305E000F00F0646
:100590000009965D5E54491C0028F7D1207800239D
:1005A000000704D5702D02D009B102231132204674
:1005B000BDE8704000F077B9EE7400002DE9F05FFF
:1005C000894604464FF0000ADFF824B1FB44C0F826
:1005D00020A02046E168884700287DD0252806D045
:1005E000D4E901219047206A401C2062F1E70025F0
:1005F0005F462046E16888472028064607DB312E03
:1006000005D2B81910F8200C08B10543F1E7A80786
:1006100001D525F00405C4F81CA00027C4F818A0D3
:100620002A2E09D0304607F07DF938B304EB87084D
:10063000303EC8F8186019E059F8041B204604EB56
:1006400087029161E1688847012F064618D1E06969
:10065000002820DA25F020051DE0D8F8180000EB6E
:10066000800006EB40003038C8F818002046E168EA
:100670008847064607F056F90028EED1012F0AD028
:100680002E2E08D12046E16888477F1C0646022F9F
:1006900045F02005C4DBA069002803DA404245F09C
:1006A0000105A061E80701D025F01005A6B1A6F16B
:1006B0004100192802D8203645F400654A463146E3
:1006C000204625604D46FFF7CDFD60B1012807D0DB
:1006D000ED1D25F0070000E007E000F1080978E7CC
:1006E00005F1040975E730467AE7206ABDE8F09F16
:1006F000C474000010B5044603E004F037FD401C4C
:1007000009D014F8010B05490028F6D1BDE81040C6
:100710000A2004F02BBD4FF0FF3010BD1401002063
:10072000032A40F2308010F0030C00F0158011F81D
:10073000013BBCF1020F624498BF11F801CB00F8F5
:10074000013B38BF11F8013BA2F1040298BF00F849
:1007500001CB38BF00F8013B11F0030300F0258006
:10076000083AC0F0088051F8043B083A51F804CB2D
:10077000A0E80810F5E7121D5CBF51F8043B40F8F3
:10078000043BAFF30080D20724BF11F8013B11F8FE
:1007900001CB48BF11F8012B24BF00F8013B00F842
:1007A00001CB48BF00F8012B704710B5203AC0F0CC
:1007B0000B80B1E81850A0E81850B1E81850A0E834
:1007C0001850203ABFF4F5AF5FEA027C24BFB1E8CD
:1007D0001850A0E8185044BF18C918C0BDE8104010
:1007E0005FEA827C24BF51F8043B40F8043B08BF19
:1007F0007047D20728BF31F8023B48BF11F8012BE0
:1008000028BF20F8023B48BF00F8012B70474FF08B
:1008100000020429C0F0128010F0030C00F01B80CD
:10082000CCF1040CBCF1020F18BF00F8012BA8BFDB
:1008300020F8022BA1EB0C0100F00DB85FEAC17C9F
:1008400024BF00F8012B00F8012B48BF00F8012B52
:1008500070474FF0000200B5134694469646203983
:1008600022BFA0E80C50A0E80C50B1F12001BFF469
:10087000F7AF090728BFA0E80C5048BF0CC05DF8CF
:1008800004EB890028BF40F8042B08BF704748BF1D
:1008900020F8022B11F0804F18BF00F8012B704791
:1008A0007047704770472DE9F0470D4699469246CC
:1008B000044600F124080168880604D5E06921F0A7
:1008C0001001216000E00120A84201DD471B00E08B
:1008D0000027A1697A1902EB0900081AA0612078A3
:1008E000C00602D42046FFF715FE002608E0D4E932
:1008F00001211AF806009047206A401C761C2062ED
:100900004E45F4DB2078C0060AD52046FFF702FEEC
:1009100006E0D4E9012130209047206A401C206283
:10092000381EA7F10107F4DC07E0D4E9012118F82B
:1009300005009047206A401C2062281EA5F1010591
:10094000F3DC2046FFF7FCFD2078000602D50220EC
:10095000BDE8F0870120FBE72DE9FF4F0C461E465E
:100960004FF0FF378BB0D2E90001DDF860800A90CC
:100970008A46C1F30A5505B93D46002108464FF0A5
:100980000000BAF1000F00F4400005DA00EB80002F
:100990004FF4400101EA50004FEA9059B9F1010FBC
:1009A00000DDB9460A9850EA4A000ED044F61050CD
:1009B000A5F2FF3545432F14B8F1000F1ED0754244
:1009C000291E1EDDC9F100021CE0B8F1010F4FF035
:1009D000000001D0302103E0F24305E02154401C27
:1009E000B042FBDB30460022002121540B99C1F8B4
:1009F0000880C1E900200FB0BDE8F08FBD1B6D1C61
:100A0000DEE74A4600DA694206A800F069FA06AB5A
:100A100093E8070003AB83E8070050460A9906F005
:100A2000A0FB8DE80700A0F500501F380090039848
:100A3000002D0ADD42F21F014A460844002303A9A3
:100A40000390684606F00AFE09E0A0F500504A4609
:100A50001F38002303A90390684606F014FE8DE8B2
:100A600007000004000C03D04FF0FF30410800E005
:100A70001046B8F1000F03D00022009215461EE088
:100A8000751E05D400F08FF9303262556D1EF9D510
:100A9000B3460122084302D000227F1C04E02078E4
:100AA000302801D100227F1E002A099784D01DE042
:100AB000112D07DA00F077F9303262556D1C50EADB
:100AC0000102F5D1084302D00098C8B10EE0002120
:100AD000681E05E0235C625C63542254401E491C7E
:100AE0008142F7DBAB46A81B401E0990002004F8AA
:100AF0000B000B98099AC0F80880C0E9002B7AE730
:100B000011264FF0000857E72DE9F04F88460446BC
:100B1000D21D22F0070191B0D1E90001CDE90A010F
:100B200006F0E8FE02460B98C00F01D02D2007E02A
:100B30002068810701D52B2002E0202101EAC000B6
:100B4000032A099001D0072A05DB034641462046C7
:100B500000F086F90BE12078800601D5E06900E01D
:100B60000620B8F1650F814606D0B8F1660F18D09F
:100B7000B8F1670F70D131E00020B9F1110F00908A
:100B800001DB112301E009F101030AAA01A90CA864
:100B9000FFF7E2FEDDE90C70002609F1010583464E
:100BA00047E001204B4600904FF000470AAA01A9F8
:100BB0000CA8FFF7D1FEDDE90DB00C995D460026CB
:100BC00010B909F101000D18B9EB050003D4C0F10B
:100BD000FF3609F10105A5EB09002BE0B9F1010F82
:100BE00001DA4FF001090020B9F1110F00904846D9
:100BF00001DD112300E003460AAA01A90CA8FFF7B2
:100C0000ABFEDDE90C704D460026834620780007D8
:100C10000AD4AB4500DA5D4601A8012D04DD411977
:100C200011F8011C302907D04F4502DA17F1040FE3
:100C300004DA012082460FE06D1EEEE7002F02DC91
:100C4000ED1B3E4403E0781CA84200DD7D1CB81B70
:100C500000F1010A4FF000472078000703D4AA45AD
:100C600001DB4FF0FF3A0021B7F1004F0DF14308CF
:100C70008DF8431024D002202B23002F01DA7F426D
:100C80002D230A21021EA0F1010000DC5FB197FBB9
:100C9000F1FC97FBF1F201FB1C7C17460CF1300CC8
:100CA00008F801CDEEE7A8F10100037021880905DD
:100CB00001D5452100E06521A0F1010800F8011CE3
:100CC00009980FA9A1EB0807FF1D00B101204119E8
:100CD00001EBEA70A1693844081A401EA06120782F
:100CE000C00602D42046FFF715FC099828B1D4E9C4
:100CF00001219047206A401C20622078C00622D53E
:100D00002046FFF707FC1EE0002E04DBB34502DDA2
:100D100001A8805D00E03020D4E901219047206ADD
:100D2000401C2062761CAAF101005FEA000A0AD189
:100D300000F032F8C0680168405CD4E901219047B6
:100D4000206A401C2062281EA5F10105DCDC07E0BA
:100D5000D4E9012118F8010B9047206A401C206259
:100D6000381EA7F10107F3DC2046FFF7E9FB03205B
:100D700011B041E6074B70B50D467B4400F05DF8BD
:100D80000446284600F01EF910B14FF0FF3070BD48
:100D9000204670BDEF43000010B500F007FA203088
:100DA00010BD04F043B930B5B0F10A0271F100038F
:100DB0004FEA900E4EEA817EB0EB0E0061EB91019E
:100DC0004FEA101E4EEA017E10EB0E0041EB1111AE
:100DD0004FEA102E4EEA016E10EB0E0041EB11218E
:100DE0004FEA104E4EEA014E10EB0E0041EB11415E
:100DF000401841F100014FEAD00040EA41704FEA4B
:100E0000D1014FEA810444EA907410EB800544EB71
:100E100001046D1944EB0404521BA3414FF000037D
:100E200048BF0A3200D530BD401C41F1000130BD41
:100E300001694A1C02610878704700B58FB0CDE99E
:100E400001310021059105497944CDE9031011468E
:100E50006846FFF7B3FB0FB000BD0000E5FFFFFFE2
:100E60002DE9F0411F46044603260168072A01F4D4
:100E7000006004DB08B116A505E016A503E008B183
:100E800015A500E015A521F010002060A069C01E86
:100E9000A0610FB1401EA0612046FFF73BFB4FB1A0
:100EA000D4E9012138469047206A401C2062C01CCA
:100EB000206206E0206AFAE7D4E9012115F8010B67
:100EC0009047761EF8D22046FFF73AFBBDE8F08146
:100ED0004E414E006E616E00494E4600696E6600DE
:100EE0002DE9F047814616468AB0354878440DC84A
:100EF0008DE80D0032487844801C03AC0DC884E8AE
:100F00000D0041F69B300844372190FBF1F290FB35
:100F1000F1F5A5F1800501FB12041B3C02D56442EA
:100F2000012000E00020DFF898A080460027FA4466
:100F3000AAF1BE0A0EE0E0070AD03246684607EB87
:100F4000470101230AEB810106F09DFB8DE80700B4
:100F500064107F1C002CEED1194F7F44AE3F19E086
:100F6000E80715D007EB04100DF1180A90E80E0001
:100F70008AE80E00C068F04201D198190890324604
:100F8000012306A903A806F07EFB03AB83E8070054
:100F90006D10641C002DE3D14FF001033246694609
:100FA000B8F1000F03A802D006F058FB01E006F0EC
:100FB0006AFBC9E90001C9F808200AB0BDE8F0875A
:100FC000346C000070B5044600F14C05284604F06E
:100FD00077F8207B00F08004284604F0A7F820462C
:100FE00070BD000010B565485421FFF732FC64481D
:100FF0005421FFF72EFC63485421FFF72AFC624876
:101000005E49624A624B01605D4810605D4A1A6049
:10101000431C0B65511C01650120106557484C307D
:1010200004F074F856484C3004F070F855484C30D1
:1010300004F06CF8574804F069F858484F4A56A134
:10104000784400F0CBF920B9544878440A3800F0CD
:101050001AFA54484A4A52A1784400F0BFF920B91C
:10106000504878440A3800F00EFA4F48454A4CA1DF
:10107000784400F0B3F920B94B4878440A3800F0BE
:1010800002FA40233D48DC000021224600F018F916
:1010900020B142487844543800F0F5F938482246E7
:1010A0004023002100F00CF920B13E487844543828
:1010B00000F0E9F9334822461023002100F000F93E
:1010C000002806D038487844BDE81040563800F073
:1010D000DAB910BD2B482DE9F041006D2D4E20F0FE
:1010E0000104304603F0ECFF244D4C35284603F054
:1010F000E7FF224800F0BEF8284604F017F828461B
:1011000004F000F81E4D4C35284603F0D9FF1C486A
:1011100000F0B0F8284604F009F8284603F0F2FF82
:10112000184D4C35284603F0CBFF164800F0A2F8C6
:10113000284603F0FBFF284603F0E4FF14E0206D8F
:1011400020F0010504F14C00074603F0B9FF2046EA
:1011500000F090F8384603F0E9FF384603F0D2FF7C
:10116000204600F07DF82C46002CE8D1304603F0F4
:10117000DDFF084803F0C6FFBDE8F081C000002095
:10118000140100206801002000000020040000205D
:10119000080000200C00002072000000F86A000027
:1011A00077000000E46A0000D06A00000048704741
:1011B000BC0100207546FFF7F9FFAE460500694601
:1011C000534620F00700854618B020B5FFF78CF88D
:1011D000BDE820404FF000064FF000074FF0000838
:1011E0004FF0000BAC46ACE8C009ACE8C009ACE875
:1011F000C009ACE8C00921F007018D46704770B501
:1012000016460D46041F002808BF70BD002E1CBFE7
:1012100005F1080003F054FF2B465868002818BF5A
:10122000A04238BF0346F8D31968CA18A24218BFB3
:101230005C6003D122681C461144196021680A19B8
:10124000824218BF606004D142686260006808444E
:101250002060002E1CBF05F1080003F067FF70BD81
:1012600010B5044600F089F901682046BDE8104039
:101270000122C4E72DE9F04704464FF0FF3800266D
:10128000C568D4E90497A80718D0204600F0D0FA22
:10129000384600F049F9002800DA4646280502D50C
:1012A0004846FFF7DDFF4C212046FFF7D2FA206DBC
:1012B00020F0010020653046BDE8F0874046FBE79E
:1012C0002DE9F04704461E4690460D46C7684C304F
:1012D000814603F0F5FEB80714D0780212D44046D8
:1012E000B8F5807F09D0B0F5007F06D0B8F5806FE3
:1012F00008D1012604F1240506E0701E6FF07F413D
:10130000884201D3012409E02561E6616560E06857
:1013100020F4706040EA0800E0600024484603F0D2
:1013200005FF2046BDE8F0872DE9F04716468846C0
:10133000070010D006F14C00814603F0C1FE304694
:10134000FFF798FF18F8010B61280DD0722805D01F
:10135000772841D105E00020BDE8F0870125002471
:1013600005E00225042402E0082448F2020518F8EA
:10137000010B2B2806D0622809D018F8010C74281C
:101380000AD00BE045F0030544F00204EFE745F016
:10139000040544F00104EAE744F01004384621460D
:1013A00000F0B8F8411C17D00021316171604FF492
:1013B0000071F560F1617061200704D530460222AA
:1013C000002100F079F9306D40F0010030654846A9
:1013D00003F0ACFE3046BFE70026F8E72DE9F04108
:1013E00015460E460746214C204603F069FE2A4664
:1013F00031463846FFF798FF0546204603F096FE33
:101400002846BDE8F0812DE9F0410E468046174D93
:10141000284603F055FE164C206DC10704D0410844
:1014200004D020F00104F7E7224612E0542000F037
:1014300039F9070017D0206D47F001010843542106
:1014400020653846FFF705FA07F14C0003F05EFE11
:101450003A4631464046FFF767FF0446284603F008
:1014600065FE2046CDE70024F8E700000C000020D0
:10147000C000002010B50446AFF300802046BDE850
:101480001040FEF71CBF10B500F01CFABDE810407C
:1014900000F012BA0000000030B44FF0013C50F8E8
:1014A000042B51F8043BCCFA52F4D51A20D1FCB9E4
:1014B00050F8042B51F8043BCCFA52F4D51A17D14A
:1014C000B4B950F8042B51F8043BCCFA52F4D51AB5
:1014D0000ED16CB950F8042B51F8043BCCFA52F4FD
:1014E000D51A05D1002CDAD030BC4FF0000070477F
:1014F00029BAB1FA81F111F01801D1F1200084402C
:10150000F2D1CA40CB4012F0FF0213F0FF0330BC0F
:10151000D01A70470EB5CDE9000100F067FA0290CD
:1015200069460120ABBE0EBD08B569460090022099
:10153000ABBE08BD1FB58DE8070069460520ABBEF0
:1015400004B010BD1FB58DE80F0069460620ABBE84
:10155000F6E708B5694600900920ABBE08BD1CB58A
:10156000CDE9000169460A20ABBE1CBD704708B535
:10157000694600900C20ABBE08BD10B5FFF716FE03
:10158000083010BD704770477047704738B5044643
:101590000A4600206946AFF30080002808BF38BD26
:1015A00002460099204600F0BEF9012038BD012016
:1015B00000F015BAF8B5AFF30080054600200C46E0
:1015C0000C2000BF0646A819A0420DD93246694634
:1015D0000020AFF30080070008BF00F000FA009879
:1015E000A04218BF0546C419FFF7C7FF05600746AC
:1015F000F01D20F007004619284600F084F9B44297
:1016000008BFF8BDA21B31463868BDE8F84000F0BD
:101610008AB90844401E491E884370470821001DAE
:10162000F7E72DE9F04117460E460446FFF7F6FFAF
:10163000A042054633D9002F1CBF06F1080003F075
:101640003FFD30467468F4B12168A94217D305F113
:10165000080291423CBF6168416007D3626861192A
:101660004A602268521B0A6041602560002F1CBF3F
:1016700006F1080003F05AFD201DBDE8F081204668
:101680006468002CE0D129463046FFF77FFF002830
:10169000D7D1002F1CBF06F1080003F047FD002042
:1016A000BDE8F08110B50446FFF767FF01682046EA
:1016B000BDE810400122B4E72DE9F041044616468A
:1016C0000D464769007B80072ED03846FFF741FF63
:1016D00050BB3EB3012E02D0022E25D104E020469D
:1016E00000F043F905441DE03846FFF740FFE1688C
:1016F000002841F01001E16005DA204600F058F8BA
:101700000120BDE8F081C9030BD56268E16A91420E
:1017100000D81146A26911442269891A814200DD6C
:1017200008460544002D01DA0220EAE7E16A606814
:10173000E268814206D29103E06203D522F40031CF
:1017400041F01002A6690027AE4213DCE16A814233
:1017500001D90B4600E0034603EB060C2369ACEB12
:10176000030CAC4506DD814201D98C4600E084467D
:101770009C4505D1A760276042F02000A5620DE0DE
:10178000AD1BE669AE1B8142A66000D90846C01AAF
:10179000281A20605819606022F020000349084090
:1017A000E060002084F84870ABE70000BFCFD7FFAF
:1017B000C16821F4001141F08001C1600021816005
:1017C000016070472DE9F74F15460C464FF0FF3B7F
:1017D0003848D768D2F814A0074209D05046A96902
:1017E000FFF7BDFE002819DB3248C0430740EF6019
:1017F0004FF000496FF000484C4501D3464600E0E9
:10180000264600993B4650463246FFF793FEA969AB
:1018100020F00042B21A1144A96128B12846FFF70E
:10182000C7FF5846BDE8FE8FA41BE5D10020F9E7AD
:1018300070B504460569C06A6168884200D80846E8
:10184000E16821F42011E160C90312D5A84208D053
:101850002246411B2846FFF7B5FF10B14FF0FF307D
:1018600070BD0020E562C4E90150E06820F48030DA
:10187000E060002070BD10B50446C06820F0200074
:10188000E060A16AA06988420DD02046FFF7D0FF32
:10189000E06820F4405040F01000E060A06AA061D1
:1018A0002069E062606044F24001E0688843E060E3
:1018B00010BD000010000200002801D000F01CB88C
:1018C0007047000010B5014602A000F06FF801203B
:1018D00010BD000053494752545245443A205265C6
:1018E0006469726563743A2063616E2774206F7057
:1018F000656E3A200000000001491820ABBEFEE7EB
:10190000260002007047002140F8041B40F8041B29
:1019100003F0FCBB0C207047801A0844401E491E8F
:1019200088431044704770B5144605468C4643689A
:10193000002B18BF634538BF1846F8D3026810441F
:10194000604508D06646604604220821FFF7E4FFA0
:10195000811B8446641A2946CCF80040BDE87040DB
:1019600000220CF10400FFF74ABC10B50146C26822
:10197000900703D0900607D5886A0AE0FFF711FAAE
:1019800001210160881E10BD8B69486818440B69ED
:10199000C01A91F848301BB191F84910401A10BD97
:1019A0001103FCD50028FADD401E10BD70B50546B8
:1019B0000C460A2000E06D1C00F037F835B128789D
:1019C0000028F8D102E0641C00F02FF814B1207850
:1019D0000028F8D1BDE870400A2000F026B810B504
:1019E00000F032F8BDE81040FFF766BF10B5431CA9
:1019F00002E010F8011B71B18107FAD14FF00132FA
:101A000002C88C1A8C4314EAC211F9D0C01A0A0613
:101A100003D0C01E10BDC01A10BD0A0401D0801E24
:101A200010BD0902FCD0401E10BD08B569468DF8F6
:101A300000000320ABBE08BD10B5FFF79EFD006897
:101A4000BDE8104000F028B810B5012805D00021ED
:101A500003A0FFF7ABFF012010BD09A1F8E70000CC
:101A600053494752544D454D3A204F7574206F6687
:101A70002068656170206D656D6F727900000000EF
:101A80003A2048656170206D656D6F727920636FD3
:101A9000727275707465640010B5083003F032FB23
:101AA00010BD000080B505F0D2FF4EF63C71F1EE9E
:101AB000100ACEF20001086080BD0000FEE70000C1
:101AC00040F2DC20C2F2000000F0CAB840F21C2054
:101AD000C2F2000000F0C4B840F27C20C2F2000064
:101AE00000F0BEB87047000072B600BFFEE700000D
:101AF000704700007047000070470000704700000A
:101B000070470000704700007047000070470000F9
:101B100070470000704700007047000070470000E9
:101B200070470000704700007047000070470000D9
:101B300070470000704700007047000070470000C9
:101B400070470000704700007047000070470000B9
:101B500070470000704700007047000070470000A9
:101B60007047000070470000704700007047000099
:101B70007047000070470000704700007047000089
:101B80007047000070470000704700007047000079
:101B90007047000070470000704700007047000069
:101BA00070470000704700007047000070B5866DF8
:101BB000044600F0D3FA94F83510022928D10546DE
:101BC0002068216C026822F016020260426922F04D
:101BD0008002426109B9A16C19B1016821F00801C4
:101BE0000160016821F00101016000BF2068006808
:101BF000C00715D000F0B2FA401B0628F6D320200B
:101C00006065032084F83500002184F8341070BD2D
:101C1000802060650120002184F8341070BD00BF71
:101C2000E06D3F2101FA00F0B060012084F835003A
:101C30000020002184F8341070BD000090F83510A9
:101C4000022909D1052180F835100068016821F0CA
:101C5000010101600020704780214165012070472B
:101C6000F0B581B00021009140F21801C2F20001EC
:101C70000B68D0E9166148F2B51537680822C1F63D
:101C80004E358A403A42A3FB05350CD003681C68E8
:101C9000640708D51C6824F004041C60B260426D1F
:101CA00042F00102426501228A403A4208D00368AC
:101CB0005B691B0604D5B260426D42F002024265C8
:101CC00004228A403A4208D003681B689B0704D567
:101CD000B260426D42F00402426510228A403A42EC
:101CE00019D001680B681B0715D5B2600B680A682C
:101CF0005B0309D4D20509D40A6822F008020A60FD
:101D0000016C29B907E000BF110341D4016C11B186
:101D1000044688472046C26D202101FA02F33B4267
:101D200043D001680F68FF063FD5B36090F8357067
:101D30000B68052F1CD123F016030B604B6923F0B1
:101D400080034B61036C0BB9836C1BB10B6823F0F0
:101D500008030B603F219140B160012180F83510EC
:101D6000016D0022002980F8342054D158E000BFD2
:101D70000A685B0310D4D20512D40A6822F010025C
:101D80000A60012180F83510002180F8341007E046
:101D9000816C0029BCD1BEE7110301D4416C00E085
:101DA000C16B11B1044688472046416DC1B3416DF6
:101DB000C9072ED0052180F835100168AA0A0B68E2
:101DC00023F001030B60009B0133934200931AD868
:101DD0000B68DB0717D0009B01339342009312D8A6
:101DE0000B68DB070FD0009B0133934200930AD8A6
:101DF0000B68DB0707D0009B01339342009302D8A6
:101E00000B68DB07DFD1012180F83510002180F855
:101E10003410C16C21B101B0BDE8F040084700BFEB
:101E200001B0F0BD2DE9F041044600F097F9ECB1A6
:101E30000546022084F835000020216884F834002B
:101E4000086820F00100086021680868C00711D008
:101E500000F084F9401B0528F6D903252023032030
:101E6000636584F83550BDE8F08100BF0120BDE80E
:101E7000F08100BF086848F23F02CFF21002D4E9B7
:101E8000013500EA020C04F10C0898E8C10143EAAC
:101E90000C032B431843D4E9072E30433843104337
:101EA000626A40EA0E00042A40EA08031CD1206B53
:101EB000D4E90A2E40EA0E00184308604869BEF1D2
:101EC000000F20F0030040EA020040F0040C11D0A3
:101ED000B8F5005F36D0B8F1000F45D1022A46D0E0
:101EE000012A3BD032B942E00B60486920F007007C
:101EF00040EA020C01F0F8004AF6AB221038CAF6AC
:101F0000AA22A0FB02231A0947F60843C1F814C00D
:101F1000C0F600039A5C40F2FF335F284FF03F00A9
:101F200021EA030100FA02F088BF0431C4E9161265
:101F30008860002301250020636584F83550BDE8E2
:101F4000F08100BF032AD5D8012540230120DFE816
:101F500002F0030E030500BF82E700BFAEF1C070C0
:101F6000B0FA80F0400904E0032A04D3C2D1CEF3D2
:101F700000600028BED0012540230120636584F85D
:101F80003550BDE8F0810000B0B5044600F0E6F839
:101F9000054640F21000C2F200000078611C18BF34
:101FA000044400BF00F0DAF8401BA042FAD3B0BDF1
:101FB0002DE9F04F83B000F1200200F13E4741F6D9
:101FC0000005009207F1FF77C4F2020507224FEAED
:101FD000B726A84208BF062200254FF000084FF0A0
:101FE0000009062E38BF4FEAB72201920AE000BF6F
:101FF00009F1010908F10208B9F1100F05F1040512
:1020000000F0A2800F68012202FA09FE17EA0E0A08
:10201000EED0D1F804C003220CF003077E1E02FAB2
:1020200008F4012E6FEA040B12D88468CE6804EA23
:102030000B0406FA08F634438460446824EA0E066A
:10204000CCF3001404FA09F42643466004E000BF10
:10205000032F01D103271EE0C6688C6806EA0B0631
:1020600004FA08F42643022FC66014D16FF003026D
:10207000009E02EA590756F807C005F01C040F221B
:102080000B69A2402CEA0202A3401A43F251D1F894
:1020900004C00CF00307026807FA08F302EA0B0217
:1020A0001A431CF4403F0260A2D0002243F64403CE
:1020B0000292C4F202031A6843F6004442F48042DA
:1020C0001A601A68C4F2010402F480420292029A71
:1020D00029F003024FF6084C2244CFF6FF7C52F859
:1020E0000C3005F00C070F26BE40B343019E06FAE4
:1020F00007F73B4342F80C30A2684B6842EA0A07F4
:1021000043F60C4CDE0258BF22EA0A07A760C4F26D
:10211000010CDCF800209E0242EA0A0758BF22EABE
:102120000A07CCF8007062689E0342EA0A0758BFAB
:1021300022EA0A0767602268DB0342EA0A0758BFFF
:1021400022EA0A07276053E703B0BDE8F08F0000DA
:10215000002A08BF090481617047000048F6144056
:10216000C2F200000068704740F2100048F61441C7
:10217000C2F20000C2F2000100780A681044086050
:102180007047000080B543F60040C4F202000168C9
:1021900041F400710160016841F4806101600168EF
:1021A00041F480710160032000F0BCF80F2000F0C2
:1021B00005F800F05DF8002080BD000070B586B025
:1021C000002543F640010195C4F202010A68044665
:1021D00042F010020A60096801A801F010010191A3
:1021E0000199694600F060F9049E002E18BF01268F
:1021F00000F07AF94DF68361B040C4F21B31A0FBC8
:1022000001014FF0FF3000EB914140F2244041F2D8
:102210000002C2F20000C4F2000240F2E733C0E95B
:102220000021C0E902530561856101F013F908B18D
:1022300006B070BD40F22440C2F2000001F06EF919
:102240000028F5D1362000F02FF80F2C0CD83620BE
:102250002146002200F03AF840F214010020C2F2B8
:1022600000010C6006B070BD012006B070BD00001A
:1022700082B0002043F640010190C4F202014A6896
:1022800042F480424A604A6802F480420192019A14
:102290000090086840F080500860086800F08050A6
:1022A0000090009802B07047002848BF704700F0C7
:1022B0001F01012202FA01F11C2202EAD0004EF2B3
:1022C0000012CEF2000281507047000010B54EF6A9
:1022D0000C5CCEF2000CDCF80030C3F3022E8EF062
:1022E0000704042C28BF0424BEF103034FF0FF3E73
:1022F0000EFA04F438BF0023A14399400EFA03F309
:102300009A43114300F00F0200F160430901043ABF
:1023100003F564436244002848BF02F10C031970BE
:1023200010BD00004EF60C51CEF200010A684FF6C7
:10233000FF031A4060F30A2242F0806040F0FD7013
:1023400008607047002804BF012070472DE9F04164
:1023500043F60808C4F202080446D8F8F8030D460C
:1023600000F00F00814207D988F8F853D8F8F80335
:1023700000F00F00A84277D12068810717D54107E8
:1023800005D5D8F8001041F4E051C8F80010010755
:1023900005D5D8F8001041F46041C8F80010D8F80D
:1023A0000010A26821F0F0011143C8F80010C00726
:1023B00040D1D8F8F80300F00F00854207D288F822
:1023C000F853D8F8F80300F00F00A8424CD1206869
:1023D000410707D5D8F80010E26821F4E051114315
:1023E000C8F80010000708D5D8F80000216920F4CB
:1023F000604040EAC100C8F8000000F09DF8D8F83D
:10240000001047F6F032C1F30311C0F60002515C30
:1024100040F2180220FA01F140F21400C2F200006A
:102420000068C2F200021160FFF7C8FE0020BDE89C
:10243000F08100BF6068811E022907D258F8081C8D
:1024400089015CBF0120BDE8F08111E0012807D1BE
:1024500058F8081C89035CBF0120BDE8F08107E043
:1024600058F8081C890703D40120BDE8F08100BF9B
:10247000D8F8001021F003010843C8F80000FFF766
:102480006DFE064641F28837D8F80000616800F01A
:102490000C00B0EB810F8CD0FFF760FE801BB842C0
:1024A000F2D90320BDE8F0810F22026043F6080252
:1024B000C4F20202136803F003034360136803F0DD
:1024C000F0038360136803F4E053C360D2F800C0E4
:1024D0004FF4E05303EADC030361D2F8F80300F0A1
:1024E0000F0008607047000040F2180043F6080132
:1024F000C2F20000C4F202010068096847F6004217
:10250000C1F38221C0F60002515CC8407047000050
:1025100040F2180043F60801C2F20000C4F20201C2
:102520000068096847F60042C1F34231C0F6000274
:10253000515CC8407047000010B543F60404C4F273
:1025400002046068C0F3810142F20040C0F2F4006E
:10255000DFE801F04102082647F64000C0F27D1096
:1025600010BD00BF206821682368490247F640017A
:10257000C0F27D1100F03F02C3F388105CBF42F24D
:102580000041C0F2F401A1FB00010023FDF73EFF72
:1025900021680222C1F3014102EB410119E000BFB1
:1025A000206821682368490247F64001C0F27D1186
:1025B00000F03F02C3F388105CBF42F20041C0F25A
:1025C000F401A1FB00010023FDF720FF2168C1F306
:1025D0000271B0FBF1F010BD002804BF012070476C
:1025E0002DE9F04182B00446007843F60006C007AA
:1025F000C4F202060CD0B06800F00C00042840F0D1
:1026000089803068800303D56068002800F050811D
:102610002078800723D5B06810F00C0F11D0B06877
:1026200000F00C00082802D17068400209D5B0689B
:1026300000F00C000C2840F09F807068400200F110
:102640009B803068800703D5E068012840F0308126
:102650003068216920F0F80040EAC100306020783D
:10266000000713D4207840072AD4A569002D00F074
:102670001A81B06800F00C00082840F0AB80012DF2
:1026800040F0E880012002B0BDE8F08160690028D8
:1026900040F20000C4F2472000F088800121C0F819
:1026A000801EFFF75BFD0546706F8007DAD4FFF7E9
:1026B00055FD401B0228F7D9032002B0BDE8F08188
:1026C000306C5FEAC0080AD400200190306C40F002
:1026D00080503064306C00F080500190019847F2D7
:1026E0000007C4F200073868C00537D4386840F4E2
:1026F00080703860FFF732FD054600BF3868C005BE
:102700002CD4FFF72BFD401B0228F7D9032002B081
:10271000BDE8F081B06800F00C00082803D17068B3
:1027200040023FF56EAFB06800F00C000C2803D1FA
:10273000706840023FF565AF61683068B1F5803F71
:1027400007D0B1F5A02F40F0CB8040F4802030605E
:10275000306840F480303060CBE000BFA168306F5B
:10276000012905D0052957D140F004003067306FAA
:1027700040F00100306759E0E068002800F09C80DC
:102780000020C4F2472001210160FFF7E7FC054665
:10279000306880073FF55CAFFFF7E0FC401B022884
:1027A0004FF00300F4D902B0BDE8F0810021C0F879
:1027B000801EFFF7D3FC0546706F80077FF552AF90
:1027C000FFF7CCFC401B0228F6D9032002B0BDE87D
:1027D000F08100BF0027C4F2472700203866FFF7CA
:1027E000BDFC022D05460BD13068800140F192807E
:1027F000FFF7B4FC401B02284FF00300F4D9D2E7E6
:10280000306880014FD5FFF7A9FC401B02284FF02C
:102810000300F5D9C7E700BF20F001003067306F33
:10282000002920F00400306700F09880FFF796FC44
:10283000054641F2883700BF306F800700F1A08065
:10284000FFF78CFC401BB842F6D9032002B0BDE86C
:10285000F08100BF7068E16900F480028A4227D1EC
:10286000216A00F03F028A4222D147F6C071626AB3
:102870000140B1EB821F1BD1A16A4FF6FF73C90360
:10288000994300F44032A1F580318A4210D1E16AC7
:1028900000F07062B2EB016F0AD1216B00F0E040F2
:1028A000B0EB017F04D1002002B0BDE8F08100BF91
:1028B000012002B0BDE8F0810020C4F247200021D1
:1028C0000160FFF74BFC0546306880077FF5C7AE17
:1028D000FFF744FC401B02284FF00300F4D962E7E5
:1028E00020F4803030603068002920F4802030608F
:1028F00050D0FFF733FC0546306880033FF588AEC3
:10290000FFF72CFC401B6428F6D9032002B0BDE879
:10291000F08100BF04F11C052FCD246B084340EA71
:102920008210D9034FF6FF729143A1F5803140EA3E
:102930000560084340EA0470706001203866FFF7C4
:102940000DFC044630688001ADD4FFF707FC001B86
:1029500002284FF00300F5D925E700BFFFF7FEFB83
:10296000054641F2883700BF306F800708D5FFF772
:10297000F5FB401BB8424FF00300F5D913E700BF49
:10298000B8F1000F3FF571AE306C20F0805030642C
:102990006BE600BFFFF7E2FB054600BF306880032F
:1029A0007FF536AEFFF7DAFB401B64284FF00300DB
:1029B000F4D9F8E670B528B1416A29B10021016166
:1029C000142106E0012070BD4168B1F5827F02D07C
:1029D0001C21002242500026866290F8511029B92D
:1029E00080F85060054600F03DF82846022180F846
:1029F000511090E82E0002F482720C6803F4044334
:102A000024F040040C601A4405F4006305691A447C
:102A100005F0020345691A4405F001038569C4699C
:102A20001A4405F400731A4404F03803046A1A4483
:102A300004F08003846A1A4304F400531A430A60C2
:102A4000436A042202EA154203F010031A444A6062
:102A5000CA6922F40062CA610121466580F85110FA
:102A6000304670BD2DE9F04F87B0044643F20007B1
:102A70000068C4F201070026B8420696CDE9046654
:102A80000396029602D007B0BDE8F08F43F63000FF
:102A90000196C4F20200416902AD41F480514161E6
:102AA000416946F2104801F4805101910199019663
:102AB00001684FF0020941F00101016001684FF027
:102AC000030A01F0010101910199019601684FF09B
:102AD000050B41F0020101600068294600F0020088
:102AE00001900198C020029007F55040C4F20208FE
:102AF000CDE90396CDF814A0CDF818B0FFF758FA39
:102B00000820CDE9020904A880E8400C07F55440EC
:102B10002946FFF74DFA40F27C2508F14800C2F241
:102B200000054FF0C06A4021C5E9000A05F1080020
:102B30004FF4806980E842024FF400372846C5E927
:102B40000566EE61C5E90876FFF76CF9002818BF45
:102B5000FEF7CAFFA564AC6340F21C25C2F2000573
:102B60000020C5E90200C5E90490C5E90600C5E9F1
:102B700008702846C5E9008AFFF754F9002818BFF5
:102B8000FEF7B2FFE564AC6307B0BDE8F08F00006C
:102B90002DE9F04182B0044690F8510001281AD185
:102BA00000294FF0010018BF002A03D102B0BDE890
:102BB000F08100BF60681D461746B0F5827F03D1E3
:102BC000A068002800F0BC800E46FFF7C7FA94F812
:102BD0005010012904D1022002B0BDE8F08100BFED
:102BE0008046012084F850000420002184F8510020
:102BF0006165A663A787E7872163A186E186A2684E
:102C00002068B2F5004F2164616437D0016849063D
:102C10003FD5E168E08F002943D000287AD0681CB6
:102C20000BD11AE0C068A16B21F8020BA163E08F01
:102C30000138E087E08F00286CD020688168C907E0
:102C4000F0D1FFF78BFAA0EB0800A842F2D342E0E4
:102C5000FFF784FAE08F00285CD020688168C907FC
:102C6000F6D0C068A16B21F8020BA163E08F013898
:102C7000E087E08F0028F0D14CE000BF016821F030
:102C800040010160016821F480410160016849064A
:102C9000BFD4016841F040010160E168E08F002984
:102CA000BBD1B8B3681C0CD124E000BF007BA16B82
:102CB0000870A06B0130A063E08F0138E087E08FDF
:102CC00040B320688168C907F0D1FFF747FAA0EB4D
:102CD0000800A842F3D3012084F85100002084F8B2
:102CE0005000032002B0BDE8F08100BFFFF736FAC4
:102CF000E08F78B120688168C907F7D0007BA16BAD
:102D00000870A06B0130A063E08F0138E087E08F8E
:102D10000028EFD16068B0F5827F0ED1A068B0F5D1
:102D2000004F02D0B0F5806F16D12168B0F5806FEA
:102D30000A6822F040020A600ED1204601210DE00F
:102D4000042084F8510020460A463B46009500F0D6
:102D500059F902B0BDE8F0812046802100222B46BF
:102D6000CDF8008001F0C6FE28B1606D40F0200073
:102D7000606520206065012084F85100002084F8FF
:102D80005000606D002818BF012002B0BDE8F0813E
:102D90002DE9F04184B01D4616460F460446FFF764
:102DA000DDF994F8511001290ED18046002F4FF023
:102DB000010018BF002E03D104B0BDE8F08100BFB0
:102DC00094F85000012803D1022004B0BDE8F0813E
:102DD000012084F850000320002184F8510061652F
:102DE0002763A686E686A163A187E187A0682164A0
:102DF000B0F5004F2068616407D1016821F04001FF
:102E00000160016841F4804101600168490603D412
:102E1000016841F0400101606168731EE268B1FA27
:102E200081F1B3FA83F349095B09B2F5006F41EA16
:102E3000030139D131B137F8021BC1602763E08E3D
:102E40000138E086E08E002870D0681C0BD11AE0B3
:102E5000216B31F8022BC2602163E08E0138E086DD
:102E6000E08E002862D0206881688907F0D4FFF7DF
:102E700075F9A0EB0800A842F2D338E0FFF76EF92D
:102E8000E08E002852D0206881688907F6D5216B32
:102E900031F8022BC2602163E08E0138E086E08EBB
:102EA0000028F0D142E000BF39B139780173206BBE
:102EB00001302063E08E0138E086E08EB0B3681CFC
:102EC0000BD123E0216B09780173206B0130206363
:102ED000E08E0138E086E08E40B320688168890783
:102EE000F0D4FFF73BF9A0EB0800A842F3D3012090
:102EF00084F85100002084F85000032004B0BDE89D
:102F0000F08100BFFFF72AF9E08E78B12068816870
:102F10008907F7D5216B09780173206B0130206395
:102F2000E08E0138E086E08E0028EFD120460221B5
:102F300001222B46CDF8008001F0DCFDE0B1606D90
:102F400040F02000606520206065A06838B900204E
:102F500002902068C1680291806802900298012066
:102F600084F85100002084F85000606D002818BFDC
:102F7000012004B0BDE8F08140F21800C2F2000068
:102F8000006849F68171C1F25E61A0FB0101480D44
:102F90004FF47A71484303906068B0F5827F0BD19B
:102FA0002046802100222B46CDF8008001F0A2FDB2
:102FB0000028C4D1C9E700BF03980028C5D00398F2
:102FC00001380390206881680906BED5039900295D
:102FD000BBD003990139039181680906B5D50399DE
:102FE0000029B2D003990139039181680906ACD553
:102FF00003990029A9D0039901390391806800063B
:10300000DAD4A2E72DE9F04383B01E4615460F46F9
:103010000446FFF7A3F894F851108146012909D11D
:10302000002F4FF0010018BF002D0FD103B0BDE8F5
:10303000F08300BF6068B0F5827F0DD104294FF0A6
:103040000200F3D1A1680029EAD0EFE7002EEDD00D
:1030500094F85000012803D1022003B0BDE8F083AA
:10306000012084F8500094F85100002104281CBF6E
:10307000052084F851006165A563E687A68727636C
:10308000E6862068A686216461640168490603D447
:10309000016841F0400101606168731EE268B1FAA5
:1030A00081F1B3FA83F3DDF8288049095B09B2F5B1
:1030B000006F41EA030165D131B137F8021BC160ED
:1030C0002763E08E0138E086012518F1010032D136
:1030D00002E000BFFFF742F8E08E18B9E08F002849
:1030E00000F0B8802068816889070CD5E18E51B165
:1030F000012D08D1216B002531F8022BC26021631C
:10310000E18E0139E1868168C907E3D0E18F0029AA
:10311000E0D0C068A16B012521F8020BA163E08F0C
:103120000138E087D6E700BFFFF718F8A0EB0900E9
:10313000404580F0A580E08E18B9E08F002800F0AF
:1031400089802068816889070CD5E18E51B1012DF5
:1031500008D1216B002531F8022BC2602163E18E7A
:103160000139E1868168C907DED0E18F0029DBD013
:10317000C068A16B012521F8020BA163E08F013823
:10318000E087D1E739B139780173206B01302063D2
:10319000E08E0138E086012518F1010032D101E00E
:1031A000FEF7DCFFE08E10B9E08F002852D02068D7
:1031B000816889070ED5E18E61B1012D0AD1216B9D
:1031C000002509780173216B206801312163E18EAC
:1031D0000139E1868168C907E2D0E18F0029DFD09B
:1031E000C068A16B01250870A06B0130A063E08F5F
:1031F0000138E087D4E700BFFEF7B0FFA0EB09007D
:1032000040453DD2E08E08B9E08F18B32068816850
:1032100089070ED5E18E61B1012D0AD1216B002500
:1032200009780173216B206801312163E18E013936
:10323000E1868168C907DFD0E18F0029DCD0C06852
:10324000A16B01250870A06B0130A063E08F0138ED
:10325000E087D1E72046022101224346CDF80090C5
:1032600001F048FCB0B1606D40F0200060652020A6
:103270006065002084F85000012003B0BDE8F083B1
:10328000012084F85100002084F85000032003B08E
:10329000BDE8F08340F21800C2F20000006849F671
:1032A0008171C1F25E61A0FB0101480D4FF47A719A
:1032B000484302906068B0F5827F0BD120468021A0
:1032C00000224346CDF8009001F014FC0028CAD13A
:1032D00021E000BF0298F0B1029801380290206806
:1032E0008168090617D50299A9B10299013902919D
:1032F000816809060FD5029969B1029901390291D5
:103300008168090607D5029929B10299013902910C
:1033100080680006DED4A06838B9002001902068DB
:10332000C1680191806801900198012084F85100E2
:10333000002084F85000606D002818BF012003B001
:10334000BDE8F083704700007047000090F83C2013
:10335000012A04BF02207047B0B501F108053CCD39
:10336000D1E900CE23F47C5322F470521A432EF498
:10337000F0431A432CF4E0431A4324F4C0431A43A5
:103380002A43C96922F48042036811435964002129
:1033900080F83C100020B0BD90F83C20012A4FF08E
:1033A000020254D010B580F83D200268D2F804E043
:1033B000D2F808C00C682EF07003234341F2FF746A
:1033C000C4F20004A24253600EDC40F2FF73C4F268
:1033D00000039A4216DCB2F1804F2BD040F200433A
:1033E000C4F2000324E000BF40F2FF33C4F2010343
:1033F0009A4213DC41F60003C4F200039A4219D04A
:10340000002313E040F60003C4F200039A4211D0F7
:1034100040F60043C4F200030AE000BF44F2000398
:10342000C4F201039A4205D040F20043C4F2010302
:103430009A4204D149682CF080031943916001211C
:10344000002280F83D1080F83C20BDE81040104676
:1034500070470000002804BF0120704710B50446E3
:1034600090F83D0028B9002084F83C00204600F088
:103470001FF8022084F83D002068211D01F036FC71
:10348000012084F8460084F83E0084F83F0084F868
:10349000400084F8410084F8420084F8430084F836
:1034A000440084F8450084F83D00002010BD000071
:1034B00080B582B00068B0F1804F15D00021C4F211
:1034C000010188420ED10020019043F64000C4F271
:1034D0000200416841F001014160406800F00100D4
:1034E0000190019802B080BD0020009043F640009A
:1034F000C4F202000168002241F00101016000688D
:10350000052100F00100009000981C20FEF7DEFE6F
:103510001C2002B0BDE88040FEF7C6BE90F83D100A
:1035200001291CBF01207047022180F83D1000686E
:1035300041F2FF72C168C4F20002904241F0010101
:10354000C1600DDC40F2FF71C4F20001884215DC5D
:10355000B0F1804F2AD040F20041C4F2000123E0D4
:1035600040F2FF31C4F20101884213DC41F6000150
:10357000C4F20001884219D0002113E040F6000196
:10358000C4F20001884211D040F60041C4F20001AB
:103590000AE000BF44F20001C4F20101884205D0F4
:1035A00040F20041C4F20101884206D1816801F075
:1035B0000701062904BF00207047016841F001019E
:1035C000016000207047000090F83C20012A4FF075
:1035D00002026CD080B580F83D20D0F800C04FF6D4
:1035E0007772DCF8083023EA0202CCF808200B6876
:1035F0004F2B29DC1F2B45DD202B46D0302B44D010
:10360000402B40F0AF80D1F804E0C968DCF82030EE
:10361000DCF8202022F00102CCF82020DCF8182071
:1036200022F0F00242EA011123F00A0242EA0E02FD
:10363000CCF81810CCF82020DCF8081041F0470135
:1036400021F0300128E000BF6F2B33DDB3F5005FC0
:1036500074D0B3F5805F21D0702B40F08380D1E926
:1036600001E3C968DCF8082043EA0E0322F47F4234
:1036700043EA01211143CCF80810DCF8081041F0AE
:10368000770109E00BB1102B6CD1DCF8081021F0A8
:103690007001194341F00701CCF808100022012104
:1036A00080F83D10002180F83C10BDE880401046B5
:1036B000704700BF502B21D0602B53D1D1F804E0CC
:1036C000C968DCF82030DCF8202022F01002CCF8A9
:1036D0002020DCF8182022F4704242EA013123F065
:1036E000A00242EA0E12CCF81810CCF82020DCF828
:1036F000081041F0670121F01001CDE7D1F804E096
:10370000C968DCF82030DCF8202022F00102CCF877
:103710002020DCF8182022F0F00242EA011123F008
:103720000A0242EA0E02CCF81810CCF82020DCF88D
:10373000081041F0570121F02001ADE7D1E901E384
:10374000C968DCF8082043EA0E0322F47F4243EA0A
:1037500001211143CCF80810DCF8081041F4804135
:103760009AE700BF01229AE77047000070B504464F
:103770000068C5680669B10716D515F0020113D0B7
:103780006FF002010161012121778069800703D078
:103790002046FFF7E9FF05E0204600F08FF82046BD
:1037A00000F0CEF900202077700719D515F004003D
:1037B00016D020686FF00401016102212177806931
:1037C00010F4407F04D02046FFF7CEFF06E000BF94
:1037D000204600F073F8204600F0B2F90020207770
:1037E000300717D515F0080014D020686FF00801D5
:1037F000016104212177C069800703D02046FFF7CB
:10380000B3FF05E0204600F059F8204600F098F993
:1038100000202077F00619D515F0100016D020688A
:103820006FF01001016108212177C06910F4407F19
:1038300004D02046FFF798FF06E000BF204600F0C6
:103840003DF8204600F07CF900202077F00718BFF3
:1038500015F0010002D1300609D412E020686FF0A3
:1038600001010161204600F06DF9300609D515F01F
:10387000800006D020686FF0800101612046FFF7CC
:1038800061FD700609D515F0400006D020686FF084
:1038900040010161204600F05FF9B00658BF70BDDD
:1038A00015F0200008D021686FF0200220460A6140
:1038B000BDE87040FFF748BD70BD000070470000D4
:1038C00090F83C30012B04BF022070474FEAB2024F
:1038D000032A00F2FF802DE9F043DFE802F003B194
:1038E0003F7F00BF036840F200461C6A1A6A24F05A
:1038F000020422F001021A621A46D3F804C052F8F8
:1039000018EF8F6843F48065C4F20106B54244EABB
:10391000070405D1CF6824F00C0427F004073C43CA
:103920000F68B54206D1D1E905582CF440762E43F4
:1039300046EA080C2EF073063743C3F804C09F61B3
:103940004F6809695F631C629F6947F008079F61C0
:103950009F6927F004079F61B1E000BF036840F250
:1039600000481C6A1A6A24F4007422F480721A62F5
:103970001A46D3F804C052F81CEF8F6843F48065F0
:10398000C4F20108454544EA072408D1CF6840F253
:10399000FF463F0224F4406427EA06063443D1F888
:1039A0000090454506D1D1E905562CF440572E43E9
:1039B00047EA061C2EF0730747EA0907C3F804C05C
:1039C000DF614F680969DF631C62DF6947F0080740
:1039D000DF61DF6927F00407DF6170E0036840F210
:1039E0000045D3F820C01A6A43F4806722F480525D
:1039F0001A621A465C6852F81C8FD1F800E08E6893
:103A0000C4F20105AF4204D14D6924F4804444EA74
:103A100085142CF4005747EA063728F4E64646EAB0
:103A20000E265C60DE614E6809691E641F62DF69F4
:103A300047F40067DF61DF6927F48067DF613DE0FD
:103A4000036840F200481C6A1A6A24F0200422F03D
:103A500010021A621A46D3F804C052F818EF8F68A1
:103A600043F48065C4F20108454544EA071407D1D0
:103A7000CF686FF0400624F0C00406EA071634430E
:103A8000D1F80090454506D1D1E905562CF44067A0
:103A90002E4347EA860C2EF4E64747EA0927C3F887
:103AA00004C09F614F6809699F631C629F6947F466
:103AB00000679F619F6927F480679F61090213680F
:103AC000194311600021BDE8F043002280F83C203A
:103AD000084670470121002280F83C2008467047C4
:103AE000002804BF0120704710B5044690F83D003F
:103AF00028B9002084F83C00204600F01FF802207E
:103B000084F83D002068211D01F0F0F8012084F8C0
:103B1000460084F83E0084F83F0084F8400084F8B2
:103B2000410084F8420084F8430084F8440084F89B
:103B3000450084F83D00002010BD000070470000E3
:103B400070470000006841F20001C4F200018842A1
:103B500018BF7047FEF708BB7047000070470000B1
:103B600070470000B0B582B001680A68CC684B6944
:103B700002F02F05202D04F0200505D125B102B05B
:103B8000BDE8B04001F056B95FEA027C1EBF03F009
:103B9000010E04F4907313EB0E0341D1036BD506B1
:103BA00018D5012B16D114F0100313D00022019266
:103BB0000A6801924A680192019A496949064BD400
:103BC000818DC28DC38D002B18BF914240F00682BB
:103BD00002B0B0BD13062DD514F080032AD090F8A2
:103BE0004120212AF4D18268B2F5805F03D10269B5
:103BF000002A00F07982026A531C036212784A603C
:103C0000C28C013A1304C284E2D1C86820F080005B
:103C1000C860C86840F04000C86002B0B0BD00BFD6
:103C2000D30718BF14F4807340F0E280530700F10B
:103C3000E580EAE05206CBD514F04002C8D0CA684D
:103C400022F04002CA60202180F8411002B0BDE895
:103C5000B04000F0ADBB00BFC26B11684B68858DF2
:103C600099B2002900F0B480A94280F0B180C385E8
:103C7000D169B1F5807F00F0A080016851E8031F91
:103C8000026821F4807142E80313DBB1016851E856
:103C9000031F026821F4807142E8031393B10168A5
:103CA00051E8031F026821F4807142E803134BB10D
:103CB000016851E8031F026821F4807142E8031390
:103CC000002BDAD1016851E8051F026821F00101DB
:103CD00042E80513BBB3016851E8051F026821F0F3
:103CE000010142E8051373B3016851E8051F02683A
:103CF00021F0010142E805132BB3016851E8051FCB
:103D0000026821F0010142E80513002BDAD11AE024
:103D1000016851E8051F026821F0400142E80513DF
:103D2000DBB1016851E8051F026821F0400142E85B
:103D3000051393B1016851E8051F026821F04001A5
:103D400042E805134BB1016851E8051F026821F0F4
:103D5000400142E80513002BDAD1202180F84210FF
:103D600000210163016851E8031F026821F010017E
:103D700042E80313DBB1016851E8031F026821F038
:103D8000100142E8031393B1016851E8031F026870
:103D900021F0100142E803134BB1016851E8031F01
:103DA000026821F0100142E80313002BDAD1C16B45
:103DB00004460846FDF7FAFE204602214163818D44
:103DC000C28D891A89B202B0BDE8B040FFF7C6BE05
:103DD0008D427FF4FDAED269B2F5807F7FF4F8AEFC
:103DE0000222426302B0BDE8B040FFF7B7BE00BF99
:103DF000436C43F001034364530706D5BEF1000F43
:103E000003D0436C43F002034364930706D5BEF12D
:103E1000000F03D0436C43F004034364BCF1000F74
:103E200006D55EEA050303D0436C43F00803436400
:103E3000436C002B3FF4CCAE920605D525B1044669
:103E400000F0F8FF216820464969426C01F040010A
:103E500002F00802891800F0B98000BF016851E83B
:103E6000031F026821F4907142E80313BBB3016899
:103E700051E8031F026821F4907142E8031373B301
:103E8000016851E8031F026821F4907142E80313AE
:103E90002BB3016851E8031F026821F4907142E8D6
:103EA0000313002BDAD11AE0016851E8051F0268FC
:103EB00021F0010142E80513DBB1016851E8051F5B
:103EC000026821F0010142E8051393B1016851E84D
:103ED000051F026821F0010142E805134BB101689A
:103EE00051E8051F026821F0010142E80513002B8B
:103EF000DAD1016B012924D1016851E8031F02685E
:103F000021F0100142E80313DBB1016851E8031FFF
:103F1000026821F0100142E8031393B1016851E8EF
:103F2000031F026821F0100142E803134BB101683E
:103F300051E8031F026821F0100142E80313002B2F
:103F4000DAD1202180F8421000210163016849691B
:103F5000490640F1C380016851E8051F026821F05D
:103F6000400142E80513DBB1016851E8051F026812
:103F700021F0400142E8051393B1016851E8051FA3
:103F8000026821F0400142E805134BB1016851E895
:103F9000051F026821F0400142E80513002BDAD129
:103FA000C16B002900F09A8044F62962C0F6000235
:103FB000044608460A65FDF741FE00283FF408AEB6
:103FC000E06B016D02B0BDE8B04008470446FFF762
:103FD000C7FD0020606402B0B0BD00BF891A00BFF9
:103FE000026852E8032F036822F4907243E8032525
:103FF000BDB3026852E8032F036822F4907243E8CD
:10400000032575B3026852E8032F036822F4907207
:1040100043E803252DB3026852E8032F036822F416
:10402000907243E80325002DDAD11AE0026852E8C5
:10403000052F036822F0010243E80525DDB102687F
:1040400052E8052F036822F0010243E8052595B1E7
:10405000026852E8052F036822F0010243E80525B3
:104060004DB1026852E8052F036822F0010243E8CF
:104070000525002DDAD1202280F84220002202639B
:10408000026852E8032F036822F0100243E8032578
:10409000DDB1026852E8032F036822F0100243E802
:1040A000032595B1026852E8032F036822F010023D
:1040B00043E803254DB1026852E8032F036822F05C
:1040C000100243E80325002DDAD1022289B24263AF
:1040D00002B0BDE8B040FFF741BD00BF02B0BDE88F
:1040E000B040FFF73DBD00BF026A32F8023B6FF3FC
:1040F0005F234B60026283E5002804BF0120704704
:1041000010B5044690F8410028B9002084F840001A
:10411000204600F021F8242084F841002068C1687E
:1041200021F40051C160204600F004FF20680169BD
:1041300021F490410161416921F02A014161C16886
:1041400041F40051C16000202021606484F84110D6
:1041500084F84210606310BD70B586B0044644F226
:1041600000402168C4F20000002681420596CDE996
:1041700003660296019601D006B070BD43F6300189
:104180000096C4F202010A6900F5DE3042F4003202
:104190000A610A6902F400320092009A00960A68E5
:1041A00042F001020A60096801F0010100910099E2
:1041B0000C2101910221CDE902160321049107216E
:1041C000059101A9FDF7F4FE40F2DC2546F2A000BE
:1041D000C2F20005C4F202004FF0006140224FF429
:1041E000806385E847002846C5E90436C5E90666C8
:1041F000C5E90866FDF716FE002818BFFDF774FC38
:10420000262002210022A563AC63FEF75FF826207A
:10421000FEF74AF806B070BD704700002DE9F04384
:1042200081B0044690F84100202809D100294FF0C0
:10423000010018BF002A07D101B0BDE8F08300BF1C
:10424000022001B0BDE8F0830020606421201D46FB
:104250000E4684F841001746FDF780FFA784E784E7
:10426000A1688146B1F5805F02D1206900285DD048
:1042700037460020E28C2168002A5DD06A1C24D0D9
:10428000002D4AD0804600BF0868000608D4FDF71C
:1042900065FFA0EB0900A8427AD82168C868F3E757
:1042A00017B117F8010B04E038F8020B00276FF381
:1042B0005F204860E08C0138E084E08C0028E3D186
:1042C0003AE000BF0A68120609D40A68120606D44A
:1042D0000A6812065CBF0A685FEA0262F2D51FB183
:1042E00017F8012B05E000BF30F8022B00276FF311
:1042F0005F224A60E28C013AE284E28C002AE4D137
:104300001AE000BF30F8022B00276FF35F224A60EB
:10431000E28C013AE284E28C72B10A68120635D569
:10432000002FEFD017F8012BF1E700BF0027304630
:10433000E28C2168002AA1D1086840061ED42DB362
:10434000681C14D1086840062AD40868400627D49F
:104350000868400624D4086840064FF00000F1D5F4
:104360000DE000BF2068C1680068400618D4FDF762
:10437000F5FEA0EB0900A842F4D909E000202021B5
:1043800084F8411001B0BDE8F08300BFFDF7E6FE00
:104390000320202184F8411001B0BDE8F08300BF64
:1043A0000020202184F8411001B0BDE8F083000016
:1043B00070470000FEE70000B0B582B040F2004454
:1043C000C4F20204204640210122FDF7C1FE022072
:1043D000FDF7DAFD44F27000ADF8050020464021FB
:1043E0000022FDF7B5FE40F23C35C2F200050DF1AA
:1043F0000501284602220523FEF7CAFC204640217B
:104400000122FDF7A5FE0120FDF7BEFD48F26B007D
:10441000ADF80500204640210022FDF799FE0DF180
:104420000501284602220523FEF7B2FC2046402162
:104430000122FDF78DFE6420FDF7A6FD40F26B1012
:10444000ADF80500204640210022FDF781FE0DF168
:104450000501284602220523FEF79AFC204640214A
:104460000122FDF775FE0220FDF78EFD6C20ADF8F0
:104470000500204640210022FDF76AFE0DF10501EE
:10448000284602220523FEF783FC20464021012214
:10449000FDF75EFE40F21A30ADF8050020464021DF
:1044A0000022FDF755FE0DF10501284602220523E5
:1044B000FEF76EFC204640210122FDF749FE41F641
:1044C0001B00ADF80500204640210022FDF740FE0C
:1044D0000DF10501284602220523FEF759FC20466E
:1044E00040210122FDF734FE41F61C00ADF8050025
:1044F000204640210022FDF72BFE0DF10501284644
:1045000002220523FEF744FC204640210122FDF74C
:104510001FFE40F61D10ADF8050020464021002288
:10452000FDF716FE0DF10501284602220523FEF7D0
:104530002FFC204640210122FDF70AFE1920ADF88C
:104540000500204640210022FDF702FE0DF1050185
:10455000284602220523FEF71BFC204640210122AB
:10456000FDF7F6FDFF208DF80700F5208DF805001A
:10457000204640210022FDF7EBFD0DF10501284604
:1045800001220523FEF704FC48B940F23C30C2F298
:1045900000000DF1070101220523FEF7F9FA20467C
:1045A00040210122FDF7D4FD9DF80700123818BF05
:1045B000012002B0B0BD0000002804BF01207047F8
:1045C00070B584B040F200440646C4F20204BB2039
:1045D0008DF80F00204640210022FDF7B9FD40F282
:1045E0003C30C2F200000DF10F0101220523FEF75D
:1045F000CFFB48B10546204640210122FDF7A8FD2A
:10460000284604B070BD00BF40F23C30C2F200004A
:104610000DF101010E220523FEF7BAFA05462046E8
:1046200040210122FDF794FD2846002DE9D1BDF877
:104630000100BDF8031000BA000C308008BABDF8C4
:104640000510000C708008BABDF80710000CB0808F
:1046500008BABDF80910000CB08108BABDF80B10FB
:10466000000CF08008BABDF80D10000C308108BABB
:10467000000C7081002004B070BD000080B5B0F95E
:104680000020B0F9063000EE102AB0F9082001EE43
:10469000103A03EE102AB0F90A209FED1E2A04EE0C
:1046A000102AB8EEC11AB8EEC33AB8EEC44A81EE89
:1046B000021A83EE023A84EE022A9FED154AB0F9FF
:1046C00002E0B8EEC00A20EE040A81ED000A00EE16
:1046D00010EAB0F904C0B8EEC00A20EE040A81ED79
:1046E000010A00EE10CAB8EEC00AB0F90C0020EEC4
:1046F000040A81ED020A00EE100AB8EEC00A81ED4C
:10470000031A81ED043A81ED052A81ED060A80BD88
:104710000000003A3333834180B582B0002043F675
:1047200030010190C4F202010A6842F400120A60EA
:104730000A6802F400120192019A009008680022AF
:1047400040F4800008600868002100F480000090B8
:1047500000981120FDF7BAFD1120FDF7A5FD3820C6
:1047600007210022FDF7B2FD3820FDF79DFD3B201B
:1047700007210022FDF7AAFD3B2002B0BDE88040E2
:10478000FDF792BD2DE9F04786B0002743F63000D3
:104790000597CDE90377CDE901770097C4F20200D0
:1047A0000168002541F0010101600168C4F20205C1
:1047B00001F001010091009900970168012241F088
:1047C000040101600168202601F0040100910099B4
:1047D000009701684FF0010841F002010160006894
:1047E000202100F00200009000982846FDF7B0FC60
:1047F00005F580642046402101224FF04009FDF775
:10480000A7FCCDE9016801AE4FF0030A2846314606
:104810000397CDF810A0FDF7CBFB102001904FF4CB
:104820008810CDE9020705F500603146FDF7C0FBB1
:1048300020463146CDE90198CDE9037AFDF7B8FB72
:1048400006B0BDE8F087000080B540F23C3043F28E
:104850000001C2F20000C4F201014FF48272002391
:1048600080E80E0000F114014FF4007C4FF0100EB0
:1048700081E808500A21C0E90333C0E90833C0E9E0
:104880000A31FEF797F8002808BF80BDBDE88040D8
:10489000FDF72AB970B59CB0002540F29430C4F2FF
:1048A00001050021C2F20000A72244F61F63802602
:1048B0001591CDE913111191CDE90F11CDE90D112C
:1048C000CDE90B11CDE90911CDE90711CDE90511AC
:1048D000CDE90311CDE90111C0E90052C0E902138D
:1048E000C0E904118661FEF7B5FD002818BFFDF789
:1048F000FBF84FF48050129040F29430C2F2000066
:1049000012A9FEF761FE002818BFFDF7EDF840F28E
:104910009430C2F20000FFF7E3F8002818BFFDF75B
:10492000E3F840F294300024C2F2000010A9CDE96F
:104930001044FEF731FD002818BFFDF7D5F86020C0
:10494000099040F2DC50CDE90A0440F29430C2F202
:10495000000009A90022CDE90C44CDE90E44FEF780
:10496000AFFF002818BFFDF7BFF840F29430C2F245
:10497000000009A90422FEF7A3FF002818BFFDF7D5
:10498000B3F840F29430C2F2000009A90822FEF701
:1049900097FF002818BFFDF7A7F840F29430C2F245
:1049A000000009A90C22FEF78BFF002818BFFDF7B5
:1049B0009BF840F294344FF40050C2F200040026F9
:1049C000069001A920460596CDE90366CDE901666A
:1049D0000896FEF7BBFC002818BFFDF785F8206895
:1049E0001B96A842CDE919661896179602D01CB0FE
:1049F00070BD00BF002043F630011690C4F20201E2
:104A00000A6842F001020A60096801F0010116918A
:104A100016994FF4706117910221CDE91810032007
:104A20001A9001201B9005F5803017A9FDF7C0FAF8
:104A30001CB070BD80B586B040F2DC300021C2F2FF
:104A400000004FF08042532340F2E73C0591CDE94E
:104A50000311CDE90011C0E90023C0E9021C016186
:104A60008161FEF7F7FC002818BFFDF73DF84FF411
:104A70008050029040F2DC30C2F2000002A9FEF742
:104A8000A3FD002818BFFDF72FF840F2DC30C2F27A
:104A900000006946FEF780FC002818BFFDF724F8E7
:104AA00006B080BD80B540F26C4044F20041C2F2D5
:104AB0000000C4F2000100234FF00C0C4FF4E1326F
:104AC00080E80E00C0E90333C0E905C3C361FFF706
:104AD00013FB002808BF80BDBDE88040FDF704B887
:104AE000FEE70000FEE700004EF21000CEF20000EC
:104AF000006870472DE9F04381B0089C9846154640
:104B00000E468146FDF72AFB201A00EB0804FDF74C
:104B100025FB40F21801C2F200010968C1F3CB3154
:104B200061430091D9F800108A683240921BB2FAB2
:104B300082F25209954203D1002001B0BDE8F08312
:104B4000074618F101000ED130E000BF009801388F
:104B50000090D9F8000080683040801BB0FA80F0E7
:104B600040098542E8D0FDF7F9FAC01BA04227D2E0
:104B700000980028EAD10024EBE700BF88683040A5
:104B8000801BB0FA80F040098542D5D0886830405B
:104B9000801BB0FA80F040098542CDD08868304053
:104BA000801BB0FA80F040098542C5D0886830404B
:104BB000801BB0FA80F040098542DFD1BCE700BF1E
:104BC000D9E900014268B1F5827F22F0E00242603B
:104BD0000BD1D9F80810B1F5004F02D0B1F5806FB4
:104BE00003D1016821F040010160D9F82810B1F526
:104BF000005F07D1016821F400510160016841F4B0
:104C000000510160012089F85100002089F850000E
:104C1000032001B0BDE8F08370B594B007AC204626
:104C20003421FBF716FE002543F640000695CDE93A
:104C30000455CDE902550195C4F20200016802262F
:104C400041F080510160006800F0805001900198AF
:104C500047F200000195C4F20000016841F44041B0
:104C60000160006800F440400190019801200A9022
:104C700010200B9008200F90A820CDE910062046A8
:104C80000796CDE90D65CDE91266FDF7A5FC18B1D3
:104C900072B600BFFEE700BF0F20CDE902064FF459
:104CA000A05005904FF48050069002A8052104956D
:104CB000FDF748FB10B172B6FEE700BF14B070BD3F
:104CC0004EF68850CEF20000016841F47001016098
:104CD0007047000040F2DC30C2F20000FEF746BD33
:104CE00040F22440C2F20000FEF740BDB0B540F6ED
:104CF000FF3E0568C4F2000E40F2004C7045C4F25D
:104D0000010C25DCB0F1804F2FD040F20043C4F2FB
:104D10000003984229D040F60003C4F200039842F1
:104D200023D041F6FF73C4F20003984228DC70459B
:104D30003ADCB0F1804F5BD040F20043C4F2000394
:104D4000984255D040F60003C4F200034EE000BF85
:104D500040F60043C4F20003984206D0604504D0F8
:104D60000023C4F201039842DBD14B6825F07002A6
:104D700043EA020541F6FF73C4F200039842D6DD10
:104D800043F6FF73C4F2010398421FDC42F20003B2
:104D9000C4F2000398422BD00023C4F201039842CE
:104DA00026D0604524D028E040F60043C4F200033A
:104DB00098421DD041F60003C4F20003984217D078
:104DC00041F60043C4F2000310E000BF44F20003C8
:104DD000C4F2010398420BD044F60003C4F201036D
:104DE000984205D044F20043C4F20103984204D132
:104DF000CB6825F4407243EA02050A688C684B6967
:104E0000C46240F480648262644504BF096901633E
:104E1000026825F0800142F0040219430260012279
:104E200042610160B0BD0000806B0021C185FEF7CA
:104E300097BE000081B090F84210222921D18368EA
:104E40000246B3F5805F09D152F8281F52F8183C8A
:104E5000002B63D003685B680AE000BF52F8281F8C
:104E600013B90369002BF5D003685B6803F07F0377
:104E70000B70116801311160C18D01390A04C185BF
:104E800002D001B0704700BF0168CA6822F020025A
:104E9000CA60CA6822F48072CA604A6922F00102BC
:104EA0004A61202180F8421000214163026B012AEF
:104EB0003CD10163016851E8031F026821F0100131
:104EC00042E80313DBB1016851E8031F026821F0D7
:104ED000100142E8031393B1016851E8031F02680F
:104EE00021F0100142E803134BB1016851E8031FA0
:104EF000026821F0100142E80313002BDAD10168A7
:104F00000A68D20606D5002200920A680092496813
:104F100000910099818D01B0FEF720BE02685268B1
:104F20006FF35F2221F8022B8162A5E701B0FFF742
:104F300073B90000B0B50446006804F108030ECB55
:104F40000569194325F440552A4302616269E36902
:104F50001143C268194349F20C639A431143C1607B
:104F60004169A26921F4407141F20043114340F4C8
:104F70008062C4F201039A42416103D1FDF7C8FA8D
:104F800002E000BFFDF7B0FAE1694FF69C75636877
:104F90001922C0F6FF75B1F5004FA0FB02011FD129
:104FA0005A00DB0FFBF732FA48F21F51C5F2EB1142
:104FB000A0FB01235A0905F1805302FB03003223B1
:104FC00003EBC000A0FB01014FF4F87000EA1110E0
:104FD00000EB0210C1F34211084421688860B0BDA3
:104FE0009A009B0FFBF712FA48F21F51C5F2EB1122
:104FF000A0FB01235A0902FB0500322303EB00103A
:10500000A0FB0101F02000EA511000EB0210C1F3F7
:105010004311084421688860B0BD000040F26C4034
:10502000C2F20000FEF79EBDFEE7000010B548F694
:105030001044C2F20004207848B900F05BF902285D
:1050400002DB0120207002E0207801282CD101F041
:1050500075FB48F2F842C2F20002136801469BB1A8
:105060008B4212D05068D8B188421FD09068F8B1F6
:1050700088421ED0D068F8B188421ED00420042493
:1050800000F0B0FA02E000BF1160002448F20851BD
:1050900004EB4400C2F2000101EB401010BD00BF60
:1050A00051600124F2E700BF0424EFE70124EDE79B
:1050B00091600224EAE700BFD1600324E6E7000024
:1050C000B0B548F61045C2F200052978044689B902
:1050D00000F010F9022809DB0120287020684FF049
:1050E000FF31BDE8B04000F001BA00BF28780128C8
:1050F00018BFB0BD20684FF0FF31BDE8B04000F0F0
:10510000F5B90000006800F00FBA000010B50446C1
:10511000002000F027FA002820601CBF012010BDED
:105120000520214600F05EFA002010BDB0B548F61B
:105130001045C2F200052978044679B900F0DAF882
:10514000022807DB012028702068BDE8B04000F08D
:1051500027BA00BF2878012818BFB0BD2068BDE875
:10516000B04000F01DBA000000F0E2B810B582B007
:1051700004468DF8070040F26C40C2F200000DF1C9
:10518000070101224FF0FF33FFF748F8204602B035
:1051900010BD000096B0FCF7F5FFFFF73DFDFFF7EF
:1051A000F1FAFFF7B9FAFFF74FFBFFF77BFCFFF7C8
:1051B00071FBFFF73FFC40F20040C4F202004021C7
:1051C0000122FCF7C5FF0220FCF7DEFE29A0FBF759
:1051D00091FAFFF7F1F818B12AA0FBF78BFA03E078
:1051E0002BA01221FBF78AF9FCF7B8FF04460DF15A
:1051F0004A0B0FF2B80A03E05046FBF77BFA00BFF8
:10520000FCF7ACFF001B0A28FAD358460A34FFF714
:10521000D3F90028F0D158460BA9FFF72FFA0DF16A
:105220002C0999E8210302F0A1FB074628460E4607
:1052300002F09CFB41EC180B404602F097FB41EC5E
:10524000190B484602F092FB41EC1A0B0F9802F042
:105250008DFB41EC1B0B109802F088FB41EC100B0E
:1052600016A03A4633468DEC088B8DED080BFBF704
:1052700045F9C5E75374617274696E6720494D55ED
:105280000D000000494D55206661696C65640D0094
:10529000494D5520696E6974206F6B212057414933
:1052A0003A203078253032580D0A0000494D5520FB
:1052B00072656164206572726F720D00415B675D9B
:1052C0003D5B25302E33662C25302E33662C253061
:1052D0002E33665D2020475B6470735D3D5B253631
:1052E0002E31662C25362E31662C25362E31665D04
:1052F0000D0A0000EFF3058048B9EFF3108030B9D4
:10530000EFF3118018B9EFF31480C0070AD110B57C
:1053100040F21C00C2F20000047A2046FCF7F0FBC9
:10532000204610BD46F2717CC0F6000C00DF7047CD
:1053300080B500F055F9FCF7E5FBEFF3058028B9DF
:10534000EFF3108010B9EFF3118038B16FF0050062
:10535000FCF7D2FB6FF0050080BD00BF46F2897CF0
:10536000C0F6000C00DF80BDF0B581B01F461646C8
:105370000C460546FCF7DCFBEFF3058030B9EFF394
:10538000108018B9EFF3118000284FD0002D2DD0D8
:10539000002F2BD1002C29D02878FA2826D105F10E
:1053A000280050E8001F11B9BFF32F8F04E04A1EF8
:1053B00040E8002303B1F4E771B1EF6A67B101205F
:1053C000B91CD1E84F2FC1E8430F03B1F9E711062B
:1053D00016D0BF68002FF3D128462146FCF7B4FB56
:1053E0006FF00204204601B0F0BD00BF28466FF008
:1053F00003016FF00304FCF799FB204601B0F0BDF8
:105400006A6A07F10C012046FBF78AF9002E1CBFDF
:10541000F87830703846FD6000F036FC28462146AA
:10542000FCF79AFB0024204601B0F0BD46F6E90CDB
:105430002846C0F6000C214632463B4600DF01B04C
:10544000F0BD00002DE9F0411F4690460C46054690
:10545000FCF77CFBEFF3058028B9EFF3108010B95F
:10546000EFF31180B0B31DB317BB0CB32878FA2843
:105470001ED105F10C0000F095F918B36A6A00F12D
:105480000C01064608462146FBF74AF9F920307020
:1054900000273046B77086F80380C6E9014500F062
:1054A000F3FB28462146FCF749FB3846BDE8F0816E
:1054B00028466FF003016FF00307FCF737FB38460F
:1054C000BDE8F08128462146FCF73CFB6FF0020066
:1054D000BDE8F08146F6514C2846C0F6000C214646
:1054E00042463B4600DFBDE8F0810000B0B50D4606
:1054F0000446FCF733FBEFF3058028B9EFF3108087
:1055000010B9EFF3118038B120466FF00501FCF7B8
:1055100033FB6FF00500B0BD46F6F55C2046C0F6E3
:10552000000C294600DFB0BD10B50446FCF720FB97
:10553000EFF3058028B9EFF3108010B9EFF3118075
:1055400040B120466FF00501FCF716FB6FF0050037
:1055500010BD00BF46F6DD6C2046C0F6000C00DF33
:1055600010BD000010B50446FCF708FBEFF3058002
:1055700028B9EFF3108010B9EFF3118040B100208B
:105580006FF005010024FCF7F7FA204610BD00BFBC
:1055900046F6B17C2046C0F6000C00DF10BD0000CE
:1055A00010B50446FCF7EEFAEFF3058028B9EFF3E7
:1055B000108010B9EFF3118040B120466FF0050163
:1055C000FCF7DAFA6FF0050010BD00BF47F2590C86
:1055D0002046C0F6000C00DF10BD0000FEE7000012
:1055E00070470000B0B50C460546FCF787FA284620
:1055F0002146BDE8B040FFF7F1BF00002DE9F041C2
:10560000002818BF002907D100230024FCF77EFAE8
:105610002046BDE8F08100BF042AF5D2034601F11F
:105620000F0653F8085F26F0070C5C6824F00306A9
:105630001E44AE1B664521D22B68002BE4D06C685B
:1056400024F003062E449E1B664519D21D68002DCA
:10565000DAD05C6824F003061E44AE1B66450DD20A
:105660002B68002BD0D06C6824F003062E449E1BC0
:10567000664505D21D68002DD7D1C5E7AE4601E0CD
:105680009E462B46D0E90058461956F8047C08EB94
:105690000C05AF42456003D2A6F1080465605C6862
:1056A00054B124F00304E51844F803E04CEA02077F
:1056B0001D602B466F6002E04CEA02075F6003F159
:1056C00008042346FCF722FA2046BDE8F0810000DA
:1056D00010B5002818BF002906D100220024FCF7CD
:1056E0001DFA204610BD00BFA1F1080300F1080417
:1056F000A34215D02268002AEFD09A421AD014682B
:10570000002CEAD09C4219D02268002AE5D09A42A7
:1057100010D01468002CE0D09C429446EAD10EE0F0
:10572000C268436822F003029A1A42600022C260F3
:105730000EE000BFA446144601E000BF9446D4E941
:105740000023446823F00303E31A4360CCF80020ED
:1057500001220124FCF7E2F9204610BD10B5D8B1B2
:1057600010F0070218D1182916D311F0070213D12F
:105770000B18A3F108048460002443F8084C8368E4
:10578000102242605A60C460012201240160FCF7CB
:10579000C7F9204610BD00BF00220024FCF7C0F965
:1057A000204610BDB0B500281AD000F1140151E810
:1057B000004F14B9BFF32F8F04E0226841E80023A3
:1057C00003B1F4E73CB1011D51E8002F531C41E83F
:1057D000003505B1F8E72146FCF79AF92046B0BD3F
:1057E000002000210024FCF793F92046B0BD000002
:1057F000B0B5002822D0C26891421FD302699142FD
:105800001CD200F1140213680B60BFF35F8F52E8E3
:10581000003F0C689C42F6D142E8001505B1F2E762
:10582000021D52E8003F5C1E42E8004505B1F8E762
:1058300000220024FCF76EF92046B0BD6FF0030291
:105840006FF00304FCF766F92046B0BD2DE9F04186
:105850000E4600284FF0000118BF002E02D1084666
:10586000BDE8F0811446002AF9D01F46002BF6D07F
:1058700004FB06714FF00008C0E9041731462246C8
:105880003B46C0E90068C0E90247FCF745F9701ED5
:105890000CD010F00302A6F1020119D03819012A28
:1058A00038600BD10746084612E000BF3D46012193
:1058B000C5F800800846BDE8F08100BF0719022A3C
:1058C000076001D1F01E03E03A193A60301F174615
:1058D00003293D4613D3610004EB4402A30000BF3B
:1058E0003E193E6026447D183D512644BD1847F8B8
:1058F00014503519FE18BE5004382F46F0D101213E
:10590000C5F800800846BDE8F08100002DE9F047A9
:10591000044680786168002864D0D4E90205002933
:1059200005F12C08424618BF01F1080205F13009C3
:1059300010604A46002818BF021D002005F10C0621
:105940001160207030462146FFF752FFA8680028FA
:1059500000F0F6803046FFF725FF002808BFBDE8BD
:10596000F0870446284600F0DDFB002100220646B1
:105970004FF0000A00F07AFD304600F0A3FC4668C4
:105980006A6A074604F10C003146FAF7C9FEF920AD
:105990002070286B397A002884F802A0E17073D057
:1059A000C2788A4276D24268002A00F08A80D37890
:1059B0008B4280F081805068002800F08180C3789D
:1059C0008B4280F08F804268002A7AD0D3788B4255
:1059D00072D25068002873D0C3788B421346E2D34A
:1059E00081E000BFA568A86860B34078832829D10A
:1059F0002846FCF7A5F8284600F094FB0021002279
:105A000006464FF0000800F031FD304600F05AFC29
:105A100046686A6A074604F10C013046FAF780FED0
:105A2000B86800281CBFE178017028463146FCF7B1
:105A300093F805F10C00214684F80080BDE8F0479A
:105A4000FFF7D6BE2846FCF77BF82A4652F8300FFF
:105A500030B3E178C3788B4228D24268DAB3D37886
:105A60008B4233D25068A8B3C3788B4256D2426877
:105A70008AB3D3788B4229D2506858B3C3788B420B
:105A80001346EAD34BE000BFC4E901AAC8F80040BE
:105A900032E000BF0021C4E9010184602CE000BFB6
:105AA0000020C4E90100EC6240E000BF0021C4E92D
:105AB000010184603AE000BF0346104613E000BFD6
:105AC00010460021C4E9011012E000BF0346104651
:105AD00025E000BF10460021C4E9011005F12C01AA
