:020000040800F2
:100000008008002091020008B9180008591700085C
:10001000B518000889040008B51B0008000000009E
:10002000000000000000000000000000C1180008EF
:10003000B104000800000000BD180008C518000841
:10004000AB020008AB020008AB020008AB020008DC
:10005000AB020008AB020008AB020008AB020008CC
:10006000AB020008AB020008AB020008AB020008BC
:10007000AB020008AB020008AB020008AB020008AC
:10008000AB0200088D040008AB020008AB020008B8
:10009000AB020008AB020008AB020008AB0200088C
:1000A000AB020008AB020008AB020008AB0200087C
:1000B000AB020008AB020008AB020008AB0200086C
:1000C000AB020008AB020008AB020008AB0200085C
:1000D000AB020008AB020008AB020008AB0200084C
:1000E000AB020008AB020008AB020008AB0200083C
:1000F000AB020008AB020008AB020008AB0200082C
:10010000AB020008AB020008AB020008AB0200081B
:10011000AB020008AB02000885190008AB0200081A
:1001200099040008AB020008AB020008A50400080F
:10013000AB0200080000000000000000AB02000855
:10014000AB020008AB020008AB020008AB020008DB
:10015000AB020008AB020008AB020008AB020008CB
:10016000AB020008AB020008AB020008AB020008BB
:10017000AB020008AB020008AB0200080000000060
:1001800000000000AB0200080000000000000000BA
:10019000AB0200080000000000000000AB020008F5
:1001A000000000000000000000000000AB0200089A
:1001B000AB020008AB020008AB020008AB0200086B
:1001C000AB02000800F002F800F052F814A696E81E
:1001D000000CB244B344DA4501D100F049F8BAE862
:1001E0000F000FA696E83000A5EB040504EB060708
:1001F000AAEB0704A7F101074FEA15154FEA3414DB
:10020000A4F10104AC4201D300F032F813F0010F65
:1002100018BFFB1A43F0010300F001F8DBE71847B1
:10022000EC1900000C1A0000103A24BF78C878C1FD
:10023000FAD8520724BF30C830C144BF04680C60EC
:1002400070470000704700000023002400250026AE
:10025000103A28BF78C1FBD8520728BF30C148BF29
:100260000B6070471FB501F0B4FC1FBD10B510BD89
:1002700000F0D4F81146FFF7F5FF01F09DFC00F007
:10028000F2F803B4FFF7F2FF03BC00F0F5F800004A
:100290000948804709480047FEE7FEE7FEE7FEE71A
:1002A000FEE7FEE7FEE7FEE7FEE7FEE70448054956
:1002B000054A064B7047000071190008C501000887
:1002C000800200208008002080040020800400209C
:1002D00053EA020C00F069802DE9F04B4FF0000664
:1002E000002B1FBFB3FA83F503FA05F424FA05F6D1
:1002F0005E4012BF1643B2FA82F502FA05F4C5F168
:1003000020051EBF22FA05FC44EA0C04203556EAFB
:10031000044C4FEA144418BF641C4FF000084FF01F
:100320000009904271EB030C39D3002919BFB1FACF
:1003300081F701FA07F6B0FA80F700FA07F6C7F17D
:1003400020071EBF20FA07FC46EA0C062037B6FB42
:10035000F4FCA7EB0507103F07F01F0BCBF12006BD
:100360002CFA06F60CFA0BFB44BFB3460026202FEE
:10037000A4BF5E464FF0000B5BEA060C08BF4FF0CF
:10038000010B19EB0B0948EB0608ABFB027C06FBE3
:1003900002CC0BFB03CCC01B71EB0C01C1E70B467D
:1003A000024641464846BDE8F08B13B5084318BFE6
:1003B0004FF0FF300146AFF30080BDE81C407047AE
:1003C0004FF0000200B5134694469646203922BFEE
:1003D000A0E80C50A0E80C50B1F12001BFF4F7AF39
:1003E000090728BFA0E80C5048BF0CC05DF804EB1B
:1003F000890028BF40F8042B08BF704748BF20F889
:10040000022B11F0804F18BF00F8012B7047704786
:100410007047704700487047100000207546FFF78E
:10042000F9FFAE4605006946534620F007008546B1
:1004300018B020B5FFF73AFFBDE820404FF00006A6
:100440004FF000074FF000084FF0000BAC46ACE84F
:10045000C009ACE8C009ACE8C009ACE8C00921F0AB
:1004600007018D46704710B50446AFF30080204663
:10047000BDE81040FFF705BF01491820ABBEFEE7FD
:100480002600020070470000FEE7000040F2301036
:10049000C2F2000000F012B840F27000C2F2000098
:1004A00000F00CB840F2D000C2F2000000F006B834
:1004B0007047000072B600BFFEE70000F0B581B0E3
:1004C0000021009140F20801C2F200010B68D0E95E
:1004D000166148F2B51537680822C1F64E358A40D4
:1004E0003A42A3FB05350CD003681C68640708D5A5
:1004F0001C6824F004041C60B260426D42F00102EA
:10050000426501228A403A4208D003685B691B06B3
:1005100004D5B260426D42F00202426504228A4074
:100520003A4208D003681B689B0704D5B260426D4D
:1005300042F00402426510228A403A4219D0016812
:100540000B681B0715D5B2600B680A685B0309D4FA
:10055000D20509D40A6822F008020A60016C29B9A0
:1005600007E000BF110341D4016C11B10446884774
:100570002046C26D202101FA02F33B4243D00168BC
:100580000F68FF063FD5B36090F835700B68052FF4
:100590001CD123F016030B604B6923F080034B61E1
:1005A000036C0BB9836C1BB10B6823F008030B6061
:1005B0003F219140B160012180F83510016D00228A
:1005C000002980F8342054D158E000BF0A685B034A
:1005D00010D4D20512D40A6822F010020A60012158
:1005E00080F83510002180F8341007E0816C002974
:1005F000BCD1BEE7110301D4416C00E0C16B11B165
:10060000044688472046416DC1B3416DC9072ED0CD
:10061000052180F835100168AA0A0B6823F0010350
:100620000B60009B0133934200931AD80B68DB07E1
:1006300017D0009B01339342009312D80B68DB075D
:100640000FD0009B0133934200930AD80B68DB075D
:1006500007D0009B01339342009302D80B68DB075D
:10066000DFD1012180F83510002180F83410C16CF1
:1006700021B101B0BDE8F040084700BF01B0F0BDB6
:100680002DE9F041044600F083F9ECB10546022063
:1006900084F835000020216884F83400086820F0D0
:1006A0000100086021680868C00711D000F070F9E7
:1006B000401B0528F6D9032520230320636584F811
:1006C0003550BDE8F08100BF0120BDE8F08100BFDA
:1006D000086848F23F02CFF21002D4E9013500EA7F
:1006E000020C04F10C0898E8C10143EA0C032B4307
:1006F0001843D4E9072E304338431043626A40EA76
:100700000E00042A40EA08031CD1206BD4E90A2E0B
:1007100040EA0E00184308604869BEF1000F20F05F
:10072000030040EA020040F0040C11D0B8F5005F6D
:1007300036D0B8F1000F45D1022A46D0012A3BD06D
:1007400032B942E00B60486920F0070040EA020C31
:1007500001F0F8004AF6AB221038CAF6AA22A0FB34
:1007600002231A0941F60443C1F814C0C0F600037D
:100770009A5C40F2FF335F284FF03F0021EA03010B
:1007800000FA02F088BF0431C4E916128860002321
:1007900001250020636584F83550BDE8F08100BF75
:1007A000032AD5D8012540230120DFE802F0030EFB
:1007B000030500BF82E700BFAEF1C070B0FA80F061
:1007C000400904E0032A04D3C2D1CEF3006000281C
:1007D000BED0012540230120636584F83550BDE873
:1007E000F08100002DE9F04F83B000F1200200F10C
:1007F0003E4741F60005009207F1FF77C4F202057B
:1008000007224FEAB726A84208BF062200254FF06C
:1008100000084FF00009062E38BF4FEAB7220192B8
:100820000AE000BF09F1010908F10208B9F1100F4F
:1008300005F1040500F0A2800F68012202FA09FE0A
:1008400017EA0E0AEED0D1F804C003220CF0030719
:100850007E1E02FA08F4012E6FEA040B12D8846897
:10086000CE6804EA0B0406FA08F634438460446850
:1008700024EA0E06CCF3001404FA09F42643466079
:1008800004E000BF032F01D103271EE0C6688C6877
:1008900006EA0B0604FA08F42643022FC66014D1B8
:1008A0006FF00302009E02EA590756F807C005F0F0
:1008B0001C040F220B69A2402CEA0202A3401A4337
:1008C000F251D1F804C00CF00307026807FA08F3EC
:1008D00002EA0B021A431CF4403F0260A2D000223D
:1008E00043F644030292C4F202031A6843F600443A
:1008F00042F480421A601A68C4F2010402F4804291
:100900000292029A29F003024FF6084C2244CFF6D5
:10091000FF7C52F80C3005F00C070F26BE40B343A5
:10092000019E06FA07F73B4342F80C30A2684B6879
:1009300042EA0A0743F60C4CDE0258BF22EA0A07D5
:10094000A760C4F2010CDCF800209E0242EA0A070C
:1009500058BF22EA0A07CCF8007062689E0342EA98
:100960000A0758BF22EA0A0767602268DB0342EAE7
:100970000A0758BF22EA0A07276053E703B0BDE819
:10098000F08F0000002A08BF090481617047000051
:1009900040F27820C2F200000068704740F2000088
:1009A00040F27821C2F20000C2F2000100780A6829
:1009B000104408607047000080B543F60040C4F260
:1009C0000200016841F400710160016841F4806136
:1009D0000160016841F480710160032000F0BCF8FF
:1009E0000F2000F005F800F05DF8002080BD000049
:1009F00070B586B0002543F640010195C4F20201AE
:100A00000A68044642F010020A60096801A801F071
:100A1000100101910199694600F060F9049E002ED1
:100A200018BF012600F07AF94DF68361B040C4F298
:100A30001B31A0FB01014FF0FF3000EB914140F270
:100A4000E81041F20002C2F20000C4F2000240F2DB
:100A5000E733C0E90021C0E902530561856100F078
:100A6000B3FC08B106B070BD40F2E810C2F200005D
:100A700000F0DAFC0028F5D1362000F02FF80F2C1A
:100A80000CD836202146002200F03AF840F204014A
:100A90000020C2F200010C6006B070BD012006B05B
:100AA00070BD000082B0002043F640010190C4F206
:100AB00002014A6842F480424A604A6802F4804275
:100AC0000192019A0090086840F080500860086820
:100AD00000F080500090009802B07047002848BF96
:100AE000704700F01F01012202FA01F11C2202EA04
:100AF000D0004EF20012CEF200028150704700008A
:100B000010B54EF60C5CCEF2000CDCF80030C3F3EE
:100B1000022E8EF00704042C28BF0424BEF1030328
:100B20004FF0FF3E0EFA04F438BF0023A143994072
:100B30000EFA03F39A43114300F00F0200F16043F1
:100B40000901043A03F564436244002848BF02F1F6
:100B50000C03197010BD00004EF60C51CEF20001CE
:100B60000A684FF6FF031A4060F30A2242F08060E1
:100B700040F0FD7008607047002804BF01207047F6
:100B80002DE9F04143F60808C4F202080446D8F8FB
:100B9000F8030D4600F00F00814207D988F8F8539A
:100BA000D8F8F80300F00F00A84277D12068810739
:100BB00017D5410705D5D8F8001041F4E051C8F821
:100BC0000010010705D5D8F8001041F46041C8F8BD
:100BD0000010D8F80010A26821F0F0011143C8F805
:100BE0000010C00740D1D8F8F80300F00F0085428C
:100BF00007D288F8F853D8F8F80300F00F00A8429D
:100C00004CD12068410707D5D8F80010E26821F4DC
:100C1000E0511143C8F80010000708D5D8F80000CB
:100C2000216920F4604040EAC100C8F8000000F0EB
:100C30009DF8D8F8001041F6EC32C1F30311C0F66C
:100C40000002515C40F2080220FA01F140F2040077
:100C5000C2F200000068C2F200021160FFF7C8FE95
:100C60000020BDE8F08100BF6068811E022907D224
:100C700058F8081C89015CBF0120BDE8F08111E033
:100C8000012807D158F8081C89035CBF0120BDE882
:100C9000F08107E058F8081C890703D40120BDE85B
:100CA000F08100BFD8F8001021F003010843C8F814
:100CB0000000FFF76DFE064641F28837D8F80000C5
:100CC000616800F00C00B0EB810F8CD0FFF760FE84
:100CD000801BB842F2D90320BDE8F0810F220260E8
:100CE00043F60802C4F20202136803F003034360F0
:100CF000136803F0F0038360136803F4E053C360E8
:100D0000D2F800C04FF4E05303EADC030361D2F8E9
:100D1000F80300F00F0008607047000040F2080080
:100D200043F60801C2F20000C4F20201006809683B
:100D300041F6FC32C1F38221C0F60002515CC8408A
:100D40007047000040F2080043F60801C2F20000BC
:100D5000C4F202010068096841F6FC32C1F3423175
:100D6000C0F60002515CC8407047000010B543F661
:100D70000404C4F202046068C0F3810142F200403E
:100D8000C0F2F400DFE801F04102082647F6400017
:100D9000C0F27D1010BD00BF2068216823684902A1
:100DA00047F64001C0F27D1100F03F02C3F3881006
:100DB0005CBF42F20041C0F2F401A1FB000100233C
:100DC000FFF786FA21680222C1F3014102EB4101DB
:100DD00019E000BF206821682368490247F64001F6
:100DE000C0F27D1100F03F02C3F388105CBF42F2F5
:100DF0000041C0F2F401A1FB00010023FFF768FAF3
:100E00002168C1F30271B0FBF1F010BD002804BFEE
:100E1000012070472DE9F04182B00446007843F686
:100E20000006C007C4F202060CD0B06800F00C0047
:100E3000042840F089803068800303D5606800286A
:100E400000F050812078800723D5B06810F00C0F97
:100E500011D0B06800F00C00082802D17068400280
:100E600009D5B06800F00C000C2840F09F80706835
:100E7000400200F19B803068800703D5E0680128BC
:100E800040F030813068216920F0F80040EAC1006C
:100E900030602078000713D4207840072AD4A56951
:100EA000002D00F01A81B06800F00C00082840F016
:100EB000AB80012D40F0E880012002B0BDE8F08158
:100EC0006069002840F20000C4F2472000F08880EA
:100ED0000121C0F8801EFFF75BFD0546706F80079B
:100EE000DAD4FFF755FD401B0228F7D9032002B0E2
:100EF000BDE8F081306C5FEAC0080AD400200190A0
:100F0000306C40F080503064306C00F080500190C4
:100F1000019847F20007C4F200073868C00537D4CB
:100F2000386840F480703860FFF732FD054600BF36
:100F30003868C0052CD4FFF72BFD401B0228F7D9D9
:100F4000032002B0BDE8F081B06800F00C00082872
:100F500003D1706840023FF56EAFB06800F00C003E
:100F60000C2803D1706840023FF565AF61683068B6
:100F7000B1F5803F07D0B1F5A02F40F0CB8040F411
:100F800080203060306840F480303060CBE000BFBB
:100F9000A168306F012905D0052957D140F0040020
:100FA0003067306F40F00100306759E0E06800289A
:100FB00000F09C800020C4F2472001210160FFF76F
:100FC000E7FC0546306880073FF55CAFFFF7E0FCC3
:100FD000401B02284FF00300F4D902B0BDE8F081B5
:100FE0000021C0F8801EFFF7D3FC0546706F800714
:100FF0007FF552AFFFF7CCFC401B0228F6D9032047
:1010000002B0BDE8F08100BF0027C4F247270020EE
:101010003866FFF7BDFC022D05460BD13068800114
:1010200040F19280FFF7B4FC401B02284FF0030010
:10103000F4D9D2E7306880014FD5FFF7A9FC401BF7
:1010400002284FF00300F5D9C7E700BF20F00100E8
:101050003067306F002920F00400306700F098807E
:10106000FFF796FC054641F2883700BF306F8007D6
:1010700000F1A080FFF78CFC401BB842F6D903209A
:1010800002B0BDE8F08100BF7068E16900F4800241
:101090008A4227D1216A00F03F028A4222D147F6D4
:1010A000C071626A0140B1EB821F1BD1A16A4FF689
:1010B000FF73C903994300F44032A1F580318A429D
:1010C00010D1E16A00F07062B2EB016F0AD1216BBE
:1010D00000F0E040B0EB017F04D1002002B0BDE899
:1010E000F08100BF012002B0BDE8F0810020C4F211
:1010F000472000210160FFF74BFC05463068800760
:101100007FF5C7AEFFF744FC401B02284FF00300F9
:10111000F4D962E720F4803030603068002920F490
:101120008020306050D0FFF733FC054630688003E4
:101130003FF588AEFFF72CFC401B6428F6D903204E
:1011400002B0BDE8F08100BF04F11C052FCD246B77
:10115000084340EA8210D9034FF6FF729143A1F58C
:10116000803140EA0560084340EA04707060012065
:101170003866FFF70DFC044630688001ADD4FFF7F8
:1011800007FC001B02284FF00300F5D925E700BF3C
:10119000FFF7FEFB054641F2883700BF306F80073E
:1011A00008D5FFF7F5FB401BB8424FF00300F5D917
:1011B00013E700BFB8F1000F3FF571AE306C20F0BF
:1011C000805030646BE600BFFFF7E2FB054600BFCE
:1011D000306880037FF536AEFFF7DAFB401B6428EA
:1011E0004FF00300F4D9F8E670B528B1416A29B18F
:1011F00000210161142106E0012070BD4168B1F5B4
:10120000827F02D01C21002242500026866290F884
:10121000511029B980F85060054600F03DF8284685
:10122000022180F8511090E82E0002F482720C68BE
:1012300003F4044324F040040C601A4405F40063F2
:1012400005691A4405F0020345691A4405F00103D3
:101250008569C4691A4405F400731A4404F038031C
:10126000046A1A4404F08003846A1A4304F40053A5
:101270001A430A60436A042202EA154203F010038B
:101280001A444A60CA6922F40062CA6101214665B3
:1012900080F85110304670BD2DE9F04F87B00446FC
:1012A00043F200070068C4F201070026B842069620
:1012B000CDE904660396029602D007B0BDE8F08F30
:1012C00043F630000196C4F20200416902AD41F4D8
:1012D00080514161416946F2104801F48051019109
:1012E0000199019601684FF0020941F00101016086
:1012F00001684FF0030A01F0010101910199019683
:1013000001684FF0050B41F00201016000682946B9
:1013100000F0020001900198C020029007F55040B3
:10132000C4F20208CDE90396CDF814A0CDF818B0A8
:10133000FFF758FA0820CDE9020904A880E8400C1C
:1013400007F554402946FFF74DFA40F2D00508F161
:101350004800C2F200054FF0C0674021C5E9000710
:1013600005F108004FF4806980E842022846C5E98B
:101370000566C5E907666E62FFF782F9002818BFA7
:10138000FFF798F8A564AC6340F27005C2F200055F
:101390000020C5E90200C5E90490C5E90600C5E9D9
:1013A00008002846C5E90087FFF76AF9002818BF3A
:1013B000FFF780F8E564AC6307B0BDE8F08F00008C
:1013C0007047000070470000002804BF01207047EC
:1013D00010B5044690F83D0028B9002084F83C0080
:1013E000204600F01FF8022084F83D002068211DEF
:1013F00000F0CEFA012084F8460084F83E0084F81C
:101400003F0084F8400084F8410084F8420084F8EA
:10141000430084F8440084F8450084F83D0000202F
:1014200010BD00007047000090F83D1001291CBF5E
:1014300001207047022180F83D10006841F2FF72E0
:10144000C168C4F20002904241F00101C1600DDCAC
:1014500040F2FF71C4F20001884215DCB0F1804F08
:101460002AD040F20041C4F2000123E040F2FF31F3
:10147000C4F20101884213DC41F60001C4F200010C
:10148000884219D0002113E040F60001C4F20001A7
:10149000884211D040F60041C4F200010AE000BFCA
:1014A00044F20001C4F20101884205D040F200413B
:1014B000C4F20101884206D1816801F007010629C2
:1014C00004BF00207047016841F001010160002065
:1014D000704700007047000070B504460068C5689A
:1014E0000669B10716D515F0020113D06FF002019D
:1014F0000161012121778069800703D02046FFF731
:10150000E9FF05E0204600F08FF8204600F08EF855
:1015100000202077700719D515F0040016D0206838
:101520006FF00401016102212177806910F4407F8E
:1015300004D02046FFF7CEFF06E000BF204600F0B3
:1015400073F8204600F072F800202077300717D596
:1015500015F0080014D020686FF008010161042123
:101560002177C069800703D02046FFF7B3FF05E06D
:10157000204600F059F8204600F058F80020207767
:10158000F00619D515F0100016D020686FF0100184
:10159000016108212177C06910F4407F04D0204602
:1015A000FFF798FF06E000BF204600F03DF8204618
:1015B00000F03CF800202077F00718BF15F001007C
:1015C00002D1300609D412E020686FF001010161F8
:1015D000204600F02DF8300609D515F0800006D021
:1015E00020686FF0800101612046FFF7E9FE700678
:1015F00009D515F0400006D020686FF04001016168
:10160000204600F01FF8B00658BF70BD15F020004E
:1016100008D021686FF0200220460A61BDE87040C2
:10162000FFF7D0BE70BD000070470000704700009B
:10163000006841F20001C4F20001884218BF7047FF
:10164000FFF7ACB970470000002804BF01207047C5
:1016500010B5044690F8410028B9002084F84000F5
:10166000204600F021F8242084F841002068C16859
:1016700021F40051C160204600F028FA2068016979
:1016800021F490410161416921F02A014161C16861
:1016900041F40051C16000202021606484F84110B1
:1016A00084F84210606310BD70B586B0044644F201
:1016B00000402168C4F20000002681420596CDE971
:1016C00003660296019601D006B070BD43F6300164
:1016D0000096C4F202010A6900F5DE3042F40032DD
:1016E0000A610A6902F400320092009A00960A68C0
:1016F00042F001020A60096801F0010100910099BD
:101700000C2101910221CDE9021603210491072148
:10171000059101A9FFF766F840F2301546F2A000E6
:10172000C2F20005C4F202004FF0006140224FF403
:10173000806385E847002846C5E90436C5E90666A2
:10174000C5E90866FEF79CFF002818BFFEF7B2FE49
:10175000A563AC6306B070BDFEE7000080B582B043
:10176000002043F630010190C4F202010A6842F4FD
:1017700000120A600A6802F400120192019A0090B5
:101780000868002240F4800008600868002100F426
:101790008000009000981120FFF7B2F91120FFF7A8
:1017A0009DF9382000210022FFF7AAF93820FFF721
:1017B00095F93B2000210022FFF7A2F93B2002B05F
:1017C000BDE88040FFF78AB970B586B0002543F6C2
:1017D00030000595CDE90355CDE901550095C4F2DA
:1017E00002000168002441F0010101600168C4F2B7
:1017F000020401F0010100910099009501680022A6
:1018000041F0020101600068202100F00200009018
:10181000009820462026FFF7B5F80120CDE9020503
:1018200001A9204601960495FEF7DCFF06B070BDC5
:1018300080B540F2901043F20001C2F20000C4F201
:1018400001014FF4827200234FF4007C80E80E0007
:101850000A21C0E90333C0E9053CC361C0E908338C
:10186000C0E90A31FFF7C0FC002808BF80BDBDE811
:101870008040FEF71FBE000080B540F2302044F2E9
:101880000041C2F20000C4F2000100234FF00C0C32
:101890004FF4E13280E80E00C0E90333C0E905C32C
:1018A000C361FFF7D1FE002808BF80BDBDE88040BE
:1018B000FEF700BEFEE70000FEE7000070470000F4
:1018C000704700007047000070B594B007AC204628
:1018D0003421FEF775FD002543F640000695CDE95D
:1018E0000455CDE902550195C4F2020001680226B3
:1018F00041F080510160006800F080500190019833
:1019000047F200000195C4F20000016841F4404133
:101910000160006800F440400190019801200A90A5
:1019200010200B9008200F90A820CDE9100620462B
:101930000796CDE90D65CDE91266FFF767FA18B194
:1019400072B600BFFEE700BF0F20CDE902064FF4DC
:10195000A05005904FF48050069002A805210495F0
:10196000FFF70AF910B172B6FEE700BF14B070BD00
:101970004EF68850CEF20000016841F4700101601B
:101980007047000040F2E810C2F20000FFF7A4BD6B
:10199000B0B540F6FF3E0568C4F2000E40F2004CC0
:1019A0007045C4F2010C25DCB0F1804F2FD040F21D
:1019B0000043C4F20003984229D040F60003C4F269
:1019C0000003984223D041F6FF73C4F2000398420B
:1019D00028DC70453ADCB0F1804F5BD040F2004328
:1019E000C4F20003984255D040F60003C4F200034D
:1019F0004EE000BF40F60043C4F20003984206D018
:101A0000604504D00023C4F201039842DBD14B6847
:101A100025F0700243EA020541F6FF73C4F20003A9
:101A20009842D6DD43F6FF73C4F2010398421FDCEF
:101A300042F20003C4F2000398422BD00023C4F208
:101A40000103984226D0604524D028E040F60043A8
:101A5000C4F2000398421DD041F60003C4F2000313
:101A6000984217D041F60043C4F2000310E000BFD3
:101A700044F20003C4F2010398420BD044F6000381
:101A8000C4F20103984205D044F20043C4F20103BA
:101A9000984204D1CB6825F4407243EA02050A68F3
:101AA0008C684B69C46240F480648262644504BF00
:101AB00009690163026825F0800142F004021943BC
:101AC0000260012242610160B0BD0000B0B5044671
:101AD000006804F108030ECB0569194325F440554D
:101AE0002A4302616269E3691143C268194349F2FA
:101AF0000C639A431143C1604169A26921F44071AA
:101B000041F20043114340F48062C4F201039A425F
:101B1000416103D1FFF716F902E000BFFFF7FEF8BD
:101B2000E1694FF69C7563681922C0F6FF75B1F53F
:101B3000004FA0FB02011FD15A00DB0FFEF7C8FBCC
:101B400048F21F51C5F2EB11A0FB01235A0905F120
:101B5000805302FB0300322303EBC000A0FB010112
:101B60004FF4F87000EA111000EB0210C1F34211BB
:101B7000084421688860B0BD9A009B0FFEF7A8FB5F
:101B800048F21F51C5F2EB11A0FB01235A0902FBD9
:101B90000500322303EB0010A0FB0101F02000EA56
:101BA000511000EB0210C1F3431108442168886012
:101BB000B0BD0000FEE70000FEF7FEFEFFF784FE6A
:101BC000FFF702FEFFF7CAFDFFF732FEFFF754FEF4
:101BD000FEE7F1EE100A4FF6FF71C0F2C03120EAC5
:101BE000010040F04070E1EE100A70470000000074
:101BF00000000000010203040607080900000000BD
:101C0000010203040006101600061016301C00081E
:101C1000000000201000000028020008401C0008FE
:101C200010000020700800004802000800000000BA
:101C300001000000100000000024F400000000007B
:04000005080001C529
:00000001FF
