:020000040800F2
:1000000018920020B5020008B13F0008093B000823
:10001000AD3F000811140008F5440008000000007E
:10002000000000000000000000000000F5020008D1
:100030003914000800000000C5030008D5030008BB
:10004000CF020008CF020008CF020008CF0200084C
:10005000CF020008CF020008CF020008CF0200083C
:10006000CF020008CF020008CF020008CF0200082C
:10007000CF020008CF020008CF020008CF0200081C
:10008000CF02000815140008CF020008CF020008B4
:10009000CF020008CF020008CF020008CF020008FC
:1000A000CF020008CF020008CF020008CF020008EC
:1000B000A1410008CF020008CF020008CF020008CB
:1000C000CF020008CF020008CF020008CF020008CC
:1000D000CF020008CF020008E9440008CF02000860
:1000E000CF020008CF020008CF020008CF020008AC
:1000F000CF020008CF020008CF020008CF0200089C
:10010000CF020008CF020008CF020008CF0200088B
:10011000CF020008CF020008AD410008CF0200085E
:1001200021140008CF020008CF0200082D14000897
:10013000CF0200080000000000000000CF0200080D
:10014000CF020008CF020008CF020008CF0200084B
:10015000CF020008CF020008CF020008CF0200083B
:10016000CF020008CF020008CF020008CF0200082B
:10017000CF020008CF020008CF02000800000000F4
:1001800000000000CF020008000000000000000096
:10019000CF0200080000000000000000CF020008AD
:1001A000000000000000000000000000CF02000876
:1001B000CF020008CF020008CF020008CF020008DB
:1001C000CF02000800F002F800F061F814A696E8EB
:1001D000000CB244B344DA4501D100F058F8BAE853
:1001E0000F000FA696E83000A5EB040504EB060708
:1001F000AAEB0704A7F101074FEA15154FEA3414DB
:10020000A4F10104AC4201D300F041F813F0010F56
:1002100018BFFB1A43F0010300F001F8DBE71847B1
:10022000FC6400001C650000103A24BF78C878C147
:10023000FAD8520724BF30C830C144BF04680C60EC
:1002400070470000704700000023002400250026AE
:10025000103A28BF78C1FBD8520728BF30C148BF29
:100260000B607047782900F07181002070471FB53E
:1002700001F0C2F89DE8030000F046FE00F09CFB90
:100280001FBD10B500F010FC01F080F810BD00F0AB
:100290007BFC114603B404F0CDF903BCFFF7E7FF84
:1002A00004F0DEF900F0D0FD03B4FFF7EAFF03BC71
:1002B00000F0CCFF0948804709480047FEE7FEE709
:1002C000FEE7FEE7FEE7FEE7FEE7FEE7FEE7FEE706
:1002D00004480549054A064B704700008D41000857
:1002E000C5010008188C002018920020188E0020EC
:1002F000188E00201EF0040F0CBFEFF30880EFF300
:100300000980816911F8021C00294DD101B590E8DE
:100310000F10E047BDE80050CCF80000314B93E8E7
:100320000600914208BF70471A6041B91EF0100FD5
:100330002CD12D4B186820F00100186026E0ACF19C
:10034000200C1EF0100F08BFACF1400C81F822E029
:10035000C1F838C006B4084605F0C8F906BC50B963
:100360000C46012004F048FB204B5A681A6000211B
:1003700094F922E0DAE7D1F838C091F922E01EF0D2
:10038000100F08BFACEC108A8CE8F00F1400A06BC3
:1003900094F922E01EF0100F08BFB0EC108AB0E80C
:1003A000F00F80F309887047114A13689942FAD810
:1003B00001B552F821C00FC8E047BDE80050CCF8A5
:1003C0000000704701B504F007FEBDE80140EFF3FF
:1003D000098CA3E701B505F0C9FABDE80140EFF3C8
:1003E000098C9BE73000002034EF00E03000002053
:1003F000AC66000853EA020C00F069802DE9F04B6E
:100400004FF00006002B1FBFB3FA83F503FA05F483
:1004100024FA05F65E4012BF1643B2FA82F502FADC
:1004200005F4C5F120051EBF22FA05FC44EA0C04C0
:10043000203556EA044C4FEA144418BF641C4FF0B0
:1004400000084FF00009904271EB030C39D30029EA
:1004500019BFB1FA81F701FA07F6B0FA80F700FA8E
:1004600007F6C7F120071EBF20FA07FC46EA0C0674
:100470002037B6FBF4FCA7EB0507103F07F01F0B76
:10048000CBF120062CFA06F60CFA0BFB44BFB34660
:100490000026202FA4BF5E464FF0000B5BEA060C3F
:1004A00008BF4FF0010B19EB0B0948EB0608ABFB3B
:1004B000027C06FB02CC0BFB03CCC01B71EB0C01D6
:1004C000C1E70B46024641464846BDE8F08B13B5EE
:1004D000084318BF4FF0FF300146AFF30080BDE87E
:1004E0001C4070470FB4044910B503AA029800F0ED
:1004F00027FA10BC5DF814FB1401002070B5044607
:1005000085690068C10601D5302600E02026C007B5
:1005100007D070BDD4E9012130469047206A401CC5
:1005200020626D1EF6D570BD70B5044685690078F1
:10053000C00707D170BDD4E9012120209047206A6F
:10054000401C20626D1EF6D570BD000070B50446DB
:100550000D4621461068AFF300802188090502D5B9
:100560000F4A7A4402E00E4A7A440E32002104F126
:10057000240305E000F00F060009965D5E54491C57
:100580000028F7D120780023000704D5702D02D071
:1005900009B1022311322046BDE8704000F077B95E
:1005A000386000002DE9F05F894604464FF0000AEC
:1005B000DFF824B1FB44C0F820A02046E16888475A
:1005C00000287DD0252806D0D4E901219047206A53
:1005D000401C2062F1E700255F462046E16888471D
:1005E0002028064607DB312E05D2B81910F8200C5A
:1005F00008B10543F1E7A80701D525F00405C4F8C3
:100600001CA00027C4F818A02A2E09D0304605F0F7
:10061000B2FF38B304EB8708303EC8F8186019E021
:1006200059F8041B204604EB87029161E168884772
:10063000012F064618D1E069002820DA25F02005B0
:100640001DE0D8F8180000EB800006EB40003038C1
:10065000C8F818002046E1688847064605F08BFF79
:100660000028EED1012F0AD02E2E08D12046E168B5
:1006700088477F1C0646022F45F02005C4DBA06991
:10068000002803DA404245F00105A061E80701D0E7
:1006900025F01005A6B1A6F14100192802D8203690
:1006A00045F400654A463146204625604D46FFF731
:1006B000D9FD60B1012807D0ED1D25F0070000E04D
:1006C00007E000F1080978E705F1040975E730460D
:1006D0007AE7206ABDE8F09F0E60000010B504467E
:1006E00003E003F0A9FF401C09D014F8010B0549F1
:1006F0000028F6D1BDE810400A2003F09DBF4FF05E
:10070000FF3010BD14010020032A40F2308010F0A9
:10071000030C00F0158011F8013BBCF1020F62449C
:1007200098BF11F801CB00F8013B38BF11F8013B2D
:10073000A2F1040298BF00F801CB38BF00F8013BDA
:1007400011F0030300F02580083AC0F0088051F84A
:10075000043B083A51F804CBA0E80810F5E7121D55
:100760005CBF51F8043B40F8043BAFF30080D20774
:1007700024BF11F8013B11F801CB48BF11F8012B40
:1007800024BF00F8013B00F801CB48BF00F8012B63
:10079000704710B5203AC0F00B80B1E81850A0E8BF
:1007A0001850B1E81850A0E81850203ABFF4F5AF3F
:1007B0005FEA027C24BFB1E81850A0E8185044BF9B
:1007C00018C918C0BDE810405FEA827C24BF51F808
:1007D000043B40F8043B08BF7047D20728BF31F8FC
:1007E000023B48BF11F8012B28BF20F8023B48BF4D
:1007F00000F8012B70474FF000020429C0F012806E
:1008000010F0030C00F01B80CCF1040CBCF1020FC3
:1008100018BF00F8012BA8BF20F8022BA1EB0C0198
:1008200000F00DB85FEAC17C24BF00F8012B00F88E
:10083000012B48BF00F8012B70474FF0000200B5B4
:10084000134694469646203922BFA0E80C50A0E8F3
:100850000C50B1F12001BFF4F7AF090728BFA0E8A1
:100860000C5048BF0CC05DF804EB890028BF40F86D
:10087000042B08BF704748BF20F8022B11F0804FAF
:1008800018BF00F8012B70477047704770472DE97B
:10089000F0470D4699469246044600F12408016847
:1008A000880604D5E06921F01001216000E00120F4
:1008B000A84201DD471B00E00027A1697A1902EB7D
:1008C0000900081AA0612078C00602D42046FFF76C
:1008D00015FE002608E0D4E901211AF80600904729
:1008E000206A401C761C20624E45F4DB2078C0064E
:1008F0000AD52046FFF702FE06E0D4E901213020A8
:100900009047206A401C2062381EA7F10107F4DCE2
:1009100007E0D4E9012118F805009047206A401C3F
:100920002062281EA5F10105F3DC2046FFF7FCFD3F
:100930002078000602D50220BDE8F0870120FBE701
:10094000074B70B50D467B4400F013F8044628466B
:1009500000F022F810B14FF0FF3070BD204670BD9E
:10096000EF3C000003F0C8BD01694A1C0261087831
:10097000704700B58FB0CDE90131002105910549DF
:100980007944CDE9031011466846FFF70BFE0FB01E
:1009900000BD0000E5FFFFFF70B5044600F14C0507
:1009A000284603F0F3FD207B00F08004284603F086
:1009B00023FE204670BD000010B565485421FFF7A6
:1009C0003CFF64485421FFF738FF63485421FFF788
:1009D00034FF62485E49624A624B01605D481060C4
:1009E0005D4A1A60431C0B65511C016501201065AE
:1009F00057484C3003F0F0FD56484C3003F0ECFD06
:100A000055484C3003F0E8FD574803F0E5FD5848E1
:100A10004F4A56A1784400F0CBF920B954487844A5
:100A20000A3800F01AFA54484A4A52A1784400F0B1
:100A3000BFF920B9504878440A3800F00EFA4F4800
:100A4000454A4CA1784400F0B3F920B94B487844AA
:100A50000A3800F002FA40233D48DC00002122461B
:100A600000F018F920B142487844543800F0F5F904
:100A7000384822464023002100F00CF920B13E48BE
:100A80007844543800F0E9F9334822461023002115
:100A900000F000F9002806D038487844BDE810403E
:100AA000563800F0DAB910BD2B482DE9F041006D41
:100AB0002D4E20F00104304603F068FD244D4C35E6
:100AC000284603F063FD224800F0BEF8284603F0F4
:100AD00093FD284603F07CFD1E4D4C35284603F05F
:100AE00055FD1C4800F0B0F8284603F085FD284667
:100AF00003F06EFD184D4C35284603F047FD1648AF
:100B000000F0A2F8284603F077FD284603F060FDC8
:100B100014E0206D20F0010504F14C00074603F0BD
:100B200035FD204600F090F8384603F065FD384664
:100B300003F04EFD204600F07DF82C46002CE8D155
:100B4000304603F059FD084803F042FDBDE8F0814E
:100B5000C0000020140100206801002000000020D7
:100B600004000020080000200C000020720000009B
:100B7000BF5B000077000000AB5B0000975B0000EC
:100B800000487047BC0100207546FFF7F9FFAE46EC
:100B900005006946534620F00700854618B020B589
:100BA000FFF796FBBDE820404FF000064FF000072E
:100BB0004FF000084FF0000BAC46ACE8C009ACE8C1
:100BC000C009ACE8C009ACE8C00921F007018D46B6
:100BD000704770B516460D46041F002808BF70BD4B
:100BE000002E1CBF05F1080003F0D0FC2B4658680E
:100BF000002818BFA04238BF0346F8D31968CA18A6
:100C0000A24218BF5C6003D122681C4611441960DF
:100C100021680A19824218BF606004D1426862608C
:100C2000006808442060002E1CBF05F1080003F096
:100C3000E3FC70BD10B5044600F049F90168204698
:100C4000BDE810400122C4E72DE9F04704464FF00B
:100C5000FF380026C568D4E90497A80718D02046B5
:100C600000F090FA384600F009F9002800DA46460C
:100C7000280502D54846FFF7DDFF4C212046FFF747
:100C8000DCFD206D20F0010020653046BDE8F087D6
:100C90004046FBE72DE9F04704461E4690460D46C8
:100CA000C7684C30814603F071FCB80714D0780255
:100CB00012D44046B8F5807F09D0B0F5007F06D049
:100CC000B8F5806F08D1012604F1240506E0701EF6
:100CD0006FF07F41884201D3012409E02561E6617C
:100CE0006560E06820F4706040EA0800E06000247D
:100CF000484603F081FC2046BDE8F0872DE9F04727
:100D000016468846070010D006F14C00814603F0D5
:100D10003DFC3046FFF798FF18F8010B61280DD015
:100D2000722805D0772841D105E00020BDE8F08782
:100D30000125002405E00225042402E0082448F2ED
:100D4000020518F8010B2B2806D0622809D018F8E4
:100D5000010C74280AD00BE045F0030544F00204AE
:100D6000EFE745F0040544F00104EAE744F010041D
:100D70003846214600F078F8411C17D00021316137
:100D800071604FF40071F560F1617061200704D566
:100D900030460222002100F039F9306D40F00100A8
:100DA0003065484603F028FC3046BFE70026F8E7E8
:100DB0002DE9F04115460E460746214C204603F02A
:100DC000E5FB2A4631463846FFF798FF05462046A0
:100DD00003F012FC2846BDE8F0812DE9F0410E46F3
:100DE0008046174D284603F0D1FB164C206DC107F5
:100DF00004D0410804D020F00104F7E7224612E0B5
:100E0000542000F0F9F8070017D0206D47F00101D9
:100E10000843542120653846FFF70FFD07F14C00C9
:100E200003F0DAFB3A4631464046FFF767FF0446D7
:100E3000284603F0E1FB2046CDE70024F8E7000058
:100E40000C000020C000002010B50446AFF3008065
:100E50002046BDE81040FFF727BA10B500F0DCF9D6
:100E6000BDE8104000F0D2B90EB5CDE9000100F0A8
:100E700067FA029069460120ABBE0EBD08B569460F
:100E800000900220ABBE08BD1FB58DE80700694683
:100E90000520ABBE04B010BD1FB58DE80F0069463C
:100EA0000620ABBEF6E708B5694600900920ABBE48
:100EB00008BD1CB5CDE9000169460A20ABBE1CBDCA
:100EC000704708B5694600900C20ABBE08BD10B550
:100ED000FFF756FE083010BD7047704770477047E7
:100EE00038B504460A4600206946AFF30080002862
:100EF00008BF38BD02460099204600F0BEF9012027
:100F000038BD012000F015BAF8B5AFF300800546F2
:100F100000200C460C2000BF0646A819A0420DD99F
:100F2000324669460020AFF30080070008BF00F09A
:100F300000FA0098A04218BF0546C419FFF7C7FF82
:100F400005600746F01D20F007004619284600F00E
:100F500084F9B44208BFF8BDA21B31463868BDE829
:100F6000F84000F08AB90844401E491E8843704783
:100F70000821001DF7E72DE9F04117460E4604460B
:100F8000FFF7F6FFA042054633D9002F1CBF06F13C
:100F9000080003F0FBFA30467468F4B12168A942F6
:100FA00017D305F1080291423CBF6168416007D345
:100FB000626861194A602268521B0A6041602560BC
:100FC000002F1CBF06F1080003F016FB201DBDE832
:100FD000F08120466468002CE0D129463046FFF7B6
:100FE0007FFF0028D7D1002F1CBF06F1080003F0B7
:100FF00003FB0020BDE8F08110B50446FFF767FF52
:1010000001682046BDE810400122B4E72DE9F04117
:10101000044616460D464769007B80072ED03846A9
:10102000FFF741FF50BB3EB3012E02D0022E25D167
:1010300004E0204600F043F905441DE03846FFF780
:1010400040FFE168002841F01001E16005DA204628
:1010500000F058F80120BDE8F081C9030BD56268A3
:10106000E16A914200D81146A26911442269891AA5
:10107000814200DD08460544002D01DA0220EAE73E
:10108000E16A6068E268814206D29103E06203D5BA
:1010900022F4003141F01002A6690027AE4213DCB1
:1010A000E16A814201D90B4600E0034603EB060CDE
:1010B0002369ACEB030CAC4506DD814201D98C46BB
:1010C00000E084469C4505D1A760276042F02000DF
:1010D000A5620DE0AD1BE669AE1B8142A66000D99A
:1010E0000846C01A281A20605819606022F02000B3
:1010F00003490840E060002084F84870ABE7000036
:10110000BFCFD7FFC16821F4001141F08001C16059
:1011100000218160016070472DE9F74F15460C46AC
:101120004FF0FF3B3848D768D2F814A0074209D0E7
:101130005046A969FFF7BDFE002819DB3248C043BD
:101140000740EF604FF000496FF000484C4501D375
:10115000464600E0264600993B4650463246FFF799
:1011600093FEA96920F00042B21A1144A96128B186
:101170002846FFF7C7FF5846BDE8FE8FA41BE5D100
:101180000020F9E770B504460569C06A61688842C5
:1011900000D80846E16821F42011E160C90312D5A6
:1011A000A84208D02246411B2846FFF7B5FF10B1E0
:1011B0004FF0FF3070BD0020E562C4E90150E068E7
:1011C00020F48030E060002070BD10B50446C06897
:1011D00020F02000E060A16AA06988420DD020467E
:1011E000FFF7D0FFE06820F4405040F01000E060CE
:1011F000A06AA0612069E062606044F24001E0689A
:101200008843E06010BD000010000200002801D0FB
:1012100000F01CB87047000010B5014602A000F0B5
:101220006FF8012010BD0000534947525452454405
:101230003A2052656469726563743A2063616E276F
:1012400074206F70656E3A2000000000014918207C
:10125000ABBEFEE7260002007047002140F8041BE9
:1012600040F8041B03F0B8B90C207047801A0844FA
:10127000401E491E88431044704770B51446054609
:101280008C464368002B18BF634538BF1846F8D317
:1012900002681044604508D0664660460422082172
:1012A000FFF7E4FF811B8446641A2946CCF800400E
:1012B000BDE8704000220CF10400FFF78ABC10B5B5
:1012C0000146C268900703D0900607D5886A0AE0F5
:1012D000FFF748FB01210160881E10BD8B6948683B
:1012E00018440B69C01A91F848301BB191F84910A5
:1012F000401A10BD1103FCD50028FADD401E10BDB8
:1013000070B505460C460A2000E06D1C00F037F869
:1013100035B128780028F8D102E0641C00F02FF8DD
:1013200014B120780028F8D1BDE870400A2000F000
:1013300026B810B500F032F8BDE81040FFF766BFE0
:1013400010B5431C02E010F8011B71B18107FAD1FE
:101350004FF0013202C88C1A8C4314EAC211F9D042
:10136000C01A0A0603D0C01E10BDC01A10BD0A0460
:1013700001D0801E10BD0902FCD0401E10BD08B572
:1013800069468DF800000320ABBE08BD10B5FFF71D
:101390009EFD0068BDE8104000F028B810B5012897
:1013A00005D0002103A0FFF7ABFF012010BD09A16C
:1013B000F8E7000053494752544D454D3A204F75C8
:1013C00074206F662068656170206D656D6F72793D
:1013D000000000003A2048656170206D656D6F72F5
:1013E0007920636F727275707465640010B508308F
:1013F00003F0EEF810BD000080B505F0C3F84EF61E
:101400003C71F1EE100ACEF20001086080BD0000D0
:10141000FEE7000040F2DC20C2F2000000F0CAB893
:1014200040F21C20C2F2000000F0C4B840F27C2060
:10143000C2F2000000F0BEB87047000072B600BFF4
:10144000FEE7000070470000704700007047000092
:1014500070470000704700007047000070470000B0
:1014600070470000704700007047000070470000A0
:101470007047000070470000704700007047000090
:101480007047000070470000704700007047000080
:101490007047000070470000704700007047000070
:1014A0007047000070470000704700007047000060
:1014B0007047000070470000704700007047000050
:1014C0007047000070470000704700007047000040
:1014D0007047000070470000704700007047000030
:1014E0007047000070470000704700007047000020
:1014F0007047000070470000704700007047000010
:1015000070B5866D044600F0D3FA94F835100229C0
:1015100028D105462068216C026822F0160202607C
:10152000426922F08002426109B9A16C19B10168D7
:1015300021F008010160016821F00101016000BF94
:1015400020680068C00715D000F0B2FA401B0628DA
:10155000F6D320206065032084F83500002184F84C
:10156000341070BD802060650120002184F83410A3
:1015700070BD00BFE06D3F2101FA00F0B0600120B6
:1015800084F835000020002184F8341070BD00007C
:1015900090F83510022909D1052180F8351000682E
:1015A000016821F001010160002070478021416540
:1015B00001207047F0B581B00021009140F2180180
:1015C000C2F200010B68D0E9166148F2B515376820
:1015D0000822C1F64E358A403A42A3FB05350CD0AD
:1015E00003681C68640708D51C6824F004041C60A8
:1015F000B260426D42F00102426501228A403A42E5
:1016000008D003685B691B0604D5B260426D42F0E6
:101610000202426504228A403A4208D003681B68ED
:101620009B0704D5B260426D42F00402426510226D
:101630008A403A4219D001680B681B0715D5B26081
:101640000B680A685B0309D4D20509D40A6822F042
:1016500008020A60016C29B907E000BF110341D4F8
:10166000016C11B1044688472046C26D202101FA61
:1016700002F33B4243D001680F68FF063FD5B360D9
:1016800090F835700B68052F1CD123F016030B6002
:101690004B6923F080034B61036C0BB9836C1BB166
:1016A0000B6823F008030B603F219140B1600121DA
:1016B00080F83510016D0022002980F8342054D1C3
:1016C00058E000BF0A685B0310D4D20512D40A6840
:1016D00022F010020A60012180F83510002180F804
:1016E000341007E0816C0029BCD1BEE7110301D49E
:1016F000416C00E0C16B11B1044688472046416D42
:10170000C1B3416DC9072ED0052180F8351001689D
:10171000AA0A0B6823F001030B60009B013393427C
:1017200000931AD80B68DB0717D0009B0133934254
:10173000009312D80B68DB070FD0009B0133934254
:1017400000930AD80B68DB0707D0009B0133934254
:10175000009302D80B68DB07DFD1012180F8351038
:10176000002180F83410C16C21B101B0BDE8F04017
:10177000084700BF01B0F0BD2DE9F041044600F07C
:1017800097F9ECB10546022084F835000020216865
:1017900084F83400086820F00100086021680868B7
:1017A000C00711D000F084F9401B0528F6D90325A5
:1017B00020230320636584F83550BDE8F08100BF25
:1017C0000120BDE8F08100BF086848F23F02CFF277
:1017D0001002D4E9013500EA020C04F10C0898E883
:1017E000C10143EA0C032B431843D4E9072E3043CD
:1017F00038431043626A40EA0E00042A40EA0803B4
:101800001CD1206BD4E90A2E40EA0E001843086070
:101810004869BEF1000F20F0030040EA020040F0EA
:10182000040C11D0B8F5005F36D0B8F1000F45D1E7
:10183000022A46D0012A3BD032B942E00B60486907
:1018400020F0070040EA020C01F0F8004AF6AB2253
:101850001038CAF6AA22A0FB02231A0946F2A46392
:10186000C1F814C0C0F600039A5C40F2FF335F2851
:101870004FF03F0021EA030100FA02F088BF043173
:10188000C4E916128860002301250020636584F8EE
:101890003550BDE8F08100BF032AD5D8012540238B
:1018A0000120DFE802F0030E030500BF82E700BF5E
:1018B000AEF1C070B0FA80F0400904E0032A04D30E
:1018C000C2D1CEF300600028BED001254023012004
:1018D000636584F83550BDE8F0810000B0B504467A
:1018E00000F0E6F8054640F21000C2F20000007871
:1018F000611C18BF044400BF00F0DAF8401BA0428E
:10190000FAD3B0BD2DE9F04F83B000F1200200F111
:101910003E4741F60005009207F1FF77C4F2020549
:1019200007224FEAB726A84208BF062200254FF03B
:1019300000084FF00009062E38BF4FEAB722019287
:101940000AE000BF09F1010908F10208B9F1100F1E
:1019500005F1040500F0A2800F68012202FA09FED9
:1019600017EA0E0AEED0D1F804C003220CF00307E8
:101970007E1E02FA08F4012E6FEA040B12D8846866
:10198000CE6804EA0B0406FA08F63443846044681F
:1019900024EA0E06CCF3001404FA09F42643466048
:1019A00004E000BF032F01D103271EE0C6688C6846
:1019B00006EA0B0604FA08F42643022FC66014D187
:1019C0006FF00302009E02EA590756F807C005F0BF
:1019D0001C040F220B69A2402CEA0202A3401A4306
:1019E000F251D1F804C00CF00307026807FA08F3BB
:1019F00002EA0B021A431CF4403F0260A2D000220C
:101A000043F644030292C4F202031A6843F6004408
:101A100042F480421A601A68C4F2010402F480425F
:101A20000292029A29F003024FF6084C2244CFF6A4
:101A3000FF7C52F80C3005F00C070F26BE40B34374
:101A4000019E06FA07F73B4342F80C30A2684B6848
:101A500042EA0A0743F60C4CDE0258BF22EA0A07A4
:101A6000A760C4F2010CDCF800209E0242EA0A07DB
:101A700058BF22EA0A07CCF8007062689E0342EA67
:101A80000A0758BF22EA0A0767602268DB0342EAB6
:101A90000A0758BF22EA0A07276053E703B0BDE8E8
:101AA000F08F0000002A08BF090481617047000020
:101AB00048F61440C2F200000068704740F210007F
:101AC00048F61441C2F20000C2F2000100780A6830
:101AD000104408607047000080B543F60040C4F22F
:101AE0000200016841F400710160016841F4806105
:101AF0000160016841F480710160032000F0BCF8CE
:101B00000F2000F005F800F05DF8002080BD000017
:101B100070B586B0002543F640010195C4F202017C
:101B20000A68044642F010020A60096801A801F040
:101B3000100101910199694600F060F9049E002EA0
:101B400018BF012600F07AF94DF68361B040C4F267
:101B50001B31A0FB01014FF0FF3000EB914140F23F
:101B6000244041F20002C2F20000C4F2000240F23E
:101B7000E733C0E90021C0E902530561856101F046
:101B800013F808B106B070BD40F22440C2F2000064
:101B900001F06EF80028F5D1362000F02FF80F2C58
:101BA0000CD836202146002200F03AF840F2140109
:101BB0000020C2F200010C6006B070BD012006B02A
:101BC00070BD000082B0002043F640010190C4F2D5
:101BD00002014A6842F480424A604A6802F4804244
:101BE0000192019A0090086840F0805008600868EF
:101BF00000F080500090009802B07047002848BF65
:101C0000704700F01F01012202FA01F11C2202EAD2
:101C1000D0004EF20012CEF2000281507047000058
:101C200010B54EF60C5CCEF2000CDCF80030C3F3BD
:101C3000022E8EF00704042C28BF0424BEF10303F7
:101C40004FF0FF3E0EFA04F438BF0023A143994041
:101C50000EFA03F39A43114300F00F0200F16043C0
:101C60000901043A03F564436244002848BF02F1C5
:101C70000C03197010BD00004EF60C51CEF200019D
:101C80000A684FF6FF031A4060F30A2242F08060B0
:101C900040F0FD7008607047002804BF01207047C5
:101CA0002DE9F04143F60808C4F202080446D8F8CA
:101CB000F8030D4600F00F00814207D988F8F85369
:101CC000D8F8F80300F00F00A84277D12068810708
:101CD00017D5410705D5D8F8001041F4E051C8F8F0
:101CE0000010010705D5D8F8001041F46041C8F88C
:101CF0000010D8F80010A26821F0F0011143C8F8D4
:101D00000010C00740D1D8F8F80300F00F0085425A
:101D100007D288F8F853D8F8F80300F00F00A8426B
:101D20004CD12068410707D5D8F80010E26821F4AB
:101D3000E0511143C8F80010000708D5D8F800009A
:101D4000216920F4604040EAC100C8F8000000F0BA
:101D50009DF8D8F8001046F28C62C1F30311C0F66A
:101D60000002515C40F2180220FA01F140F2140026
:101D7000C2F200000068C2F200021160FFF7C8FE64
:101D80000020BDE8F08100BF6068811E022907D2F3
:101D900058F8081C89015CBF0120BDE8F08111E002
:101DA000012807D158F8081C89035CBF0120BDE851
:101DB000F08107E058F8081C890703D40120BDE82A
:101DC000F08100BFD8F8001021F003010843C8F8E3
:101DD0000000FFF76DFE064641F28837D8F8000094
:101DE000616800F00C00B0EB810F8CD0FFF760FE53
:101DF000801BB842F2D90320BDE8F0810F220260B7
:101E000043F60802C4F20202136803F003034360BE
:101E1000136803F0F0038360136803F4E053C360B6
:101E2000D2F800C04FF4E05303EADC030361D2F8B8
:101E3000F80300F00F0008607047000040F218003F
:101E400043F60801C2F20000C4F20201006809680A
:101E500046F29C62C1F38221C0F60002515CC84088
:101E60007047000040F2180043F60801C2F200007B
:101E7000C4F202010068096846F29C62C1F3423173
:101E8000C0F60002515CC8407047000010B543F630
:101E90000404C4F202046068C0F3810142F200400D
:101EA000C0F2F400DFE801F04102082647F64000E6
:101EB000C0F27D1010BD00BF206821682368490270
:101EC00047F64001C0F27D1100F03F02C3F38810D5
:101ED0005CBF42F20041C0F2F401A1FB000100230B
:101EE000FEF788FA21680222C1F3014102EB4101A9
:101EF00019E000BF206821682368490247F64001C5
:101F0000C0F27D1100F03F02C3F388105CBF42F2C3
:101F10000041C0F2F401A1FB00010023FEF76AFAC0
:101F20002168C1F30271B0FBF1F010BD002804BFBD
:101F3000012070472DE9F04182B00446007843F655
:101F40000006C007C4F202060CD0B06800F00C0016
:101F5000042840F089803068800303D56068002839
:101F600000F050812078800723D5B06810F00C0F66
:101F700011D0B06800F00C00082802D1706840024F
:101F800009D5B06800F00C000C2840F09F80706804
:101F9000400200F19B803068800703D5E06801288B
:101FA00040F030813068216920F0F80040EAC1003B
:101FB00030602078000713D4207840072AD4A56920
:101FC000002D00F01A81B06800F00C00082840F0E5
:101FD000AB80012D40F0E880012002B0BDE8F08127
:101FE0006069002840F20000C4F2472000F08880B9
:101FF0000121C0F8801EFFF75BFD0546706F80076A
:10200000DAD4FFF755FD401B0228F7D9032002B0B0
:10201000BDE8F081306C5FEAC0080AD4002001906E
:10202000306C40F080503064306C00F08050019093
:10203000019847F20007C4F200073868C00537D49A
:10204000386840F480703860FFF732FD054600BF05
:102050003868C0052CD4FFF72BFD401B0228F7D9A8
:10206000032002B0BDE8F081B06800F00C00082841
:1020700003D1706840023FF56EAFB06800F00C000D
:102080000C2803D1706840023FF565AF6168306885
:10209000B1F5803F07D0B1F5A02F40F0CB8040F4E0
:1020A00080203060306840F480303060CBE000BF8A
:1020B000A168306F012905D0052957D140F00400EF
:1020C0003067306F40F00100306759E0E068002869
:1020D00000F09C800020C4F2472001210160FFF73E
:1020E000E7FC0546306880073FF55CAFFFF7E0FC92
:1020F000401B02284FF00300F4D902B0BDE8F08184
:102100000021C0F8801EFFF7D3FC0546706F8007E2
:102110007FF552AFFFF7CCFC401B0228F6D9032015
:1021200002B0BDE8F08100BF0027C4F247270020BD
:102130003866FFF7BDFC022D05460BD130688001E3
:1021400040F19280FFF7B4FC401B02284FF00300DF
:10215000F4D9D2E7306880014FD5FFF7A9FC401BC6
:1021600002284FF00300F5D9C7E700BF20F00100B7
:102170003067306F002920F00400306700F098804D
:10218000FFF796FC054641F2883700BF306F8007A5
:1021900000F1A080FFF78CFC401BB842F6D9032069
:1021A00002B0BDE8F08100BF7068E16900F4800210
:1021B0008A4227D1216A00F03F028A4222D147F6A3
:1021C000C071626A0140B1EB821F1BD1A16A4FF658
:1021D000FF73C903994300F44032A1F580318A426C
:1021E00010D1E16A00F07062B2EB016F0AD1216B8D
:1021F00000F0E040B0EB017F04D1002002B0BDE868
:10220000F08100BF012002B0BDE8F0810020C4F2DF
:10221000472000210160FFF74BFC0546306880072E
:102220007FF5C7AEFFF744FC401B02284FF00300C8
:10223000F4D962E720F4803030603068002920F45F
:102240008020306050D0FFF733FC054630688003B3
:102250003FF588AEFFF72CFC401B6428F6D903201D
:1022600002B0BDE8F08100BF04F11C052FCD246B46
:10227000084340EA8210D9034FF6FF729143A1F55B
:10228000803140EA0560084340EA04707060012034
:102290003866FFF70DFC044630688001ADD4FFF7C7
:1022A00007FC001B02284FF00300F5D925E700BF0B
:1022B000FFF7FEFB054641F2883700BF306F80070D
:1022C00008D5FFF7F5FB401BB8424FF00300F5D9E6
:1022D00013E700BFB8F1000F3FF571AE306C20F08E
:1022E000805030646BE600BFFFF7E2FB054600BF9D
:1022F000306880037FF536AEFFF7DAFB401B6428B9
:102300004FF00300F4D9F8E670B528B1416A29B15D
:1023100000210161142106E0012070BD4168B1F582
:10232000827F02D01C21002242500026866290F853
:10233000511029B980F85060054600F03DF8284654
:10234000022180F8511090E82E0002F482720C688D
:1023500003F4044324F040040C601A4405F40063C1
:1023600005691A4405F0020345691A4405F00103A2
:102370008569C4691A4405F400731A4404F03803EB
:10238000046A1A4404F08003846A1A4304F4005374
:102390001A430A60436A042202EA154203F010035A
:1023A0001A444A60CA6922F40062CA610121466582
:1023B00080F85110304670BD2DE9F04F87B00446CB
:1023C00043F200070068C4F201070026B8420696EF
:1023D000CDE904660396029602D007B0BDE8F08FFF
:1023E00043F630000196C4F20200416902AD41F4A7
:1023F00080514161416946F2104801F480510191D8
:102400000199019601684FF0020941F00101016054
:1024100001684FF0030A01F0010101910199019651
:1024200001684FF0050B41F0020101600068294688
:1024300000F0020001900198C020029007F5504082
:10244000C4F20208CDE90396CDF814A0CDF818B077
:10245000FFF758FA0820CDE9020904A880E8400CEB
:1024600007F554402946FFF74DFA40F27C2508F164
:102470004800C2F200054FF0C06A4021C5E9000AD9
:1024800005F108004FF4806980E842024FF40037FC
:102490002846C5E90566EE61C5E90876FFF76CF9DF
:1024A000002818BFFEF7CAFFA564AC6340F21C25E4
:1024B000C2F200050020C5E90200C5E90490C5E9A3
:1024C0000600C5E908702846C5E9008AFFF754F9F7
:1024D000002818BFFEF7B2FFE564AC6307B0BDE8A3
:1024E000F08F00002DE9F04184B01D4616460F46DE
:1024F0000446FFF7DDFA94F8511001290ED1804609
:10250000002F4FF0010018BF002E03D104B0BDE82A
:10251000F08100BF94F85000012803D1022004B0DC
:10252000BDE8F081012084F850000320002184F8E8
:10253000510061652763A686E686A163A187E187CE
:10254000A0682164B0F5004F2068616407D101687C
:1025500021F040010160016841F48041016001689F
:10256000490603D4016841F0400101606168731EAF
:10257000E268B1FA81F1B3FA83F349095B09B2F574
:10258000006F41EA030139D131B137F8021BC16054
:102590002763E08E0138E086E08E002870D0681C4A
:1025A0000BD11AE0216B31F8022BC2602163E08E5F
:1025B0000138E086E08E002862D0206881688907B3
:1025C000F0D4FFF775FAA0EB0800A842F2D338E088
:1025D000FFF76EFAE08E002852D0206881688907E4
:1025E000F6D5216B31F8022BC2602163E08E0138F1
:1025F000E086E08E0028F0D142E000BF39B13978A2
:102600000173206B01302063E08E0138E086E08E9C
:10261000B0B3681C0BD123E0216B09780173206BE8
:1026200001302063E08E0138E086E08E40B3206800
:1026300081688907F0D4FFF73BFAA0EB0800A842B5
:10264000F3D3012084F85100002084F850000320C7
:1026500004B0BDE8F08100BFFFF72AFAE08E78B140
:10266000206881688907F7D5216B09780173206B91
:1026700001302063E08E0138E086E08E0028EFD143
:102680002046022101222B46CDF8008001F098FC63
:10269000E0B1606D40F02000606520206065A068BA
:1026A00038B9002002902068C168029180680290C9
:1026B0000298012084F85100002084F85000606DD9
:1026C000002818BF012004B0BDE8F08140F21800D6
:1026D000C2F20000006849F68171C1F25E61A0FBA0
:1026E0000101480D4FF47A71484303906068B0F5DA
:1026F000827F0BD12046802100222B46CDF800801E
:1027000001F05EFC0028C4D1C9E700BF039800288F
:10271000C5D0039801380390206881680906BED5AA
:1027200003990029BBD003990139039181680906F7
:10273000B5D503990029B2D0039901390391816875
:102740000906ACD503990029A9D003990139039151
:1027500080680006DAD4A2E72DE9F04383B01E4674
:1027600015460F460446FFF7A3F994F85110814629
:10277000012909D1002F4FF0010018BF002D0FD102
:1027800003B0BDE8F08300BF6068B0F5827F0DD173
:1027900004294FF00200F3D1A1680029EAD0EFE745
:1027A000002EEDD094F85000012803D1022003B090
:1027B000BDE8F083012084F8500094F85100002116
:1027C00004281CBF052084F851006165A563E687D5
:1027D000A6872763E6862068A6862164616401686F
:1027E000490603D4016841F0400101606168731E2D
:1027F000E268B1FA81F1B3FA83F3DDF82880490980
:102800005B09B2F5006F41EA030165D131B137F8D8
:10281000021BC1602763E08E0138E086012518F1B4
:10282000010032D102E000BFFFF742F9E08E18B993
:10283000E08F002800F0B8802068816889070CD5F7
:10284000E18E51B1012D08D1216B002531F8022B09
:10285000C2602163E18E0139E1868168C907E3D056
:10286000E18F0029E0D0C068A16B012521F8020B9F
:10287000A163E08F0138E087D6E700BFFFF718F9C2
:10288000A0EB0900404580F0A580E08E18B9E08FEC
:10289000002800F089802068816889070CD5E18EC6
:1028A00051B1012D08D1216B002531F8022BC260F6
:1028B0002163E18E0139E1868168C907DED0E18FAD
:1028C0000029DBD0C068A16B012521F8020BA163B0
:1028D000E08F0138E087D1E739B139780173206B97
:1028E00001302063E08E0138E086012518F10100F7
:1028F00032D101E0FFF7DCF8E08E10B9E08F00285C
:1029000052D02068816889070ED5E18E61B1012D12
:102910000AD1216B002509780173216B20680131F0
:102920002163E18E0139E1868168C907E2D0E18F38
:102930000029DFD0C068A16B01250870A06B0130B1
:10294000A063E08F0138E087D4E700BFFFF7B0F85D
:10295000A0EB090040453DD2E08E08B9E08F18B3E6
:102960002068816889070ED5E18E61B1012D0AD1F9
:10297000216B002509780173216B206801312163E7
:10298000E18E0139E1868168C907DFD0E18F002936
:10299000DCD0C068A16B01250870A06B0130A0637A
:1029A000E08F0138E087D1E720460221012243462B
:1029B000CDF8009001F004FBB0B1606D40F0200054
:1029C000606520206065002084F85000012003B07D
:1029D000BDE8F083012084F85100002084F8500005
:1029E000032003B0BDE8F08340F21800C2F20000FB
:1029F000006849F68171C1F25E61A0FB0101480DDA
:102A00004FF47A71484302906068B0F5827F0BD131
:102A10002046802100224346CDF8009001F0D0FAF4
:102A20000028CAD121E000BF0298F0B10298013815
:102A3000029020688168090617D50299A9B1029908
:102A400001390291816809060FD5029969B102998D
:102A5000013902918168090607D5029929B10299C5
:102A60000139029180680006DED4A06838B90020E0
:102A700001902068C168019180680190019801204F
:102A800084F85100002084F85000606D002818BFC1
:102A9000012003B0BDE8F0837047000070470000DC
:102AA00090F83C20012A04BF02207047B0B501F124
:102AB00008053CCDD1E900CE23F47C5322F47052BA
:102AC0001A432EF4F0431A432CF4E0431A4324F43F
:102AD000C0431A432A43C96922F480420368114360
:102AE0005964002180F83C100020B0BD90F83C20D3
:102AF000012A4FF0020254D010B580F83D20026840
:102B0000D2F804E0D2F808C00C682EF0700323431A
:102B100041F2FF74C4F20004A24253600EDC40F2A2
:102B2000FF73C4F200039A4216DCB2F1804F2BD03F
:102B300040F20043C4F2000324E000BF40F2FF3340
:102B4000C4F201039A4213DC41F60003C4F200030D
:102B50009A4219D0002313E040F60003C4F20003A8
:102B60009A4211D040F60043C4F200030AE000BFCD
:102B700044F20003C4F201039A4205D040F200433C
:102B8000C4F201039A4204D149682CF0800319432E
:102B900091600121002280F83D1080F83C20BDE8C2
:102BA0001040104670470000002804BF0120704705
:102BB00010B5044690F83D0028B9002084F83C0088
:102BC000204600F01FF8022084F83D002068211DF7
:102BD00001F0F2FA012084F8460084F83E0084F8FF
:102BE0003F0084F8400084F8410084F8420084F8F3
:102BF000430084F8440084F8450084F83D00002038
:102C000010BD000080B582B00068B0F1804F15D0D3
:102C10000021C4F2010188420ED10020019043F648
:102C20004000C4F20200416841F001014160406887
:102C300000F001000190019802B080BD00200090DA
:102C400043F64000C4F202000168002241F0010195
:102C500001600068052100F00100009000981C2030
:102C6000FEF7DEFF1C2002B0BDE88040FEF7C6BFC5
:102C700090F83D1001291CBF01207047022180F807
:102C80003D10006841F2FF72C168C4F20002904238
:102C900041F00101C1600DDC40F2FF71C4F200019E
:102CA000884215DCB0F1804F2AD040F20041C4F2D6
:102CB000000123E040F2FF31C4F20101884213DC3D
:102CC00041F60001C4F20001884219D0002113E04E
:102CD00040F60001C4F20001884211D040F60041E4
:102CE000C4F200010AE000BF44F20001C4F2010195
:102CF000884205D040F20041C4F20101884206D169
:102D0000816801F00701062904BF002070470168AF
:102D100041F00101016000207047000090F83C2064
:102D2000012A4FF002026CD080B580F83D20D0F827
:102D300000C04FF67772DCF8083023EA0202CCF8C4
:102D400008200B684F2B29DC1F2B45DD202B46D09C
:102D5000302B44D0402B40F0AF80D1F804E0C9685C
:102D6000DCF82030DCF8202022F00102CCF8202012
:102D7000DCF8182022F0F00242EA011123F00A02E6
:102D800042EA0E02CCF81810CCF82020DCF808102B
:102D900041F0470121F0300128E000BF6F2B33DD07
:102DA000B3F5005F74D0B3F5805F21D0702B40F095
:102DB0008380D1E901E3C968DCF8082043EA0E0307
:102DC00022F47F4243EA01211143CCF80810DCF8D9
:102DD000081041F0770109E00BB1102B6CD1DCF841
:102DE000081021F07001194341F00701CCF80810D8
:102DF0000022012180F83D10002180F83C10BDE840
:102E000080401046704700BF502B21D0602B53D11B
:102E1000D1F804E0C968DCF82030DCF8202022F08A
:102E20001002CCF82020DCF8182022F4704242EA8C
:102E3000013123F0A00242EA0E12CCF81810CCF8AF
:102E40002020DCF8081041F0670121F01001CDE7E7
:102E5000D1F804E0C968DCF82030DCF8202022F04A
:102E60000102CCF82020DCF8182022F0F00242EA1F
:102E7000011123F00A0242EA0E02CCF81810CCF835
:102E80002020DCF8081041F0570121F02001ADE7C7
:102E9000D1E901E3C968DCF8082043EA0E0322F413
:102EA0007F4243EA01211143CCF80810DCF80810F6
:102EB00041F480419AE700BF01229AE77047000081
:102EC00070B504460068C5680669B10716D515F0E7
:102ED000020113D06FF002010161012121778069A5
:102EE000800703D02046FFF7E9FF05E0204600F009
:102EF0008FF8204600F0CEF900202077700719D512
:102F000015F0040016D020686FF004010161022161
:102F10002177806910F4407F04D02046FFF7CEFF70
:102F200006E000BF204600F073F8204600F0B2F93A
:102F300000202077300717D515F0080014D020683E
:102F40006FF00801016104212177C069800703D077
:102F50002046FFF7B3FF05E0204600F059F8204671
:102F600000F098F900202077F00619D515F0100030
:102F700016D020686FF01001016108212177C06927
:102F800010F4407F04D02046FFF798FF06E000BF12
:102F9000204600F03DF8204600F07CF90020207724
:102FA000F00718BF15F0010002D1300609D412E075
:102FB00020686FF001010161204600F06DF93006D4
:102FC00009D515F0800006D020686FF080010161FE
:102FD0002046FFF761FD700609D515F0400006D0C8
:102FE00020686FF040010161204600F05FF9B006F3
:102FF00058BF70BD15F0200008D021686FF0200286
:1030000020460A61BDE87040FFF748BD70BD000072
:103010007047000090F83C30012B04BF022070473D
:103020004FEAB202032A00F2FF802DE9F043DFE805
:1030300002F003B13F7F00BF036840F200461C6A04
:103040001A6A24F0020422F001021A621A46D3F826
:1030500004C052F818EF8F6843F48065C4F201068B
:10306000B54244EA070405D1CF6824F00C0427F0E8
:1030700004073C430F68B54206D1D1E905582CF44A
:1030800040762E4346EA080C2EF073063743C3F809
:1030900004C09F614F6809695F631C629F6947F0C4
:1030A00008079F619F6927F004079F61B1E000BF97
:1030B000036840F200481C6A1A6A24F4007422F47F
:1030C00080721A621A46D3F804C052F81CEF8F6857
:1030D00043F48065C4F20108454544EA072408D159
:1030E000CF6840F2FF463F0224F4406427EA060618
:1030F0003443D1F80090454506D1D1E905562CF46A
:1031000040572E4347EA061C2EF0730747EA09078B
:10311000C3F804C0DF614F680969DF631C62DF69BF
:1031200047F00807DF61DF6927F00407DF6170E01F
:10313000036840F20045D3F820C01A6A43F4806760
:1031400022F480521A621A465C6852F81C8FD1F839
:1031500000E08E68C4F20105AF4204D14D6924F449
:10316000804444EA85142CF4005747EA063728F4D3
:10317000E64646EA0E265C60DE614E6809691E641A
:103180001F62DF6947F40067DF61DF6927F480674A
:10319000DF613DE0036840F200481C6A1A6A24F0CF
:1031A000200422F010021A621A46D3F804C052F822
:1031B00018EF8F6843F48065C4F20108454544EA7E
:1031C000071407D1CF686FF0400624F0C00406EA68
:1031D00007163443D1F80090454506D1D1E905568C
:1031E0002CF440672E4347EA860C2EF4E64747EA64
:1031F0000927C3F804C09F614F6809699F631C6277
:103200009F6947F400679F619F6927F480679F610A
:1032100009021368194311600021BDE8F043002240
:1032200080F83C20084670470121002280F83C20AD
:1032300008467047002804BF0120704710B50446B7
:1032400090F83D0028B9002084F83C00204600F0AA
:103250001FF8022084F83D002068211D00F0ACFF1B
:10326000012084F8460084F83E0084F83F0084F88A
:10327000400084F8410084F8420084F8430084F858
:10328000440084F8450084F83D00002010BD000093
:103290007047000070470000006841F20001C4F26E
:1032A0000001884218BF7047FEF708BC7047000055
:1032B0007047000070470000B0B582B001680A682E
:1032C000CC684B6902F02F05202D04F0200505D1B4
:1032D00025B102B0BDE8B04001F012B85FEA027C4F
:1032E0001EBF03F0010E04F4907313EB0E0341D1E3
:1032F000036BD50618D5012B16D114F0100313D08B
:10330000002201920A6801924A680192019A496971
:1033100049064BD4818DC28DC38D002B18BF9142BD
:1033200040F0068202B0B0BD13062DD514F0800324
:103330002AD090F84120212AF4D18268B2F5805F2A
:1033400003D10269002A00F07982026A531C0362E9
:1033500012784A60C28C013A1304C284E2D1C86870
:1033600020F08000C860C86840F04000C86002B02B
:10337000B0BD00BFD30718BF14F4807340F0E280E3
:10338000530700F1E580EAE05206CBD514F0400285
:10339000C8D0CA6822F04002CA60202180F84110DB
:1033A00002B0BDE8B04000F0ADBB00BFC26B116819
:1033B0004B68858D99B2002900F0B480A94280F055
:1033C000B180C385D169B1F5807F00F0A08001682C
:1033D00051E8031F026821F4807142E80313DBB156
:1033E000016851E8031F026821F4807142E8031369
:1033F00093B1016851E8031F026821F4807142E82B
:1034000003134BB1016851E8031F026821F4807176
:1034100042E80313002BDAD1016851E8051F026866
:1034200021F0010142E80513BBB3016851E8051F13
:10343000026821F0010142E8051373B3016851E805
:10344000051F026821F0010142E805132BB3016852
:1034500051E8051F026821F0010142E80513002B25
:10346000DAD11AE0016851E8051F026821F0400135
:1034700042E80513DBB1016851E8051F026821F03D
:10348000400142E8051393B1016851E8051F026845
:1034900021F0400142E805134BB1016851E8051FD6
:1034A000026821F0400142E80513002BDAD1202107
:1034B00080F8421000210163016851E8031F02688F
:1034C00021F0100142E80313DBB1016851E8031F4A
:1034D000026821F0100142E8031393B1016851E83A
:1034E000031F026821F0100142E803134BB1016889
:1034F00051E8031F026821F0100142E80313002B7A
:10350000DAD1C16B04460846FDF7FAFF20460221D6
:103510004163818DC28D891A89B202B0BDE8B04085
:10352000FFF7C6BE8D427FF4FDAED269B2F5807F53
:103530007FF4F8AE0222426302B0BDE8B040FFF76C
:10354000B7BE00BF436C43F001034364530706D585
:10355000BEF1000F03D0436C43F0020343649307B2
:1035600006D5BEF1000F03D0436C43F0040343645F
:10357000BCF1000F06D55EEA050303D0436C43F0AF
:1035800008034364436C002B3FF4CCAE920605D590
:1035900025B1044600F0B4FE216820464969426C1A
:1035A00001F0400102F00802891800F0B98000BF64
:1035B000016851E8031F026821F4907142E8031387
:1035C000BBB3016851E8031F026821F4907142E81F
:1035D000031373B3016851E8031F026821F490716B
:1035E00042E803132BB3016851E8031F026821F47A
:1035F000907142E80313002BDAD11AE0016851E818
:10360000051F026821F0010142E80513DBB10168E2
:1036100051E8051F026821F0010142E8051393B14A
:10362000016851E8051F026821F0010142E8051315
:103630004BB1016851E8051F026821F0010142E821
:103640000513002BDAD1016B012924D1016851E85F
:10365000031F026821F0100142E80313DBB1016887
:1036600051E8031F026821F0100142E8031393B1EF
:10367000016851E8031F026821F0100142E80313BA
:103680004BB1016851E8031F026821F0100142E8C4
:103690000313002BDAD1202180F8421000210163AE
:1036A00001684969490640F1C380016851E8051F76
:1036B000026821F0400142E80513DBB1016851E8DE
:1036C000051F026821F0400142E8051393B101682B
:1036D00051E8051F026821F0400142E805134BB193
:1036E000016851E8051F026821F0400142E8051316
:1036F000002BDAD1C16B002900F09A8044F2F52248
:10370000C0F60002044608460A65FDF741FF00289E
:103710003FF408AEE06B016D02B0BDE8B040084771
:103720000446FFF7C7FD0020606402B0B0BD00BFD3
:10373000891A00BF026852E8032F036822F49072CE
:1037400043E80325BDB3026852E8032F036822F45F
:10375000907243E8032575B3026852E8032F0368AB
:1037600022F4907243E803252DB3026852E8032F38
:10377000036822F4907243E80325002DDAD11AE0A1
:10378000026852E8052F036822F0010243E805258C
:10379000DDB1026852E8052F036822F0010243E818
:1037A000052595B1026852E8052F036822F0010251
:1037B00043E805254DB1026852E8052F036822F061
:1037C000010243E80525002DDAD1202280F84220AD
:1037D00000220263026852E8032F036822F01002FD
:1037E00043E80325DDB1026852E8032F036822F0A5
:1037F000100243E8032595B1026852E8032F0368DD
:1038000022F0100243E803254DB1026852E8032F6D
:10381000036822F0100243E80325002DDAD10222CA
:1038200089B2426302B0BDE8B040FFF741BD00BFBE
:1038300002B0BDE8B040FFF73DBD00BF026A32F8FC
:10384000023B6FF35F234B60026283E5002804BFF5
:103850000120704710B5044690F8410028B90020B7
:1038600084F84000204600F021F8242084F841002C
:103870002068C16821F40051C160204600F0C0FDFD
:103880002068016921F490410161416921F02A0118
:103890004161C16841F40051C16000202021606491
:1038A00084F8411084F84210606310BD70B586B092
:1038B000044644F200402168C4F200000026814220
:1038C0000596CDE903660296019601D006B070BD5B
:1038D00043F630010096C4F202010A6900F5DE30B9
:1038E00042F400320A610A6902F400320092009A3E
:1038F00000960A6842F001020A60096801F00101BD
:10390000009100990C2101910221CDE902160321B9
:1039100004910721059101A9FDF7F4FF40F2DC2590
:1039200046F2A000C2F20005C4F202004FF00061AE
:1039300040224FF4806385E847002846C5E90436F5
:10394000C5E90666C5E90866FDF716FF002818BF39
:10395000FDF774FD262002210022A563AC63FEF76B
:103960005FF92620FEF74AF906B070BD70470000E7
:103970002DE9F04381B0044690F84100202809D198
:1039800000294FF0010018BF002A07D101B0BDE89F
:10399000F08300BF022001B0BDE8F0830020606426
:1039A00021201D460E4684F841001746FEF780F898
:1039B000A784E784A1688146B1F5805F02D12069C0
:1039C00000285DD037460020E28C2168002A5DD0B7
:1039D0006A1C24D0002D4AD0804600BF086800062B
:1039E00008D4FEF765F8A0EB0900A8427AD8216850
:1039F000C868F3E717B117F8010B04E038F8020BB9
:103A000000276FF35F204860E08C0138E084E08C91
:103A10000028E3D13AE000BF0A68120609D40A6818
:103A2000120606D40A6812065CBF0A685FEA0262E0
:103A3000F2D51FB117F8012B05E000BF30F8022BBB
:103A400000276FF35F224A60E28C013AE284E28C45
:103A5000002AE4D11AE000BF30F8022B00276FF3F0
:103A60005F224A60E28C013AE284E28C72B10A6819
:103A7000120635D5002FEFD017F8012BF1E700BF64
:103A800000273046E28C2168002AA1D10868400650
:103A90001ED42DB3681C14D1086840062AD40868C7
:103AA000400627D40868400624D4086840064FF032
:103AB0000000F1D50DE000BF2068C1680068400635
:103AC00018D4FDF7F5FFA0EB0900A842F4D909E0EE
:103AD0000020202184F8411001B0BDE8F08300BF30
:103AE000FDF7E6FF0320202184F8411001B0BDE876
:103AF000F08300BF0020202184F8411001B0BDE810
:103B0000F083000070470000FEE7000070B584B04D
:103B100040F200446B20C4F20204ADF80A002046D3
:103B200040210022FDF7BEFF40F23C35C2F2000505
:103B30000DF10A01284602224FF0FF334FF0FF3605
:103B4000FEF7D0FC204640210122FDF7ABFF6420A8
:103B5000FDF7C4FE40F2F510ADF80E0020464021FE
:103B60000022FDF79FFF0DF10E0103AA2846022354
:103B70000096FEF7F1FD204640210122FDF792FF5D
:103B80009DF80D00123818BF012004B070BD000070
:103B900010B582B040F0800040F200448DF806007D
:103BA0000120C4F202048DF80700204640210022C3
:103BB000FDF778FF40F23C304FF0FF3CC2F20000CE
:103BC0000DF1060101AA0223CDF800C0FEF7C4FDE5
:103BD000204640210122FDF765FF9DF8050002B057
:103BE00010BD000080B582B0002043F63001019086
:103BF000C4F202010A6842F400120A600A6802F480
:103C000000120192019A00900868002240F480009E
:103C100008600868002100F48000009000981120DE
:103C2000FDF7FEFF1120FDF7E9FF382007210022F4
:103C3000FDF7F6FF3820FDF7E1FF3B2007210022CA
:103C4000FDF7EEFF3B2002B0BDE88040FDF7D6BF98
:103C50002DE9F04786B0002743F630000597CDE9FF
:103C60000377CDE901770097C4F2020001680025CF
:103C700041F0010101600168C4F2020501F0010197
:103C80000091009900970168012241F00401016050
:103C90000168202601F00401009100990097016855
:103CA0004FF0010841F0020101600068202100F09E
:103CB0000200009000982846FDF7F4FE05F58064A8
:103CC0002046402101224FF04009FDF7EBFECDE9EF
:103CD000016801AE4FF0030A284631460397CDF83C
:103CE00010A0FDF70FFE102001904FF48810CDE9D1
:103CF000020705F500603146FDF704FE2046314617
:103D0000CDE90198CDE9037AFDF7FCFD06B0BDE8E9
:103D1000F087000080B540F23C3043F20001C2F26F
:103D20000000C4F201014FF48272002380E80E000B
:103D300000F114014FF4007C4FF0100E81E80850A0
:103D40000A21C0E90333C0E90833C0E90A31FEF7AC
:103D5000DBFA002808BF80BDBDE88040FDF76EBBE0
:103D600070B59CB0002540F29430C4F201050021EA
:103D7000C2F20000A72244F61F6380261591CDE908
:103D800013111191CDE90F11CDE90D11CDE90B11F1
:103D9000CDE90911CDE90711CDE90511CDE90311EF
:103DA000CDE90111C0E90052C0E90213C0E90411D4
:103DB0008661FEF7F9FE002818BFFDF73FFB4FF4C0
:103DC0008050129040F29430C2F2000012A9FEF727
:103DD000A5FF002818BFFDF731FB40F29430C2F276
:103DE0000000FFF727FA002818BFFDF727FB40F275
:103DF00094300024C2F2000010A9CDE91044FEF76F
:103E000075FE002818BFFDF719FB6020099040F2ED
:103E1000DC50CDE90A0440F29430C2F2000009A956
:103E20000022CDE90C44CDE90E44FFF7F3F8002859
:103E300018BFFDF703FB40F29430C2F2000009A95D
:103E40000422FFF7E7F8002818BFFDF7F7FA40F261
:103E50009430C2F2000009A90822FFF7DBF800281D
:103E600018BFFDF7EBFA40F29430C2F2000009A946
:103E70000C22FFF7CFF8002818BFFDF7DFFA40F259
:103E800094344FF40050C2F200040026069001A9B9
:103E900020460596CDE90366CDE901660896FEF752
:103EA000FFFD002818BFFDF7C9FA20681B96A8423D
:103EB000CDE919661896179602D01CB070BD00BFE8
:103EC000002043F630011690C4F202010A6842F065
:103ED00001020A60096801F00101169116994FF478
:103EE000706117910221CDE9181003201A9001206A
:103EF0001B9005F5803017A9FDF704FD1CB070BDBF
:103F000080B586B040F2DC300021C2F200004FF0F4
:103F10008042532340F2E73C0591CDE90311CDE9FE
:103F20000011C0E90023C0E9021C01618161FEF7B4
:103F30003BFE002818BFFDF781FA4FF48050029035
:103F400040F2DC30C2F2000002A9FEF7E7FE0028D2
:103F500018BFFDF773FA40F2DC30C2F20000694688
:103F6000FEF7C4FD002818BFFDF768FA06B080BD53
:103F700080B540F26C4044F20041C2F20000C4F24D
:103F8000000100234FF00C0C4FF4E13280E80E00EA
:103F9000C0E90333C0E905C3C361FFF757FC00283C
:103FA00008BF80BDBDE88040FDF748BAFEE70000CD
:103FB000FEE700004EF21000CEF2000000687047ED
:103FC0002DE9F04381B0089C984615460E4681467F
:103FD000FDF76EFD201A00EB0804FDF769FD40F2C5
:103FE0001801C2F200010968C1F3CB3161430091AD
:103FF000D9F800108A683240921BB2FA82F2520954
:10400000954203D1002001B0BDE8F083074618F1C6
:1040100001000ED130E000BF009801380090D9F8BF
:10402000000080683040801BB0FA80F04009854273
:10403000E8D0FDF73DFDC01BA04227D20098002824
:10404000EAD10024EBE700BF88683040801BB0FA5B
:1040500080F040098542D5D088683040801BB0FA96
:1040600080F040098542CDD088683040801BB0FA8E
:1040700080F040098542C5D088683040801BB0FA86
:1040800080F040098542DFD1BCE700BFD9E90001DB
:104090004268B1F5827F22F0E00242600BD1D9F88C
:1040A0000810B1F5004F02D0B1F5806F03D101685F
:1040B00021F040010160D9F82810B1F5005F07D167
:1040C000016821F400510160016841F40051016070
:1040D000012089F85100002089F85000032001B028
:1040E000BDE8F08370B594B007AC20463421FCF7EE
:1040F000A4FB002543F640000695CDE90455CDE923
:1041000002550195C4F202000168022641F0805177
:104110000160006800F080500190019847F20000B3
:104120000195C4F20000016841F44041016000685B
:1041300000F440400190019801200A9010200B905B
:1041400008200F90A820CDE9100620460796CDE95B
:104150000D65CDE91266FDF7E9FE18B172B600BF34
:10416000FEE700BF0F20CDE902064FF4A0500590F6
:104170004FF48050069002A805210495FDF78CFDB0
:1041800010B172B6FEE700BF14B070BD4EF6885095
:10419000CEF20000016841F4700101607047000038
:1041A00040F2DC30C2F20000FEF78ABE40F224404A
:1041B000C2F20000FEF784BEB0B540F6FF3E0568CF
:1041C000C4F2000E40F2004C7045C4F2010C25DC34
:1041D000B0F1804F2FD040F20043C4F20003984268
:1041E00029D040F60003C4F20003984223D041F6E0
:1041F000FF73C4F20003984228DC70453ADCB0F14A
:10420000804F5BD040F20043C4F20003984255D087
:1042100040F60003C4F200034EE000BF40F6004346
:10422000C4F20003984206D0604504D00023C4F2D3
:1042300001039842DBD14B6825F0700243EA020586
:1042400041F6FF73C4F200039842D6DD43F6FF73D4
:10425000C4F2010398421FDC42F20003C4F20003DF
:1042600098422BD00023C4F20103984226D0604527
:1042700024D028E040F60043C4F2000398421DD049
:1042800041F60003C4F20003984217D041F6004300
:10429000C4F2000310E000BF44F20003C4F20103C3
:1042A00098420BD044F60003C4F20103984205D0B3
:1042B00044F20043C4F20103984204D1CB6825F4D0
:1042C000407243EA02050A688C684B69C46240F494
:1042D00080648262644504BF09690163026825F055
:1042E000800142F004021943026001224261016030
:1042F000B0BD0000806B0021C185FEF7DBBF000070
:1043000081B090F84210222921D183680246B3F58A
:10431000805F09D152F8281F52F8183C002B63D057
:1043200003685B680AE000BF52F8281F13B90369ED
:10433000002BF5D003685B6803F07F030B701168F6
:1043400001311160C18D01390A04C18502D001B06B
:10435000704700BF0168CA6822F02002CA60CA68BC
:1043600022F48072CA604A6922F001024A61202167
:1043700080F8421000214163026B012A3CD10163A5
:10438000016851E8031F026821F0100142E803139D
:10439000DBB1016851E8031F026821F0100142E817
:1043A000031393B1016851E8031F026821F0100163
:1043B00042E803134BB1016851E8031F026821F082
:1043C000100142E80313002BDAD101680A68D20613
:1043D00006D5002200920A6800924968009100996F
:1043E000818D01B0FEF764BF026852686FF35F22EF
:1043F00021F8022B8162A5E701B0FFF7B7BA0000F0
:10440000B0B50446006804F108030ECB05691943F2
:1044100025F440552A4302616269E3691143C26889
:10442000194349F20C639A431143C1604169A2697F
:1044300021F4407141F20043114340F48062C4F220
:1044400001039A42416103D1FDF70CFD02E000BF78
:10445000FDF7F4FCE1694FF69C7563681922C0F61C
:10446000FF75B1F5004FA0FB02011FD15A00DB0F11
:10447000FBF7C0FF48F21F51C5F2EB11A0FB01236F
:104480005A0905F1805302FB0300322303EBC000FD
:10449000A0FB01014FF4F87000EA111000EB0210CC
:1044A000C1F34211084421688860B0BD9A009B0F97
:1044B000FBF7A0FF48F21F51C5F2EB11A0FB01234F
:1044C0005A0902FB0500322303EB0010A0FB010197
:1044D000F02000EA511000EB0210C1F34311084430
:1044E00021688860B0BD000040F26C40C2F200005C
:1044F000FEF7E2BEFEE7000010B548F61044C2F237
:104500000004207848B900F0FFF8022802DB0120FF
:10451000207002E0207801282CD101F019FB48F22C
:10452000F842C2F20002136801469BB18B4212D0DE
:104530005068D8B188421FD09068F8B188421ED028
:10454000D068F8B188421ED00420042400F054FA48
:1045500002E000BF1160002448F2085104EB44005F
:10456000C2F2000101EB401010BD00BF51600124F8
:10457000F2E700BF0424EFE70124EDE79160022495
:10458000EAE700BFD1600324E6E70000B0B548F6D3
:104590001045C2F200052978044689B900F0B4F844
:1045A000022809DB0120287020684FF0FF31BDE8A8
:1045B000B04000F0A5B900BF2878012818BFB0BDF1
:1045C00020684FF0FF31BDE8B04000F099B900001D
:1045D000006800F0B3B9000010B50446002000F0F8
:1045E000CBF9002820601CBF012010BD052021460A
:1045F00000F002FA002010BDB0B548F61045C2F236
:1046000000052978044679B900F07EF8022807DB16
:10461000012028702068BDE8B04000F0CBB900BF91
:104620002878012818BFB0BD2068BDE8B04000F070
:10463000C1B9000000F086B810B582B004468DF80C
:10464000070040F26C40C2F200000DF107010122A8
:104650004FF0FF33FFF78CF9204602B010BD000089
:10466000FDF73AFAFFF73EFDFFF7F2FAFFF7BAFA65
:10467000FFF750FBFFF77CFCFFF772FBFFF740FCF6
:1046800040F20040C4F2020040210122FDF70AFA84
:104690000BA0FCF723F8FFF739FA18B10CA0FCF7D0
:1046A0001DF803E00DA01221FBF71CFF12A400BFB0
:1046B0007520FFF76DFA01462046FBF713FFF7E779
:1046C0005374617274696E6720494D550D00000086
:1046D000494D55206661696C65640D00494D552052
:1046E000696E6974206F6B21205741493A203078F8
:1046F000253032580D0A00005741493A20307825BC
:104700003032580D0A000000EFF3058048B9EFF38E
:10471000108030B9EFF3118018B9EFF31480C0079F
:104720000AD110B540F21C00C2F20000047A204603
:10473000FCF790FE204610BD45F6853CC0F6000C07
:1047400000DF704780B500F055F9FCF785FEEFF308
:10475000058028B9EFF3108010B9EFF3118038B15C
:104760006FF00500FCF772FE6FF0050080BD00BF22
:1047700045F69D3CC0F6000C00DF80BDF0B581B071
:104780001F4616460C460546FCF77CFEEFF30580F7
:1047900030B9EFF3108018B9EFF3118000284FD033
:1047A000002D2DD0002F2BD1002C29D02878FA28CD
:1047B00026D105F1280050E8001F11B9BFF32F8F53
:1047C00004E04A1E40E8002303B1F4E771B1EF6A48
:1047D00067B10120B91CD1E84F2FC1E8430F03B1E5
:1047E000F9E7110616D0BF68002FF3D128462146FD
:1047F000FCF754FE6FF00204204601B0F0BD00BF8C
:1048000028466FF003016FF00304FCF739FE2046E1
:1048100001B0F0BD6A6A07F10C012046FBF774FF96
:10482000002E1CBFF87830703846FD6000F036FC72
:1048300028462146FCF73AFE0024204601B0F0BD90
:1048400045F6FD4C2846C0F6000C214632463B4654
:1048500000DF01B0F0BD00002DE9F0411F46904699
:104860000C460546FCF71CFEEFF3058028B9EFF374
:10487000108010B9EFF31180B0B31DB317BB0CB3A8
:104880002878FA281ED105F10C0000F095F918B32C
:104890006A6A00F10C01064608462146FBF734FF20
:1048A000F920307000273046B77086F80380C6E9DB
:1048B000014500F0F3FB28462146FCF7E9FD3846A8
:1048C000BDE8F08128466FF003016FF00307FCF7A5
:1048D000D7FD3846BDE8F08128462146FCF7DCFDCF
:1048E0006FF00200BDE8F08146F2650C2846C0F684
:1048F000000C214642463B4600DFBDE8F081000047
:10490000B0B50D460446FCF7D3FDEFF3058028B99A
:10491000EFF3108010B9EFF3118038B120466FF03B
:104920000501FCF7D3FD6FF00500B0BD46F2092C80
:104930002046C0F6000C294600DFB0BD10B5044685
:10494000FCF7C0FDEFF3058028B9EFF3108010B934
:10495000EFF3118040B120466FF00501FCF7B6FD82
:104960006FF0050010BD00BF46F2F12C2046C0F6E6
:10497000000C00DF10BD000010B50446FCF7A8FDD8
:10498000EFF3058028B9EFF3108010B9EFF3118031
:1049900040B100206FF005010024FCF797FD204690
:1049A00010BD00BF46F2C53C2046C0F6000C00DF3B
:1049B00010BD000010B50446FCF78EFDEFF3058036
:1049C00028B9EFF3108010B9EFF3118040B1204601
:1049D0006FF00501FCF77AFD6FF0050010BD00BF18
:1049E00046F26D4C2046C0F6000C00DF10BD000002
:1049F000FEE7000070470000B0B50C460546FCF726
:104A000027FD28462146BDE8B040FFF7F1BF000072
:104A10002DE9F041002818BF002907D10023002408
:104A2000FCF71EFD2046BDE8F08100BF042AF5D248
:104A3000034601F10F0653F8085F26F0070C5C6887
:104A400024F003061E44AE1B664521D22B68002BC2
:104A5000E4D06C6824F003062E449E1B664519D2F0
:104A60001D68002DDAD05C6824F003061E44AE1BDE
:104A700066450DD22B68002BD0D06C6824F003065D
:104A80002E449E1B664505D21D68002DD7D1C5E773
:104A9000AE4601E09E462B46D0E90058461956F82E
:104AA000047C08EB0C05AF42456003D2A6F1080474
:104AB00065605C6854B124F00304E51844F803E031
:104AC0004CEA02071D602B466F6002E04CEA0207C9
:104AD0005F6003F108042346FCF7C2FC2046BDE8F2
:104AE000F081000010B5002818BF002906D100226F
:104AF0000024FCF7BDFC204610BD00BFA1F1080357
:104B000000F10804A34215D02268002AEFD09A428F
:104B10001AD01468002CEAD09C4219D02268002ACE
:104B2000E5D09A4210D01468002CE0D09C42944604
:104B3000EAD10EE0C268436822F003029A1A42608A
:104B40000022C2600EE000BFA446144601E000BF90
:104B50009446D4E90023446823F00303E31A436036
:104B6000CCF8002001220124FCF782FC204610BD75
:104B700010B5D8B110F0070218D1182916D311F0CA
:104B8000070213D10B18A3F108048460002443F832
:104B9000084C8368102242605A60C46001220124DC
:104BA0000160FCF767FC204610BD00BF0022002416
:104BB000FCF760FC204610BDB0B500281AD000F10B
:104BC000140151E8004F14B9BFF32F8F04E022689D
:104BD00041E8002303B1F4E73CB1011D51E8002F87
:104BE000531C41E8003505B1F8E72146FCF73AFCD3
:104BF0002046B0BD002000210024FCF733FC2046F5
:104C0000B0BD0000B0B5002822D0C26891421FD3C9
:104C1000026991421CD200F1140213680B60BFF3C9
:104C20005F8F52E8003F0C689C42F6D142E80015C5
:104C300005B1F2E7021D52E8003F5C1E42E8004564
:104C400005B1F8E700220024FCF70EFC2046B0BDB9
:104C50006FF003026FF00304FCF706FC2046B0BDC2
:104C60002DE9F0410E4600284FF0000118BF002E3C
:104C700002D10846BDE8F0811446002AF9D01F464B
:104C8000002BF6D004FB06714FF00008C0E90417B2
:104C9000314622463B46C0E90068C0E90247FCF7BE
:104CA000E5FB701E0CD010F00302A6F1020119D032
:104CB0003819012A38600BD10746084612E000BFB8
:104CC0003D460121C5F800800846BDE8F08100BFDF
:104CD0000719022A076001D1F01E03E03A193A6071
:104CE000301F174603293D4613D3610004EB4402ED
:104CF000A30000BF3E193E6026447D183D51264466
:104D0000BD1847F814503519FE18BE5004382F4608
:104D1000F0D10121C5F800800846BDE8F08100000F
:104D20002DE9F047044680786168002864D0D4E912
:104D30000205002905F12C08424618BF01F10802BE
:104D400005F1300910604A46002818BF021D0020F6
:104D500005F10C061160207030462146FFF752FF26
:104D6000A868002800F0F6803046FFF725FF0028ED
:104D700008BFBDE8F0870446284600F0DDFB0021AF
:104D8000002206464FF0000A00F07AFD304600F09F
:104D9000A3FC46686A6A074604F10C003146FBF73B
:104DA000B3FCF9202070286B397A002884F802A01F
:104DB000E17073D0C2788A4276D24268002A00F04D
:104DC0008A80D3788B4280F081805068002800F080
:104DD0008180C3788B4280F08F804268002A7AD02D
:104DE000D3788B4272D25068002873D0C3788B423C
:104DF0001346E2D381E000BFA568A86860B340789D
:104E0000832829D12846FCF745FB284600F094FB6F
:104E10000021002206464FF0000800F031FD304628
:104E200000F05AFC46686A6A074604F10C013046F5
:104E3000FBF76AFCB86800281CBFE17801702846BF
:104E40003146FCF733FB05F10C00214684F8008065
:104E5000BDE8F047FFF7D6BE2846FCF71BFB2A4605
:104E600052F8300F30B3E178C3788B4228D24268D1
:104E7000DAB3D3788B4233D25068A8B3C3788B426D
:104E800056D242688AB3D3788B4229D2506858B33D
:104E9000C3788B421346EAD34BE000BFC4E901AAB2
:104EA000C8F8004032E000BF0021C4E9010184607D
:104EB0002CE000BF0020C4E90100EC6240E000BF2C
:104EC0000021C4E9010184603AE000BF03461046B6
:104ED00013E000BF10460021C4E9011012E000BF3A
:104EE0000346104625E000BF10460021C4E901102A
:104EF00005F12C0122E000BF1346C4E9010300F1D3
:104F000008081846C8F8004000F10409C9F8004034
:104F100005F1280050E8001F4A1C40E8002303B1B7
:104F2000F8E728463146BDE8F047FCF7B3BA00BFC2
:104F30001346C4E9010300F1080118460C60021D84
:104F4000146005F1280050E8001F4A1C40E80023C7
:104F500003B1F8E7BDE8F08780B546F2E450C0F64B
:104F60000000D0E91A20082100F0CAFF40F21C021C
:104F70000146C2F200020020002908BF4FF0FF30B6
:104F8000D16480BDC278920758BF7047C06890F85E
:104F900021C0C36A02E000BF5B698BB1DA78920777
:104FA000FAD59A688A4208BF9268002AF4D092F92A
:104FB00020204FFA8CFC6245C8BF9446ECE700BF46
:104FC00090F820105FFA8CF2914201D1704700BF37
:104FD00080F820C000F0F6BA2DE9F04140F21C0440
:104FE000C2F20004B4F8540004F15605D5E85F1F7E
:104FF00011B9BFF32F8F04E04A1EC5E8532F03B148
:10500000F4E7090432D004F15A0640F265170FF2B2
:1050100068080EE0B4F85400D5E85F1F11B9BFF37B
:105020002F8F04E04A1EC5E8532F03B1F4E70904AB
:105030001CD0D6E85F1F4A1C904200D80022C6E868
:10504000532F03B1F5E7E06D89B250F8210068B144
:1050500001780F31C9B20829DCD827FA01F2D2074A
:10506000D8D058F8211009688847D3E70020BDE858
:10507000F04100F075B900BF7C0000207C000020EA
:10508000800000207C0000207C00002084000020A4
:10509000880000207C0000208C00002070B540F2C9
:1050A0001C02C2F20002B2F8543002F15601D1E8FB
:1050B0005F4FA34202D8BFF32F8F04E0651CC1E805
:1050C000565F06B1F3E7A1B29942014614D202F14C
:1050D0005800D0E85F4F651CAB4200D80025C0E8FF
:1050E000565F06B1F5E7D06DA3B240F82310507AB1
:1050F00040B10120907270BD0220BDE87040FFF702
:105100007BBC00BF4EF60450CEF200004FF0805141
:10511000016070BD2DE9F04381B040F21C08C2F27D
:105120000008D8F82C401CB1E0690138E06103D0D8
:1051300001B0BDE8F08300BF012708F11C064FF065
:10514000000900BF607813384FEA3010082800F2D9
:10515000AD80DFE800F005AB235B759309274100C4
:105160002046FCF76FF9A1E02078F128204611D104
:10517000204600BFC0680178F1290BD1C0680178D2
:10518000F12907D1C0680178F12903D1C0680178FD
:10519000F129EFD0FCF770F988E000BF2046FCF75A
:1051A000A3F983E02078F128204611D1204600BFE2
:1051B000C0680178F1290BD1C0680178F12907D1C5
:1051C000C0680178F12903D1C0680178F129EFD0D6
:1051D000FCF75CF96AE000BF2078F128204611D185
:1051E000204600BFC0680178F1290BD1C068017862
:1051F000F12907D1C0680178F12903D1C06801788D
:10520000F129EFD0FCF750F950E000BF2078F128E9
:10521000204611D1204600BFC0680178F1290BD18A
:10522000C0680178F12907D1C0680178F12903D15C
:10523000C0680178F129EFD0FCF706F936E000BF2D
:1052400020782546F12811D1254600BFED68287841
:10525000F1280BD1ED682878F12807D1ED6828787E
:10526000F12803D1ED682878F128EFD028462146AF
:10527000FFF788FE2846FCF71FF917E02078F12891
:10528000204611D1204600BFC0680178F1290BD11A
:10529000C0680178F12907D1C0680178F12903D1EC
:1052A000C0680178F129EFD0FCF71AF994F82200D0
:1052B000A16BC0064FF0200058BF60204158204627
:1052C000FCF71AF9E06820B1A1680029816018BFD5
:1052D000C86094F92010304667708268EAB192F98C
:1052E00020308B4214DB9068B0B190F920308B42B3
:1052F0001CDB82688AB192F920308B4208DB90680F
:1053000050B190F920308B421346E6DA0FE000BF2F
:10531000034610460BE000BF104600F10801C4E947
:1053200002900C60246954B914E000BF134600F1E8
:105330000C01C4E902039C600C60246954B1E0696B
:1053400000283FF4FFAE00206061C8F82C4001B097
:10535000BDE8F0830024C8F82C4001B0BDE8F0831C
:1053600070B540F21C06C2F200060446327A70693B
:10537000002C53D094F92010022A2DD190F920202E
:10538000914229DD0121417006F11C018B68002B3F
:1053900000F09D8093F92050954240F393809968E6
:1053A000002900F0938091F92050954240F3AA80A3
:1053B0008B68002B00F08B8093F92050954240F3CE
:1053C00081809968002900F0818091F920509542F0
:1053D0001D46DBDC97E000BF0120607006F11C0079
:1053E0008268002A53D092F920308B424ADB9068C1
:1053F00000284BD090F920308B424FDB8268002A86
:1054000045D092F920308B423CDB906800283DD09B
:1054100090F920308B421346E2DA40E0022A44D170
:10542000746A002C41D094F9201090F92020914208
:10543000D8BF70BDE16831B1A368002B8B6018BF85
:10544000D9600021E1600121417006F11C018B68E7
:105450008BB393F92050954228DD996851B391F9A7
:10546000205095423ADD8B682BB393F9205095423A
:105470001CDD9968F1B191F9205095421D46E6DC9A
:105480002DE000BF0346104609E000BF1046002291
:1054900000F10801C4E9022006E000BF134600F154
:1054A0000C01C4E902039C600C6070BD0D461946F6
:1054B00015E000BF1946002301F10802C0E90231DE
:1054C00012E000BF0D4619461DE000BF194600233B
:1054D00001F10802C0E902311AE000BF1D4601F1E6
:1054E0000C02C0E90215A8601060FCF701F8E07832
:1054F00002214007617054BF0320022080F314880A
:1055000012E000BF1D4601F10C02C0E90215A860BF
:105510001060FBF7EDFFE07802214007617054BF97
:105520000320022080F31488BFF36F8F2046B461FC
:10553000BDE87040FBF7DEBF014680688268002A44
:105540008A6018BFD1600021C160704791F920C006
:105550008368E3B193F92020624513DB9868A8B112
:1055600090F92020624519DB836883B193F92020EC
:10557000624507DB986848B190F9202062451A46D9
:10558000E6DA0CE00246184609E000BF184600F1D2
:1055900008020023C1E90230116070471A46C1E9D0
:1055A0000202916000F10C0211607047C16800298D
:1055B00008BF70478268002A8A6018BFD160002146
:1055C000C1607047B8B101460A78F12A14D1C968A0
:1055D00089B10A78F12A0FD1C96861B10A78F12A34
:1055E0000AD1C968002908BF70470A78F12A03D197
:1055F000C9680029E8D17047C26822B18368002BCE
:10560000936018BFDA6090F920C08B68EBB193F912
:105610002020624514DB9968B1B191F920206245E0
:105620001ADB8B688BB193F92020624508DB9968FF
:1056300051B191F9202062451A46E6DA0DE000BF2B
:105640000A46194609E000BF1946002301F1080285
:10565000C0E90231106070471A46C0E9021290603A
:1056600001F10C02106070470121417040F21C01F1
:10567000C2F2000190F920C01C318B68EBB193F9A4
:105680002020624514DB9968B1B191F92020624570
:105690001ADB8B688BB193F92020624508DB99688F
:1056A00051B191F9202062451A46E6DA0DE000BFBB
:1056B0000A46194609E000BF194601F10802002315
:1056C000C0E90231106070471A46C0E902129060CA
:1056D00001F10C021060704790F82210806BC9062F
:1056E0004FF0200158BF602108447047016B806B68
:1056F00088429CBF0020704708684DF25B11C1F6DC
:10570000A5510844B0FA80F040097047C1780222E0
:105710004907427054BF0321022181F3148840F2EB
:105720001C01C2F20001BFF36F8F8861FBF7E2BE7C
:105730002DE9F04140F21C08C2F2000898F8082058
:105740000E46911EB1FA81F1D8F824204909002AA9
:1057500018BF012201EA0204012C40F08D80D8F824
:105760001450074628463146FBF7BCFE701C6F708C
:1057700008D0D8F82C201AB3D369B34228D9002115
:105780004FE000BF08F1300100220B461B681046B5
:105790005BB11A69184642B1176910462FB13A69D0
:1057A000384602F11003002AF0D14FF0FF32EA61CF
:1057B00000220028C5E9042018BF00F110013FE0D5
:1057C0000020EE61C5E9040008F12C0138E000BFBB
:1057D00010460169F61AE1B1CA69964214D3086904
:1057E000B61AA8B1C26996421AD30169B61A81B134
:1057F000CA69964208D30869B61A48B1C369024615
:10580000B342E6D90DE000BF0A46014609E000BFF9
:10581000084600F110010022EE61C5E904200FE006
:10582000024601F11000EE61C5E90421002908BF1C
:1058300008F12C00D1690560881BD06102F11401C8
:105840000D60D8F8240081680029C8F824101CBF16
:1058500008F11C02CA600021C160C1780222490718
:10586000427054BF0321022181F31488BFF36F8F6C
:10587000C8F81800FBF73EFE2046BDE8F0810000A6
:1058800070B514460D460646FBF736FE96F8221014
:10589000B26BC9064FF0200158BF60218D50F269EC
:1058A00031693046531C07D0A1B1CB69134442691A
:1058B000CB614A6182B919E04269002918BF4A6187
:1058C00052B940F21C02C2F2000211630021C16110
:1058D00044B914E042694AB11161002141610021DB
:1058E000C16164B1BDE87040FFF73ABD40F21C02EF
:1058F000C2F20002D1620021002CC161F2D101216B
:10590000417040F21C01C2F2000190F920201C31CC
:105910008B68E3B193F92060964213DB9968A9B1D3
:1059200091F92060964219DB8B6883B193F920606E
:10593000964207DB996849B191F9206096421E466C
:10594000E6DA0CE00E46194609E000BF194601F1FF
:1059500008020023C0E90231106070BD1E4601F14B
:105960000C02C0E90216B060106070BDB0B5FEF761
:1059700021FB40F21C05C2F20005E8680130E86036
:10598000FFF7C8FB0020FFF7EBFC286D002818BFCD
:105990008047296C51B3AA69E86B824206D0D0696E
:1059A000EA63002818BF0146104601E0D16911B131
:1059B0000139D1611AD1297A022917D16C6AACB1A7
:1059C00094F8201090F82000814218BFB0BD204606
:1059D000FFF7ECFDE86BFFF747FEE86BFBF788FD90
:1059E0002046FFF793FE286CEC63E061B0BD000039
:1059F00080B5FFF7B1FA00281CBF4FF0FF3080BD23
:105A000040F21C0045F64521C2F20000C0F600013C
:105A10000165002080BD000082B004466D4600BFD5
:105A20002046294600224FF0FF33FEF7A7FE00284C
:105A3000F6D1DDE90001FBF761FDDDE900108847E3
:105A4000EEE700002DE9F04381B040F21C05C2F200
:105A500000056C6C002C77D020696E6901384FF01E
:105A600000084FF00109206105E000BF84F80190B3
:105A70006C6C002C67D02069002864D1E06800229B
:105A800000281CBFA16881606864E86C04F11801FB
:105A90000023FEF7E1FE60B1D5E90570214668619B
:105AA0000320FEF7A9FF686986EA0701084308BFDB
:105AB0000646E078C007D9D06B6C606923B11F69D6
:105AC000874207D900222BE00021C4E90218206197
:105AD0002EE000BF1946CA68C01B002AF5D0136922
